:020000040000FA
:10000000C0110020F1010000F9010000FB01000017
:10001000FD010000FF0100000102000000000000DF
:1000200000000000000000000000000003020000CB
:10003000050200000000000007020000B1140000EB
:10004000D11400000B0200000B0200000B020000A4
:100050000B0200000B0200000B0200000B0200006C
:100060000B0200000B0200000B0200000B0200005C
:100070000B0200000B0200000B0200000B0200004C
:100080000B0200000B0200000B0200000B0200003C
:100090000B0200000B0200000B0200000B0200002C
:1000A0000B0200000B0200000B0200000B0200001C
:1000B0000B0200000B0200000B0200000B0200000C
:1000C0000B0200000B0200000B0200000B020000FC
:1000D0000B0200000B0200000B0200000B020000EC
:1000E0000B0200000B0200000B0200000B020000DC
:1000F0000B0200000B0200000B0200000B020000CC
:100100000B0200000B0200000B0200000B020000BB
:100110000B0200000B0200000B0200000B020000AB
:100120000B0200000B0200000B0200000B0200009B
:100130000B0200000B0200000B0200000B0200008B
:1001400000F002F800F045F80AA090E8000C8244A4
:100150008344AAF10107DA4501D100F03AF8AFF281
:10016000090EBAE80F0013F0010F18BFFB1A43F095
:100170000103184794220000B4220000103A24BF63
:1001800078C878C1FAD8520724BF30C830C144BFFC
:1001900004680C607047000000230024002500263E
:1001A000103A28BF78C1FBD8520728BF30C148BFDA
:1001B0000B607047642900F0A580782900F0DE808C
:1001C000732900F09C81002070471FB51FBD10B53A
:1001D00010BD00F0C7F91146FFF7F7FF01F0E4FA90
:1001E00000F0E5F903B4FFF7F2FF03BC00F0ECF90F
:1001F0000948804709480047FEE7FEE7FEE7FEE7BB
:10020000FEE7FEE7FEE7FEE7FEE7FEE704480549F6
:10021000054A064B70470000C11400004101000070
:10022000C0010020C0110020C00D0020C00D002022
:100230000FB4044910B503AA029800F065F910BC88
:100240005DF814FB040000202DE9F0410E46044641
:10025000002020622046E168884730B3252805D079
:10026000D4E901219047206A401CF2E7E16820466A
:1002700000278847050018D0A5F14100192802D8A9
:1002800020354FF400673246294620462760FFF7A5
:1002900091FF40B1012804D0F61D26F0070608366C
:1002A000D8E7361DD6E72846DAE7206ABDE8F081B0
:1002B00070B50C460546012A05D02878800600D581
:1002C000EA69002302E0012305E05B1C934202D2AD
:1002D000E05C0028F9D1A869E618C01AA861286A6C
:1002E000184428622846AFF3008004E0D5E90121D4
:1002F00014F8010B9047B442F8D32846AFF30080BE
:1003000070BD00002DE9F0410646002410687529F3
:10031000314616A510D0AFF30080002802DA404223
:1003200013A507E031688A0701D512A502E0490745
:1003300004D511A5012401E0AFF3008000210A22B9
:1003400006F1240709E0B0FBF2FCB0FBF2F302FB7C
:100350001C00303078541846491C0028F3D123463D
:100360002A463046BDE8F04100F05EB800000000CB
:100370002D0000002B0000002000000070B5044696
:100380000D4621461068AFF300802188090502D58B
:100390000F4A7A4402E00E4A7A440E32002104F1F8
:1003A000240305E000F00F060009965D5E54491C29
:1003B0000028F7D120780023000704D5702D02D043
:1003C00009B1022311322046BDE8704000F02CB87C
:1003D0002A2000004FF0000200B5134694469646CE
:1003E000203922BFA0E80C50A0E80C50B1F1200148
:1003F000BFF4F7AF090728BFA0E80C5048BF0CC0F6
:100400005DF804EB890028BF40F8042B08BF704753
:1004100048BF20F8022B11F0804F18BF00F8012BC5
:1004200070477047704770472DE9F0470D46994671
:100430009246044600F124080168880604D5E06964
:1004400021F01001216000E00120A84201DD471BDE
:1004500000E00027A1697A1902EB0900081AA061DF
:100460002078C00602D42046AFF30080002608E0C2
:10047000D4E901211AF806009047206A401C761C36
:1004800020624E45F4DB2078C0060AD52046AFF343
:10049000008006E0D4E9012130209047206A401C0A
:1004A0002062381EA7F10107F4DC07E0D4E901213E
:1004B00018F805009047206A401C2062281EA5F10C
:1004C0000105F3DC2046AFF300802078000602D55A
:1004D0000220BDE8F0870120FBE710B5436913B1A6
:1004E000AFF3008001E0FFF7E3FE012010BD1278BA
:1004F00000F124010A7000224A700122EDE7116820
:100500004FF0FF32E9E70000074B70B50D467B4422
:1005100000F011F80446284600F020F810B14FF022
:10052000FF3070BD204670BD6F12000001694A1C8B
:1005300002610878704700B58FB0CDE90131002124
:10054000059105497944CDE9031011466846FFF746
:100550007BFE0FB000BD0000E5FFFFFF007B00F059
:1005600080007047754600F02BF8AE4605006946DE
:10057000534620F00700854618B020B5FFF746FE29
:10058000BDE820404FF000064FF000074FF0000894
:100590004FF0000B21F00701AC46ACE8C009ACE815
:1005A000C009ACE8C009ACE8C0098D46704710B579
:1005B0000446AFF300802046BDE81040FFF712BEAE
:1005C000004870476001002001491820ABBEFEE7DB
:1005D00026000200704700000349884202D14FF014
:1005E000FF31C16170470000000001400AB1816124
:1005F0007047C1617047000010B501228A40026156
:10060000C2614262164B98420CD101F007040123EB
:10061000A34000EB8300072905D8D0F800149143CC
:10062000C0F8001410BDA1F10803072B05D8D0F8BD
:1006300000189143C0F8001810BDA1F11003072B5A
:1006400005D8D0F8001C9143C0F8001C10BD183923
:100650000729FBD800F5805001689143016010BD67
:100660000000014010B501228A400261C26142626D
:10067000164B98420CD101F007040123A34000EB74
:100680008300072905D8D0F800141143C0F80014DE
:1006900010BDA1F10803072B05D8D0F800181143AD
:1006A000C0F8001810BDA1F11003072B05D8D0F831
:1006B000001C1143C0F8001C10BD18390729FBD8D5
:1006C00000F5805001681143016010BD0000014039
:1006D0002DE9FC41064600F1280248F24E1701219F
:1006E000384600F0E9F8002186F82910002806DADB
:1006F000D42126A0FFF79CFD2748BDE8FC8196F891
:100700002800010608D500F00F0186F8291023A063
:10071000FFF78EFD002425E023A0FFF789FD1E488A
:100720000F38EAE748F24F1006EBC40500EBC400AF
:100730006A1C80B2072100F0BFF8002806DAEE211B
:1007400012A0FFF775FD14481A38D6E7E988A88883
:10075000CDE900016B886A78214616A0FFF768FD95
:10076000641CA4B296F82900A042DBD800213846C8
:1007700000F016F9002806DAFC2104A0FFF758FD66
:1007800005482738B9E70020B7E7000065727240D6
:100790006C25640D0A00000042FBFFFF6F6B3A25D9
:1007A000647074730D0A00006E6F20646174610DD3
:1007B0000A0000005B25645D3A2564232825642C2B
:1007C0002564294025640D0A000000001CB5224C58
:1007D00012212046FFF710FF13212046FFF70CFFE0
:1007E0000A2000F0C2FF01F081F912212046FFF734
:1007F00039FF0A2000F0B9FFE100616101AA04217C
:1008000048F2401000F058F8002801DAA7210CE067
:1008100001A912A0FFF70CFD6A46022148F246101A
:1008200000F04AF8002802DAB52110A011E0BDF866
:10083000001011A0FFF7FCFC6A46022148F24810A4
:1008400000F03AF8002801DAC221EEE7BDF8001006
:1008500011A0FFF7EDFC1CBD00000140546F756353
:10086000682049443A2025730D0A000065727240E1
:100870006C25640D0A0000007820636F6F72646954
:100880006E617465207265736F6C7574696F6E3A12
:100890002025640D0A0000007920636F6F7264697F
:1008A0006E617465207265736F6C7574696F6E3AF2
:1008B0002025640D0A0000002DE9F04115460E4682
:1008C000044601F0D1F8002804DA01F0F1F83348C9
:1008D000BDE8F081BA2001F05DF9002818DB01289D
:1008E00016D0200A01F056F9002816DB012814D092
:1008F000E0B201F04FF9002814DB012812D001F01A
:10090000D7F8002813DA01F0D3F824481C38DFE7C1
:1009100001F0CEF82148C01FDAE701F0C9F81F48FE
:100920000E38D5E701F0C4F81C481538D0E701F0BF
:100930009BF8002804DA01F0BBF818482338C7E711
:10094000BB2001F027F9002804DB012802D0002495
:10095000771E1DE001F0ACF86FF48B60B8E7BC4285
:1009600009D1012001F040F800280EDA01F0A0F8CA
:100970000A483538ACE7002001F036F8002804DAE0
:1009800001F096F805483F38A2E72855641CA4B248
:10099000B442E4D301F08CF8002099E7D1FBFFFFCB
:1009A00070B50C46054601F05FF8002803DA01F047
:1009B0007FF81B4870BDBA2001F0ECF800281ADB64
:1009C000012818D0280A01F0E5F8002818DB0128D2
:1009D00016D0E8B201F0DEF8002816DB012814D0AA
:1009E000204601F0D7F8002814DB012812D001F0CE
:1009F0005FF8002070BD01F05BF80948C01F70BDB2
:100A000001F056F806480E3870BD01F051F86FF449
:100A1000836070BD01F04CF801481C3870BD0000C7
:100A2000FCFBFFFF70B5002406464FF4163540F27C
:100A3000DF1340F23F122146204600F09AF92C20A5
:100A4000010708604E60641CAC42FBD370BD00001F
:100A50002DE9FE4F0026A2EB000882465F1A701EA9
:100A600035468946B8F1000F02DD4FF0010102E082
:100A700003D14FF00001019102E0C8F1000801909C
:100A8000002F02DD4FF0010002E003D14FF0000023
:100A9000009002E0C7F1000700904046B84501DD34
:100AA000044600E03C46601C4FF0000B029017E04B
:100AB0000E4A1FFA89F11FFA8AF0126800F018F83E
:100AC00046443D44A64202DD0199361B8A44A542B4
:100AD00002DD00992D1B89440BF101001FFA80FBF8
:100AE00002998B45E4DDBDE8FE8F00004C0000203C
:100AF00010B5144640F2DF1340F23F1200F039F90E
:100B00002C2108070160446010BD00002DE9FE4F54
:100B100081460024154603208846A0EB450654E094
:100B2000A8EB05002B4F029081B209EB040B1FFAD2
:100B30008BF03A68FFF7DCFFA8EB0400019081B26C
:100B400009EB050A1FFA8AF03A68FFF7D1FF08EBB4
:100B50000400009081B21FFA8AF03A68FFF7C8FFDC
:100B600008EB050A1FFA8AF11FFA8BF03A68FFF7C3
:100B7000BFFFA9EB040B1FFA8AF11FFA8BF03A684A
:100B8000FFF7B6FF0098A9EB050A81B21FFA8AF0B9
:100B90003A68FFF7ADFF02983A6881B21FFA8BF00E
:100BA000FFF7A6FF01983A6881B21FFA8AF0FFF7B3
:100BB0009FFF641C002E03DA06EB8406B61D04E0DA
:100BC000601B06EB80066D1E0A36AC42A8DDBDE850
:100BD000FE8F00004C0000202DE9F047DFF87491F3
:100BE00011214846FFF708FD0A2000F0BEFD112143
:100BF0004846FFF737FD0A2000F0B7FD4FF04044AC
:100C0000012060720225A572E572242121730A2653
:100C100066732072D320206000F0A6F800F0A4F8DC
:100C200000F0A2F84FF6FF7808EA002700F09CF8E1
:100C300040EA070148A0FFF7FBFAF7202060A9204F
:100C40006060512060602C20606082206060C02065
:100C500020601120606009206060C1202060412078
:100C60006060C52020600020606066608020606059
:100C7000B1202060B020606011206060B42020604E
:100C80006560B6202060656022206060B72020602B
:100C9000C6206060BE20206000206060042060608C
:100CA000E92020600020606036202060082060601D
:100CB0003A20206055206060E020206000206060C5
:100CC000072060601020606009206060172060606D
:100CD0000B20606041206060892060604B20606074
:100CE00066600C2060600E206060182060601B2031
:100CF00060600F206060E1202060002060601720AD
:100D000060601A206060042060600E206060062031
:100D100060602F20606045206060432060606560F7
:100D200066600920606032206060362060600F20BD
:100D3000606011202060642000F017FD29202060F1
:100D400006214846FFF78EFC4046BDE8F047FFF716
:100D500069BE000000000140204C43442049443A51
:100D600025780D0A000000004FF04040406880B236
:100D7000704730B54FF040442A252560050A65606C
:100D8000C0B26060100A6060D0B260602B2020604A
:100D9000080A6060C8B26060180A6060D8B260601B
:100DA00030BD000030B50F23C27801780125F2B1C3
:100DB000144A126801F1E02102F4E062C2F5E06237
:100DC000120AC2F10404D3404278A24084781C4045
:100DD0001443220181F80024007800F01F018D40A7
:100DE0004009800000F1E020C0F8005130BD01F062
:100DF0001F0085404809800000F1E020C0F88051C4
:100E000030BD00000CED00E0044A0029116801D05B
:100E1000814300E001431160704700000030004052
:100E200070B514460546C06B042202EBC402805C18
:100E3000322808D1084600F093FCE96B51F83410D1
:100E4000BDE87040084770BD10B50446084600F084
:100E500087FC052801D2A4F8500010BD70B51446D7
:100E60000546142A04D2084600F07AFC25F814003E
:100E700070BD10B50446A0F85A20084600F070FC7A
:100E8000002801DC012004E04FF4FA41884200DD33
:100E90000846A4F85C0010BD2DE9F041C46B15466E
:100EA00004EBC5068846B088242805D154F835706F
:100EB000084600F0FFFB3860B088022805D154F8DE
:100EC0003570404600F04CFC3880B088122805D1BF
:100ED00054F83570404600F043FC3880B088042850
:100EE00005D154F83570404600F03AFC3860B088BF
:100EF000142805D154F83540404600F031FC2060FC
:100F0000BDE8F08170B50446856AB0F94800212932
:100F10000AD034F9462F02EB820205EBC2020244EA
:100F2000401C6080117070BD0028FCDD0121002094
:100F300008E02A5C2B1893F828309A4200D0002150
:100F4000401C00B2B4F948208242F2DC002651B1C4
:100F5000B4F948002E54204600F012F8A4F8466078
:100F600085F8286008E0B4F8460010B1A4F846609F
:100F700002E00120A4F84600A4F8486070BD00001B
:100F80002DE9F00F8146806A0022354904E0521CA9
:100F900012B2835C002B5FD0835C11F823305B07B7
:100FA000F5D0835C11F823309B0755D000248A4686
:100FB00001E0641C24B2A118435C1AF823108907CD
:100FC000F7D14F1EDFF89C800023012500210AE0A5
:100FD0008E18865D58F823C01CF801C0664500D005
:100FE0000025491C09B2A142F2DB0DB11F4603E006
:100FF0005B1C1BB2052BE8DBA11809B2425C53460F
:101000001AF82220520727D500226FF02F0408E09B
:10101000455C02EB820204EB42022A44491C12B2F4
:1010200009B2455C13F825506D07F1D4435C232BBE
:1010300012D1491C09B2052F0ED2B9F9443093429E
:101040000ADD002A08DB01440648143050F8273036
:101050004846BDE8F00F1847BDE8F00F70470000A4
:10106000C01F000010000020B0F85000022802D07D
:101070004FF4807070470020704700002DE9F04168
:101080000446B4F95860B4F95C70CD21CC235F4DAF
:1010900002220020BE4223DBB4F856604EB9666BD4
:1010A0003170616B4B70636B0C219970636B4021E5
:1010B000D970B4F95610082935DBA4F85600A4F805
:1010C00058006880A4F85E20A4F86000B4F85010BE
:1010D000032901D1A4F850004FF48070BDE8F081DD
:1010E000B4F95E6040F2E937BE422EDDB4F85660D6
:1010F000AEB9B4F8606056B1666B3170616B4B701D
:10110000636B8C219970636B3F21D97007E0616B31
:101110000870616B4870616B8870616BC870B4F95E
:101120005610082908DAB4F9560054F8341F01445F
:10113000401C60840878D1E7A4F856006880A4F8C1
:101140005E200120A4F860009BE7B4F95610042942
:1011500049DAB4F8560038BBB4F95A10E06B0422EF
:1011600002EBC101B4F95A20415C50F83200022967
:101170000ED0042911D0142926D0242929D03229AF
:101180000FD0B4F9581030F9110000F0A7FD0AE0B3
:10119000B4F9581030F8110003E0B4F9581050F8C1
:1011A000210000F0B3FD206404F1400034F9561F23
:1011B00021F0010101442088C20700F101002080D4
:1011C00008880BD0000A89E7B4F9581050F82100BC
:1011D000DBE7B4F9581050F82100E4E769880144CE
:1011E0006980C0B27AE7A4F85600B4F85800401CF1
:1011F000A4F85800B4F85E00401CA4F85E00616BCF
:1012000068880871616B000A48713AE70C00002099
:10121000B0F866100022042901D1A0F86620B0F8C9
:101220006610F9B9B0F96410B0F9623099421ADA6F
:10123000B0F96410C36A0B44491CA0F86410197813
:10124000836B1970B0F96410B0F96230994211DA09
:10125000B0F96410C26A0A44491CA0F864101178FD
:10126000826B517008E0A0F86420A0F862204FF46F
:1012700080707047816B4A70B0F9661050F8382F53
:101280000A44491CC185107870470000F8B504462F
:1012900000200090B4F85410444E91B1B4F95410A9
:1012A000B4F944209142B4F952102BDD04291CDA20
:1012B000B4F9520054F8301F0144401C608408788F
:1012C000F8BDB4F95210002906DA34F9520F0DEBCB
:1012D0000001401C2080F2E7A4F85200B4F854103A
:1012E000491CA4F8541030805BE0A4F85200A4F824
:1012F0005400B4F85010012901D1A4F850004FF463
:101300008070F8BD294A042915883EDAB4F85200E5
:1013100018BBB4F95410E06B6FF0030202EBC1018B
:10132000B4F95420415C6FF0070303EBC2020229B9
:1013300080580CD004290CD014291ED024291ED08A
:10134000322907D0B0F9000000F0C8FC04E00088A2
:1013500000E0006800F0DAFC206404F1400034F999
:10136000521F21F0010101442088C20700F1010051
:101370002080088805D0000AF8BD0068E4E700680E
:10138000EAE741193180C0B2F8BDA4F85200B4F8C0
:101390005400401CA4F85400206B0570216B280AEF
:1013A00048702046FFF772FFF8BD00000C000020D7
:1013B0003EB504463D4800210291D0E90020CDE928
:1013C0000020B4F84C00A8B1B4F94C0004EB400084
:1013D00030F9020CB4F944209042B4F94A0017DD08
:1013E00004280FDA34F94A0F69460144401C208072
:1013F00008783EBDB4F94A0000284CDA34F94A0FA7
:1014000002A9F2E724F84A1F61804FF480703EBDC4
:10141000042840DAB4F84A0038BBB4F94C10E06B49
:1014200004EB410131F9021C042202EBC101B4F9C1
:101430004C20415C04EB420232F9022C022950F8A4
:1014400032000CD004290CD014291ED024291ED01F
:10145000322907D0B0F9000000F040FC04E0008819
:1014600000E0006800F052FC206404F1400034F910
:101470004A1F21F0010101442088C20700F1010048
:10148000208006D00888000A3EBD0068E4E70068B6
:10149000EAE708783EBDA4F84A10B4F84C00401CB6
:1014A000A4F84C002046FFF783FF3EBDB81F0000A4
:1014B00002480168491C01607047000008000020D4
:1014C000024901480860704700E1F505000000206E
:1014D00010B54FF04024204600F01CF801460448A7
:1014E000FFF710FD2046BDE81040022100F002B8D1
:1014F000F8000020C2680A43C2607047044B0A68C3
:101500001B68B3FBF2F20261097981607047000049
:101510000000002041688907FCD50068C0B2704710
:101520004FF040214A68D207FCD1086070470000A4
:1015300070B50C46084D03E0294600F0FBFB641E25
:10154000002CF9DC054D002C04DA294600F0F2FBF2
:10155000641CF8E770BD000000002041CDCCCC3DFC
:101560002DE9F047844609B1C1F800C000259CF878
:1015700000400CF101004E4E01E010F8014B16F84E
:1015800024703F07F9D42B2C01D110F8014B2D2CDE
:1015900003D110F8014B43F001032B2C01D110F8BB
:1015A000014B002A03DB012A01D0242A05DD09B101
:1015B000C1F800C00020BDE8F08722B1102A15D084
:1015C000022A1BD023E0302C01D00A221FE002782F
:1015D000782A07D0582A05D0622A05D0422A03D09B
:1015E000082214E0102203E0022209E0302C0ED180
:1015F0000778782F09D0582F07D008E0302C06D173
:101600000778622F01D0422F01D14478801C4FF01F
:10161000FF39B9FBF2F7B2465AF824605FEA467820
:1016200001D5303C04E0B40714D0C6F30724373C9E
:1016300094420FD243F00203BD4202D304D1BC4214
:1016400002D805FB024502E043F0040311B110F893
:10165000014BE1E7401E4FF000449A0703D431B13B
:10166000C1F800C003E01A0703D5DA0701D000254E
:1016700016E05E076FF0004209D41E0710D4DE07A3
:1016800002D0A54209D80BE0954208D808E01D0712
:1016900001D54D4604E0DD0701D0254600E01546A2
:1016A00001B10860D80700D06D42284683E70000EA
:1016B000C01F0000F8B500210D460E460124274B3F
:1016C000009109E0D20606D52D2903D02B2902D09E
:1016D0000020F8BD6442401C017853F821205707D0
:1016E000F0D000230A226946FFF73AFF0746009828
:1016F00001782E2910D1451C00230A22694628466C
:10170000FFF72EFF01460098451B084600F0E6FA59
:101710006942FFF70DFF054600980178652901D061
:10172000452906D100230A226946401CFFF718FF0D
:101730000646012C38460AD000F0D0FA014685F062
:10174000004000F0C3FB3146FFF7F2FEF8BD00F0A9
:10175000C5FA294600F060FAF5E70000C01F000056
:1017600000230A221946FFF7FBBE00214FF0E022BA
:1017700003E01369DB03FCD5491C8142F9D37047B0
:10178000C0B2FFF7CDBE4FF08040002303608168F8
:1017900041600122C26009210160C1680029FCD0BA
:1017A0000360C2607047000008B53148FEF714FFBF
:1017B00000F0FAF82F4E4FF47A7100243068B0FB35
:1017C000F1F0411E801EB0F1807F0AD24FF0E02080
:1017D000491E4161284AE02182F8141D84610721D5
:1017E000016100F0B9F925A0FEF722FDFFF7F4F939
:1017F000FEF7ECFF642114220846FFF787F9142254
:101800006421C820FFF782F91422C8216420FFF761
:101810007DF900F043F8009000B1FEE71D4D2C600B
:101820006C6030686421B0FBF1F0A8600126EE60C6
:1018300009202860184C4FF47847E8680028FCD04D
:10184000EE601548FEF744FF0028F6D194F8290011
:10185000022805D0A18860883A46FFF749F9ECE7ED
:10186000A3896289A1886088FFF7F2F8E5E70000A4
:1018700000000140000000200FE000E05341355A15
:10188000333020434D332B46504741205445535469
:101890000D0A000000100040540000202DE9F04720
:1018A0004FF02044132600254FF480112046FEF708
:1018B00091FDAA2000214FF0010C4FF40022B71C2B
:1018C00009E0A0545208030602D50CEB400000E0EA
:1018D0004000C0B2491CB942F3D30CFA06F1AA2069
:1018E0000B4600220EE014F80180804500D06D1CEC
:1018F00049085FEA006802D50CEB400000E04000B8
:10190000C0B2521CBA42EED34AF6AA29194648463A
:1019100000224FF6FF780AE060524908070403D519
:101920000CEB400080B201E008EA4000521CB242D9
:10193000F2D31946484600220DE0675A874200D08C
:101940006D1C4908070403D50CEB400080B201E090
:1019500008EA4000521CB242EFD34FF0AA380022EE
:1019600019464046761E08E060504908002802DA11
:101970000CEB400000E04000521CB242F4D30020C7
:101980000DE0E158414500D06D1C5B08B8F1000F37
:1019900002DA0CEB480801E04FEA4808401CB0426C
:1019A000EFD32846BDE8F08738B50D4908684FF6F3
:1019B000FF0210400B4A1043086000208DF8000021
:1019C00002218DF801108DF8020001248DF80340EA
:1019D0006846FFF7E7F94FF0E020C0F8804238BDD5
:1019E0000CED00E00000FA052DE9F0471D4E4FF424
:1019F000803881460025C6F8148007244FF6FF7A08
:101A00004FF40047FFF7BFFE7761FFF7BCFE00F021
:101A10008FF880B100F096F80AEA450140EA010526
:101A20003761FFF7B0FE641EECD5B9F1000F4046F8
:101A300005D0706104E06FF0A000BDE8F087306170
:101A4000FFF7A1FE7761FFF79EFE00F07BF84845A7
:101A500002D06FF0B300F0E73761FFF794FE28B2D1
:101A6000EBE700000000014070B5104C4FF400455A
:101A70002561FFF788FE6E006661FFF784FE6561F1
:101A8000FFF781FE00F054F850B100F05BF850B160
:101A90002661FFF778FE2561FFF775FE002070BD17
:101AA0006FF0620070BD6FF0660070BD0000014015
:101AB00070B50D4C4FF480352561FFF764FE68105A
:101AC0006061FFF760FE6561FFF75DFE00F030F8D2
:101AD00020B100F037F820B1002070BD6FF0C400D5
:101AE00070BD6FF0C80070BD000001400D484FF49C
:101AF0000041416149004161416821F40041416078
:101B0000416821F480314160002180030160064971
:101B1000064A0968B1FBF2F18160816841600121E8
:101B2000C16070470000014000000020400D03002C
:101B300003480068000401D5012070470020704769
:101B40000000014003480068C00301D50120704730
:101B500000207047000001401CB500210820FFF75D
:101B600053F90B4C012204212046FEF73FFD0122D0
:101B700008212046FEF73AFD4FF4E13000900320A3
:101B80008DF8040069464FF04020FFF7B7FC1CBDFC
:101B9000000001402DE9F0471E4E814607244FF01A
:101BA000010A4FF480384FF400470AFA04F010EAB3
:101BB000090F01D0012500E0002540460DB17061FC
:101BC00000E03061FFF7DFFD7761FFF7DCFDFFF735
:101BD000AFFF38B1FFF7B6FF854206D06FF0860041
:101BE000BDE8F0876FF08100FAE73761FFF7CBFDC2
:101BF000641EDAD5C6F81480FFF7C5FD7761FFF7DC
:101C0000C2FDFFF79FFF04463761FFF7BCFD20B21E
:101C1000E6E700000000014090EA010F48BF81F0B4
:101C2000004100F15A81421A3CBF801A89184FEADC
:101C3000D0524FF07F4C1CEA410FA2EBD15318BF9A
:101C40009CEA026F00F03B804FF0004C4CEA002011
:101C50004CEA012121FA03FC10EB0C0C1ED202F11C
:101C6000FF325FEA1C2040EBC25038BF70471CF0C7
:101C70007F0F4FEA400C18BFBCF17F4F38BF704751
:101C8000C3F12003994008BF20F00100BCF17F4F51
:101C900038BF7047A0F1C04000F013B94FEA3C00D4
:101CA000000A40EBC25028BF1CF0FF0F4FEA400C67
:101CB000E6D018BFBCF17F4F38BF7047EAE79CEA17
:101CC000026F05D010EA5C0F08BF00F000407047BB
:101CD00010B500F0B0F800BF64FBBE3E10F000414C
:101CE00048BF4042B0FA80F310FA03F2C3F19D03FB
:101CF0000BD051EAC35101EB1220530638BF704795
:101D000000F1010008BF20F001007047B0FA80F335
:101D100010FA03F2C3F19D030AD0D90501EB12209A
:101D2000530638BF704700F1010008BF20F00100E2
:101D3000704700004FF47F0C1CEAD0121EBF1CEA53
:101D4000D11392EA0C0F93EA0C0F00F0478090EA4F
:101D5000010F48BF42F480724FF0004C4CEA002063
:101D60004CEA012102EB0302A0FB0113A2F50002E1
:101D7000002918BF43F001035B0028BF4FEA33037B
:101D800042EB22425FEA132C4CEBC2502EBFBCEB5D
:101D9000436FB2F57C0F70474FEA036CBCF1004F04
:101DA00008BF20F00100B2F57C0F38BF70470BD59B
:101DB00082F0FF0212F5803FC8BF704700F1C040BB
:101DC000D8BF00F00040704700F5000C5FEA4C0CF3
:101DD00048BF7047B0F1C04000F073B890EA010FFF
:101DE0000CEAD11348BF42F48072624538BF6345A4
:101DF00004D280EA010000F00040704710B500F006
:101E00001AF800BF8900013E00F007B800F009B8D9
:101E10005FEA410C5FEA1C6C08D080EA010000F028
:101E200050B85FEA400C5FEA1C6CF6D14FF00040FE
:101E3000A0F5800070470EF1020E2EF0030E5EF842
:101E4000044B244204D44FEA4102B2F17F4F11D82F
:101E50004FEA4003B3F17F4F0CD80ED14FEAD07C4C
:101E6000B2F17F4F0CEB4C0C0CF1020C08BF4CEBA9
:101E7000D17C04E04FF0080C01E04FEAD17C0CEB80
:101E80004C0324FA03F404F00704B4F1040C06D262
:101E90000EEB840CBDE810404CF0010C6047DFE80D
:101EA0000CF0070802024FF00040A0F5800010BDC2
:101EB0000846420018BFD2F1807288BF00F000408F
:101EC00010BDFF2141EAD050C005704790EA010FD4
:101ED00048BF81F000413FF5A6AE421A04D882F017
:101EE0000042A0EB020011444FEAD0524FF07F4C69
:101EF0001CEA410FA2EBD15318BF9CEA026F4AD0F3
:101F00004FF0004C4CEA00204CEA012121FA03FC7E
:101F1000B0EB0C0C0FD412F0FE0F36D05FEA4C0081
:101F20001DD5001240EBC25038BF70471CF03F0F68
:101F300018BF70470BE0A2F101025FEA1C2040EBE2
:101F4000C25038BF70471CF07F0F18BF7047C3F1F5
:101F50002003994014BF401E20F001007047800804
:101F60004FEA122308BF7047B0FA80FCA2EB0C02C4
:101F7000CCF1280C60FA0CF093EA122F04BF00EBAE
:101F8000C25070474FEAC3707047130A5FEADC1013
:101F900008BF7047F6E79CEA026F04D010EA5C0FB6
:101FA00008BF0020704710B5FFF745FF40DFF63E41
:101FB00081F00040704700000000807F00000000BA
:101FC0002000000020010100200202002003030085
:101FD0002004040020050500200606002007070055
:101FE0002008080068090900280A0A00280B0B00CD
:101FF000280C0C00280D0D00200E0E00200F0F00E5
:1020000020101000201111002012120020131300C4
:102010002014140020151500201616002017170094
:102020002018180020191900201A1A00201B1B0064
:10203000201C1C00201D1D00201E1E00201F1F0034
:10204000482020001021210010222200102323000C
:102050001024240010252500102626001027270014
:102060001028280010292900102A2A00102B2B00E4
:10207000102C2C00102D2D00102E2E00102F2F00B4
:1020800004303000043131000432320004333300B4
:102090000434340004353500043636000437370084
:1020A0000438380004393900103A3A00103B3B003C
:1020B000103C3C00103D3D00103E3E00103F3F00F4
:1020C0001040400081416100814262008143630011
:1020D00081446400814565008146660001476700D0
:1020E0000148680001496900014A6A00014B6B0020
:1020F000014C6C00014D6D00014E6E00014F6F00F0
:1021000001507000015171000152720001537300BF
:10211000015474000155750001567600015777008F
:102120000158780001597900015A7A00105B5B0070
:10213000105C5C00105D5D00105E5E00105F5F0073
:10214000106060008241610082426200824363004D
:10215000824464008245650082466600024767004B
:102160000248680002496900024A6A00024B6B009B
:10217000024C6C00024D6D00024E6E00024F6F006B
:10218000025070000251710002527200025373003B
:10219000025474000255750002567600025777000B
:1021A0000258780002597900025A7A00107B7B00AD
:1021B000107C7C00107D7D00107E7E00207F7F00E3
:1021C0000080800000818100008282000083830003
:1021D00000848400008585000086860000878700D3
:1021E0000088880000898900008A8A00008B8B00A3
:1021F000008C8C00008D8D00008E8E00008F8F0073
:102200000090900000919100009292000093930042
:102210000094940000959500009696000097970012
:102220000098980000999900009A9A00009B9B00E2
:10223000009C9C00009D9D00009E9E00009F9F00B2
:1022400000A0A00000A1A10000A2A20000A3A30082
:1022500000A4A40000A5A50000A6A60000A7A70052
:1022600000A8A80000A9A90000AAAA0000ABAB0022
:1022700000ACAC0000ADAD0000AEAE0000AFAF00F2
:1022800000B0B00000B1B10000B2B20000B3B300C2
:1022900000B4B40000B5B50000B6B60000B7B70092
:1022A00000B8B80000B9B90000BABA0000BBBB0062
:1022B00000BCBC0000BDBD0000BEBE0000BFBF0032
:1022C00000C0C00000C1C10000C2C20000C3C30002
:1022D00000C4C40000C5C50000C6C60000C7C700D2
:1022E00000C8C80000C9C90000CACA0000CBCB00A2
:1022F00000CCCC0000CDCD0000CECE0000CFCF0072
:1023000000D0D00000D1D10000D2D20000D3D30041
:1023100000D4D40000D5D50000D6D60000D7D70011
:1023200000D8D80000D9D90000DADA0000DBDB00E1
:1023300000DCDC0000DDDD0000DEDE0000DFDF00B1
:1023400000E0E00000E1E10000E2E20000E3E30081
:1023500000E4E40000E5E50000E6E60000E7E70051
:1023600000E8E80000E9E90000EAEA0000EBEB0021
:1023700000ECEC0000EDED0000EEEE0000EFEF00F1
:1023800000F0F00000F1F10000F2F20000F3F300C1
:1023900000F4F40000F5F50000F6F60000F7F70091
:1023A00000F8F80000F9F90000FAFA0000FBFB0061
:1023B00000FCFC0000FDFD0000FEFE0000FFFF0031
:1023C000303132333435363738394142434445466B
:1023D0004030580030313233343536373839616265
:1023E0006364656640307800636F6E6600000000CD
:1023F0006368670063616C6C0000000064756D7059
:102400000000000073657400282400000000002014
:10241000540000007C0100007C24000054000020D7
:102420006C1100009801000000E1F50500000000BB
:10243000000000000000000004240000E823000069
:10244000F0230000FC230000F4230000990E00009C
:102450005D0E0000490E0000730E0000210E00000A
:10246000B11300008D120000691000007D10000003
:0C24700011120000000000FFFFFFFFFF42
:0400000500000141B5
:00000001FF
