:020000040000FA
:1000000008640020A9020000B1020000B302000051
:10001000B5020000B7020000B902000000000000B5
:1000200000000000000000000000000009020000C5
:10003000BD020000000000004D020000CD2A0000BB
:10004000092B0000C3020000C3020000C30200002D
:10005000C3020000C3020000C3020000C30200008C
:10006000C3020000C3020000C3020000C30200007C
:10007000C3020000C3020000C3020000C30200006C
:10008000C3020000C3020000C3020000C30200005C
:10009000C3020000C3020000C3020000C30200004C
:1000A000C3020000C3020000C3020000C30200003C
:1000B000C3020000C3020000C3020000C30200002C
:1000C000C3020000C3020000C3020000C30200001C
:1000D000C3020000C3020000C3020000C30200000C
:1000E000C3020000C3020000C3020000C3020000FC
:1000F000C3020000C3020000C3020000C3020000EC
:10010000C3020000C3020000C3020000C3020000DB
:10011000C3020000C3020000C3020000C3020000CB
:10012000C3020000C3020000C3020000C3020000BB
:10013000C3020000C3020000C3020000C3020000AB
:1001400000F002F800F050F80AA090E8000C824499
:100150008344AAF10107DA4501D100F045F8AFF276
:10016000090EBAE80F0013F0010F18BFFB1A43F095
:1001700001031847CC540000EC540000103A24BF8F
:1001800078C878C1FAD8520724BF30C830C144BFFC
:1001900004680C607047000000230024002500263E
:1001A000103A28BF78C1FBD8520728BF30C148BFDA
:1001B0000B607047662904F02C87642900F0C88022
:1001C000782900F00181732900F0D984002070475C
:1001D0001FB500F01DFD04000020002104F0E0FC2C
:1001E000E0601FBD10B510BD00F02EFE1146FFF7F8
:1001F000EFFF02F05FFE00F04CFE03B4FFF7F2FFEA
:1002000003BC00F08FFE0000224B19680868B0E8BC
:10021000F00F80F30988BFF36F8F4FF0000080F379
:1002200011884EF00D0E704700000000064800686F
:10023000006880F3088862B661B6BFF34F8FBFF3E2
:100240006F8F00DF00BF00BF08ED00E0EFF3098013
:10025000BFF36F8F0F4B1A6820E9F00F106008B5DD
:100260004FF0C00080F31188BFF34F8FBFF36F8F43
:1002700003F0B4FF4FF0000080F31188BDE80840A0
:1002800019680868B0E8F00F80F30988BFF36F8F32
:10029000704700BF38000020EFF305807047000072
:1002A0000138FDD1704700000948804709480047E0
:1002B000FEE7FEE7FEE7FEE7FEE7FEE7FEE7FEE716
:1002C000FEE7FEE704480549034A054B7047000076
:1002D000F92A0000410100000854002008640020B1
:1002E000085400200FB4044910B503AA029800F086
:1002F0004BFC10BC5DF814FB0400002070B50C46EC
:100300000546012A05D02878800600D5EA69002331
:1003100002E0012305E05B1C934202D2E05C00286E
:10032000F9D1A869E618C01AA861286A1844286299
:100330002846AFF3008004E0D5E9012114F8010B51
:100340009047B442F8D32846AFF3008070BD000058
:100350002DE9F0410646002410687529314616A59E
:1003600010D0AFF30080002802DA404213A507E066
:1003700031688A0701D512A502E0490704D511A505
:10038000012401E0AFF3008000210A2206F12407D6
:1003900009E0B0FBF2FCB0FBF2F302FB1C003030D2
:1003A00078541846491C0028F3D123462A46304683
:1003B000BDE8F04100F069B9000000002D00000028
:1003C0002B0000002000000070B504460D462146B9
:1003D0001068AFF300802188090502D50F4A7A44DE
:1003E00002E00E4A7A440E32002104F1240305E0B3
:1003F00000F00F060009965D5E54491C0028F7D1F5
:1004000020780023000704D5702D02D009B1022303
:1004100011322046BDE8704000F037B96E5100003F
:100420002DE9F05F894604464FF0000ADFF824B159
:10043000FB44C0F820A02046E168884700287DD012
:10044000252806D0D4E901219047206A401C20626B
:10045000F1E700255F462046E168884720280646E8
:1004600007DB312E05D2B81910F8200C08B105436E
:10047000F1E7A80701D525F00405C4F81CA0002762
:10048000C4F818A02A2E09D0304602F043FC38B335
:1004900004EB8708303EC8F8186019E059F8041BCF
:1004A000204604EB87029161E1688847012F0646E8
:1004B00018D1E069002820DA25F020051DE0D8F8E1
:1004C000180000EB800006EB40003038C8F8180038
:1004D0002046E1688847064602F01CFC0028EED161
:1004E000012F0AD02E2E08D12046E16888477F1CB4
:1004F0000646022F45F02005C4DBA069002803DA78
:10050000404245F00105A061E80701D025F0100543
:10051000A6B1A6F14100192802D8203645F400659D
:100520004A463146204625604D46FFF743FE60B1FE
:10053000012807D0ED1D25F0070000E007E000F1DD
:10054000080978E705F1040975E730467AE7206A7B
:10055000BDE8F09F44510000032A40F2308010F0C3
:10056000030C00F0158011F8013BBCF1020F62444E
:1005700098BF11F801CB00F8013B38BF11F8013BDF
:10058000A2F1040298BF00F801CB38BF00F8013B8C
:1005900011F0030300F00A83083AC0F0088051F814
:1005A000043B083A51F804CBA0E80810F5E7121D07
:1005B0005CBF51F8043B40F8043BAFF30080D20726
:1005C00024BF11F8013B11F801CB48BF11F8012BF2
:1005D00024BF00F8013B00F801CB48BF00F8012B15
:1005E000704702F0FF0343EA032242EA024200F0AE
:1005F00002B84FF000020429C0F0128010F0030C82
:1006000000F01B80CCF1040CBCF1020F18BF00F805
:10061000012BA8BF20F8022BA1EB0C0100F00DB8B4
:100620005FEAC17C24BF00F8012B00F8012B48BF12
:1006300000F8012B70474FF0000200B513469446B6
:100640009646203922BFA0E80C50A0E80C50B1F12A
:100650002001BFF4F7AF090728BFA0E80C5048BF3E
:100660000CC05DF804EB890028BF40F8042B08BFDC
:10067000704748BF20F8022B11F0804F18BF00F8D8
:10068000012B70477047704770472DE9F0470D46C2
:1006900099469246044600F124080168880604D56C
:1006A000E06921F01001216000E00120A84201DD95
:1006B000471B00E00027A1697A1902EB0900081A1C
:1006C000A0612078C00602D42046AFF30080002647
:1006D00008E0D4E901211AF806009047206A401C7E
:1006E000761C20624E45F4DB2078C0060AD52046F1
:1006F000AFF3008006E0D4E9012130209047206A62
:10070000401C2062381EA7F10107F4DC07E0D4E9A1
:10071000012118F805009047206A401C2062281E1D
:10072000A5F10105F3DC2046AFF300802078000638
:1007300002D50220BDE8F0870120FBE770472DE9D4
:10074000FF4F0C461E464FF0FF378BB0D2E9000139
:10075000DDF860800A908A46C1F30A5505B93D4626
:10076000002108464FF00000BAF1000F00F44000ED
:1007700005DA00EB80004FF4400101EA50004FEA37
:100780009059B9F1010F00DDB9460A9850EA4A00C4
:100790000ED044F61050A5F2FF3545432F14B8F1A2
:1007A000000F1ED07542291E1EDDC9F100021CE09B
:1007B000B8F1010F4FF0000001D0302103E0F24307
:1007C00005E02154401CB042FBDB304600220021F2
:1007D00021540B99C1F80880C1E900200FB0BDE891
:1007E000F08FBD1B6D1CDEE74A4600DA694206A8A1
:1007F00000F0B0FA06AB93E8070003AB83E807000C
:1008000050460A9900F095FB8DE80700A0F50050CE
:100810001F3800900398002D0ADD42F21F014A465E
:100820000844002303A90390684600F0FEFD09E098
:10083000A0F500504A461F38002303A903906846DC
:1008400000F008FE8DE807000004000C03D04FF014
:10085000FF30410800E01046B8F1000F03D000223D
:10086000009215461EE0751E05D400F0D5F9303211
:1008700062556D1EF9D5B3460122084302D000220D
:100880007F1C04E02078302801D100227F1E002A3E
:10089000099784D01DE0112D07DA00F0BDF9303240
:1008A00062556D1C50EA0102F5D1084302D0009850
:1008B000C8B10EE00021681E05E0235C625C635451
:1008C0002254401E491C8142F7DBAB46A81B401E48
:1008D0000990002004F80B000B98099AC0F80880D2
:1008E000C0E9002B7AE711264FF0000857E72DE901
:1008F000F04F88460446D21D22F0070191B0D1E99D
:100900000001CDE90A0102F02EF902460B98C00F52
:1009100001D02D2007E02068810701D52B2002E0BF
:10092000202101EAC000032A099001D0072A05DB33
:1009300003464146204600F0CDF90BE120788006C1
:1009400001D5E06900E00620B8F1650F814606D0C8
:10095000B8F1660F18D0B8F1670F70D131E0002000
:10096000B9F1110F009001DB112301E009F101033E
:100970000AAA01A90CA8FFF7E2FEDDE90C70002627
:1009800009F10105834647E001204B4600904FF0F6
:1009900000470AAA01A90CA8FFF7D1FEDDE90DB0B6
:1009A0000C995D46002610B909F101000D18B9EB4C
:1009B000050003D4C0F1FF3609F10105A5EB0900DC
:1009C0002BE0B9F1010F01DA4FF001090020B9F174
:1009D000110F0090484601DD112300E003460AAAEA
:1009E00001A90CA8FFF7ABFEDDE90C704D4600260F
:1009F0008346207800070AD4AB4500DA5D4601A89B
:100A0000012D04DD411911F8011C302907D04F4593
:100A100002DA17F1040F04DA012082460FE06D1E9E
:100A2000EEE7002F02DCED1B3E4403E0781CA842F9
:100A300000DD7D1CB81B00F1010A4FF00047207853
:100A4000000703D4AA4501DB4FF0FF3A0021B7F1BC
:100A5000004F0DF143088DF8431024D002202B23C2
:100A6000002F01DA7F422D230A21021EA0F101008E
:100A700000DC5FB197FBF1FC97FBF1F201FB1C7C02
:100A800017460CF1300C08F801CDEEE7A8F1010093
:100A900003702188090501D5452100E06521A0F1F9
:100AA000010800F8011C09980FA9A1EB0807FF1D18
:100AB00000B10120411901EBEA70A1693844081A1C
:100AC000401EA0612078C00602D42046AFF300800B
:100AD000099828B1D4E901219047206A401C20627E
:100AE0002078C00622D52046AFF300801EE0002EFD
:100AF00004DBB34502DD01A8805D00E03020D4E9CD
:100B000001219047206A401C2062761CAAF1010056
:100B10005FEA000A0AD100F07BF8C0680168405C17
:100B2000D4E901219047206A401C2062281EA5F1CB
:100B30000105DCDC07E0D4E9012118F8010B90473E
:100B4000206A401C2062381EA7F10107F3DC204612
:100B5000AFF30080032011B041E610B5436913B133
:100B6000AFF3008001E0FFF7C9FB012010BD127850
:100B700000F124010A7000224A700122EDE7116899
:100B80004FF0FF32E9E70000074B70B50D467B449C
:100B900000F08DF80446284600F04EF910B14FF0F1
:100BA000FF3070BD204670BD6322000010B5203AB2
:100BB000C0F00B80B1E81850203AA0E81850B1E816
:100BC0001850A0E81850BFF4F5AF5FEA027C24BFCC
:100BD000B1E81850A0E8185044BF18C918C0BDE8C3
:100BE00010405FEA827C24BF51F8043B40F8043B8C
:100BF00008BF7047D20728BF31F8023B48BF11F841
:100C0000012B28BF20F8023B48BF00F8012B70479A
:100C100000487047C853002030B5B0F10A024FEACF
:100C2000900E71F100034EEA817EB0EB0E0061EB95
:100C300091014FEA101E4EEA017E10EB0E0041EBCF
:100C400011114FEA102E4EEA016E10EB0E0041EB2F
:100C500011214FEA104E4EEA014E10EB0E0041EB0F
:100C60001141401841F100014FEAD00040EA4170C3
:100C70004FEAD10110EB80054FEA810444EA9074F9
:100C800044EB01046D1944EB0404521BA3414FF0E3
:100C9000000348BF0A3200D530BD401C41F10001BD
:100CA00030BD000001694A1C02610878704700B538
:100CB0008FB0CDE901310021059105497944CDE995
:100CC000031011466846FFF7ABFB0FB000BD0000F4
:100CD000E5FFFFFF2DE9F0411F46044603260168AA
:100CE000072A01F4006004DB08B116A505E016A58B
:100CF00003E008B115A500E015A521F01000206063
:100D0000A069C01EA0610FB1401EA0612046AFF3D4
:100D100000804FB1D4E9012138469047206A401C39
:100D20002062C01C206206E0206AFAE7D4E90121B3
:100D300015F8010B9047761EF8D22046AFF30080DD
:100D4000BDE8F0814E414E006E616E00494E460096
:100D5000696E66002DE9F047814616468AB035482F
:100D600078440DC88DE80D0032487844801C03ACEF
:100D70000DC884E80D0041F69B300844372190FBF4
:100D8000F1F290FBF1F5A5F1800501FB12041B3C8B
:100D900002D56442012000E00020DFF898A08046E0
:100DA0000027FA44AAF1BE0A0EE0E0070AD0324654
:100DB000684607EB470101230AEB810100F04AFB7B
:100DC0008DE8070064107F1C002CEED1194F7F4482
:100DD000AE3F19E0E80715D007EB04100DF1180A33
:100DE00090E80E008AE80E00C068F04201D1981920
:100DF00008903246012306A903A800F02BFB03ABA1
:100E000083E807006D10641C002DE3D14FF001034F
:100E100032466946B8F1000F03A802D000F005FB86
:100E200001E000F017FBC9E90001C9F808200AB089
:100E3000BDE8F087A4480000007B00F08000704708
:100E400000487047A85300207546FFF7F9FFAE46EB
:100E500005006946534620F00700854618B020B5C6
:100E6000FFF730FABDE820404FF000064FF00007D2
:100E70004FF000084FF0000B21F00701AC46ACE842
:100E8000C009ACE8C009ACE8C009ACE8C0098D46AF
:100E9000704710B50446AFF300802046BDE810400F
:100EA000FFF7ABB94FF0013C50F8042B51F8043B6D
:100EB0009A4221D1A2EB0C03934313EACC1317D12E
:100EC00050F8042B51F8043B9A4215D1A2EB0C03C5
:100ED000934313EACC130BD150F8042B51F8043B85
:100EE0009A4209D1A2EB0C03934313EACC13DBD053
:100EF0004FF00000704700BFD01A01BAB1FA81F17B
:100F000001F0180122FA01F0CB40C1F12001DBB25F
:100F1000C0B2C01A2CFA01F3D11A914311EAC311DD
:100F2000E6D1704701491820ABBEFEE7260002005B
:100F300070475FEA400C08BF91F0000F4FEA8C2326
:100F40004FEAC12243EA51514FEA1C5018BF00F545
:100F5000F0404FEA300018BF41F000415FEA6C5C9E
:100F600000F02980BCF1FF3F08BF40F0804070478F
:100F7000130C06BF12044FF0100C4FF0000C130EB0
:100F800004BF12020CF1080C130F04BF12010CF184
:100F9000040C930F04BF92000CF1020CD30F04BF9A
:100FA00052000CF1010C11464FF00002A0F11F009D
:100FB000A0EB0C00704711F0004F08BF704731F0F4
:100FC00000413FF4D5AF0B0C06BF09044FF0100CE5
:100FD0004FF0000C0B0E04BF09020CF1080C0B0FB4
:100FE00004BF09010CF1040C8B0F04BF89000CF144
:100FF000020CCB0F04BF49000CF1010CCCF1200313
:10100000A0EB0C0022FA03F302FA0CF241EA03010E
:1010100000F10100704720F07F4C80EA030023F0CC
:101020007F47ACEB070303F57C5300F0004003F16E
:10103000FF032DE980494FEA154B09B44FEA1443E9
:1010400025EA0B4E24EA03480FF2042606EB132789
:1010500049083E785FEA320203FB0667C7F50007DE
:1010600007FB06F64FEA54374FEAD64606F102066A
:1010700007FB066CCCF1005C4FEA1C472CEA074CDE
:1010800007FB06F40CFB06F504EB15464FEA961633
:1010900034BF00204FF000404FEAD13706FB07FC79
:1010A0004FEA1C4C0CFB0BF7D21B03FB0CF761EB5C
:1010B00007010CFB0EF7B0EB074072EB17420CFB7D
:1010C00008F734BFA2EB0742B2EB074261EB1741CE
:1010D0004FEA0C444FEA910706FB07FC4FEA1C4C11
:1010E0000CFB0BF7B0EBC74072EB573203FB0CF76E
:1010F00034BFA2EBC742B2EBC74261EB57310CFBE6
:101100000EF7B0EBC70072EB57720CFB08F734BF59
:10111000A2EBC702B2EBC70261EB5771039F4FEA24
:10112000816141EA921104EBCC044FEAD1374FEAD6
:10113000826206FB07FC42EA90124FEA80604FEAA7
:101140001C4C0CFB0BF7D21B03FB0CF761EB0701EC
:101150000CFB0EF7B0EB074072EB17420CFB08F7E5
:1011600034BFA2EB0742B2EB074261EB17414FEAF3
:101170008C554FEA910704EB9C2406FB07FC4FEAD1
:101180001C4C0CFB0BF7B0EBC74072EB573203FB68
:101190000CF734BFA2EBC742B2EBC74261EB573149
:1011A0000CFB0EF7B0EBC70072EB57720CFB08F7A5
:1011B00034BFA2EBC702B2EBC70261EB577115EB6C
:1011C0004C254FEA816141EA92114FEA82624FEA6F
:1011D000D13742EA901206FB07FC44F100044FEAC3
:1011E00080604FEA1C4C0CFB0BF7D21B03FB0CF787
:1011F00061EB07010CFB0EF7B0EB074072EB1742F7
:101200000CFB08F734BFA2EB0742B2EB074261EBDD
:10121000174115EB1C154FEA813141EA92414FEA23
:10122000823242EA90424FEA80304FEA0C7644F133
:10123000000448EA03434EEA0B484FF0000EB2EBBD
:10124000080C71EB030724BF624639464EEB0E0EC5
:101250004FF0000B0018524149414BEB0B0BB2EB26
:10126000080C71EB03077BF1000B24BF6246394683
:101270004EEB0E0E4FF0000B0018524149414BEB64
:101280000B0BB2EB080C71EB03077BF1000B24BFD7
:10129000624639464EEB0E0E51EA020718BF46F081
:1012A000010616EB0E7655F1000254F1000103D54C
:1012B000BDE88901BDE80088BDE88901BDE80048B6
:1012C000B619524141EB0101A3F10103704780803F
:1012D0007F7E7D7C7B7A7978777676757473727190
:1012E00071706F6E6E6D6C6C6B6A6A696868676648
:1012F00066656464636362616160605F5F5E5E5DDA
:101300005D5C5C5B5B5A5A5959585857575656554D
:1013100055555454535352525251515050504F4FAF
:101320004F4E4E4D4D4D4C4C4C4B4B4B4A4A4A49FF
:101330004949484848474747474646464545454442
:101340004444444343434342424242414141002BCF
:101350009C4630D477002BD01CB54FEA370703B436
:101360004FF010004FF01001BAF1000F06D0BCF1A1
:10137000000FDCBF40F0080040F008014FF0000013
:101380000FBCBDE810400BF1010BBBF1010F08BF12
:101390005FEA170722BF12F1010211F101014FF0BC
:1013A000004143F1000300F0004043EA00007047B1
:1013B000F9D35708D0E746EA064613F1400F4FEA43
:1013C00016461FDD13F1200FDFBF16430A4600212A
:1013D00020335B42BED0C3F1200746EA064602FA3C
:1013E00007F74FEA164646EA0706C3F1200722FA36
:1013F00003F201FA07F721FA03F14FF0000342EA82
:101400000702A7E746EA020646EA06464FEA1646FC
:1014100046EA0106BCBF46EA0646360C4FF000031A
:101420004FF000024FF0000194E72DE9804C9A46FE
:10143000934670B491E8380007C831EA400C48BFC1
:1014400034EA430C03D5FFF7E6FDFFF780FFF0BC5D
:10145000BDE8008C2DE9804C9A46934670B491E823
:10146000380007C810F0804F08BF13F0804F03D139
:1014700000F005F8FFF76BFFF0BCBDE8008C20F032
:101480007F4780EA030023F07F4C07EB0C03A3F5B2
:101490007C5300F00040A3F1FE0392F0000F00F037
:1014A000B38095F0000F00F077802DE901494FEAF5
:1014B00011404FEA144621EA004800FB06FC24EAEA
:1014C000064708FB06F607FB08F800FB07F718EBD2
:1014D00006484CEB164C4FEA124B18EB07484FEA04
:1014E00015464CEB174022EA0B4E0BFB06FC25EA97
:1014F00006470EFB06F607FB0EFE0BFB07F71EEB7F
:10150000064E4CEB164C4FF000061EEB074E4CEB14
:10151000174B18EB0B0840F1000018EB0E0B58EBC3
:10152000000840F100008F1A4FF000013CBFC94392
:10153000661B14BFB5EB040C00213CBFC943F61B6E
:101540004FEA17444EEA8E0E27EA04454FEA1C473D
:1015500004FB07622CEA074C05FB07F70CFB05F6BA
:1015600004FB0CFC16EB074642EB174216EB0C464D
:1015700042EB1C421BEB060658EB0202414146EAD5
:101580009E0601D5BDE80189B619524141EB010122
:10159000A3F10103BDE801894FEA14454FEA114761
:1015A00024EA054621EA074C05FB07F406FB07F78A
:1015B0000CFB06F105FB0CFC11EB074144EB174457
:1015C0004FEA124711EB0C4144EB1C4422EA074C52
:1015D00005FB07F206FB07F70CFB06F605FB0CFC08
:1015E00016EB074642EB174216EB0C4642EB1C4546
:1015F0006A1854F1000148BF7047B619524141EBD7
:101600000101A3F10103704795F0000F37D04FEAB5
:1016100011424FEA144721EA024624EA074C02FB32
:1016200007F106FB07F70CFB06F402FB0CFC14EBBE
:10163000074441EB17414FEA154714EB0C4441EBCB
:101640001C4125EA074C02FB07F506FB07F70CFBDC
:1016500006F602FB0CFC16EB074645EB174516EBAE
:101660000C4645EB1C42121951F1000148BF70476E
:10167000B619524141EB0101A3F1010370474FEA52
:1016800014454FEA114724EA054621EA074C05FBB9
:1016900007F106FB07F70CFB06F24FF0000605FB0F
:1016A0000CFC12EB074241EB174112EB0C4251EBE1
:1016B0001C4148BF7047921841EB0101A3F101039F
:1016C000704700000EB500246D4602AE4FF4FA7765
:1016D0000094019433462A1D69461648029400F08E
:1016E00093F818B114A0FEF7FDFD1FE017A0FEF758
:1016F000F9FD009803F070FA02460B4615A0FEF7BC
:10170000F1FD17A0FEF7EEFD019803F065FA024621
:101710000B4615A0FEF7E6FD16A0FEF7E3FD0298C6
:1017200003F0EEFA014615A0FEF7DCFD384602F0A4
:101730008FFCCDE798520020626D65323830207200
:1017400065616420657272210D0A000054656D7038
:101750003D00000025302E3266432C2000000000A2
:1017600048756D3D0000000025302E32662525525B
:10177000482C200050726573733D00002564506151
:101780000D0A00002DE9F0410446002094F82830AD
:101790000546064607220521273400F05BFAA378A8
:1017A0000422022100F056FA074663790222002142
:1017B000284600F04FFA05462379072205213046D6
:1017C00000F048FAE3780422022100F043FA14F80A
:1017D00027390122002100F03DFA06463A46F5215C
:1017E000204600F0FFF960B92A46F221204600F0B9
:1017F000F9F930B93246F421204600F0F3F9002817
:1018000000D00120BDE8F0812DE9FC47044600200E
:101810001F46914688460090019008236A46F721AA
:10182000204600F067F910B10120BDE8FC879DF863
:1018300000009DF80110000340EA01109DF802101D
:10184000B4F914C040EA11139DF803009DF8041088
:10185000000340EA01109DF8051040EA1115BDF89B
:101860000600554946BA206801EB600081104943E3
:10187000CA1202FB0CF2B4F912C049130CFB00FCB3
:1018800002EB4C02B4F810C0921002EB0C42B4F917
:101890000EC001FB0CF14FEAE10CB4F90C1041430E
:1018A0000CEB61008014618900F500404143C913CD
:1018B0000DD0C3F58010A0EB223040F635425043E6
:1018C000B0F1004F05D24000B0FBF1F004E0002081
:1018D000ABE7B0FBF1F04000C1104943B4F91A2066
:1018E00049135143B4F9183082105A430913B4F91B
:1018F000163001EB6231194400EB211003F01CFAA1
:101900003860A088E910A1EB4001B4F90620C0EBD3
:10191000251051434043B4F908200013C912504325
:1019200001EBA030206000EB80008030001203F05B
:1019300003FA224903F02CFAC8F80000E28BB10345
:101940002068A1EB0251B4F92020A0F5963002FBEB
:10195000101194F9242094F82330424343434FF468
:101960000040921200EBE32042434FF4001000EBE2
:10197000A220B4F91C2001F58041504300F500502D
:10198000C91380134143C813404394F82220C01167
:101990005043B1EB201000D500204FF0C8518842D1
:1019A00000DD0846001303F0DFF96FF0090103F0D2
:1019B00064FBC9F800008AE70006FFFF0AD7233C52
:1019C00038B504461823021D882100F093F8C0BBE7
:1019D000012304F12202A121204600F08BF880BBF4
:1019E000022304F11C02E121204600F083F840BBF1
:1019F000012304F12302E321204600F07BF800BB21
:101A00000020009003236A46E421204600F072F88B
:101A1000B8B99DF800109DF80100012361F31F1073
:101A2000E0839DF801009DF80210000940EA0120C2
:101A3000208404F12402E721204600F05BF800280E
:101A400000D0012038BD10B50A460123D02100F096
:101A500051F8002800D0012010BD000038B51C4806
:101A6000EC21002400F8261F032141708470C4700B
:101A7000052141718171017102F06AF9144800F089
:101A8000A7F808B1F0211AE08DF800406946104827
:101A9000FFF7D9FF08B1F82111E09DF800100DA063
:101AA000FEF720FC0A48FFF78BFF10B14FF480715E
:101AB00005E00748FFF766FE28B140F2071109A0CC
:101AC000FEF710FC38BD0A2001F088F938BD00008F
:101AD00098520020424D453238302049443A25780A
:101AE0000D0A0000696E697420657272406C25648D
:101AF0000D0A00002DE9F0411E4615460F4604462A
:101B000002F0A4F8002805DA02F0E2F86FF485602C
:101B1000BDE8F08194F8260002F0D2FB002810DB2B
:101B200001280ED0384602F0CBFB00280EDB01283E
:101B30000CD002F0CDF800280DDA02F0C9F82348E5
:101B4000E6E702F0C5F821480E30E1E702F0C0F800
:101B50001E48C01DDCE702F079F8002804DA02F024
:101B6000B7F81A48C01FD3E794F8260040F00100E8
:101B700002F0A6FB002804DB012802D00024771E17
:101B80001DE002F0A5F811480E38C1E7BC4209D1AA
:101B9000012001F0ABFF00280EDA02F099F80B48A3
:101BA0001938B5E7002001F0A1FF002804DA02F09F
:101BB0008FF86FF48C60ABE72855641CA4B2B44274
:101BC000E4D302F085F80020A2E70000C2FBFFFF8B
:101BD00010B5B622E02100F005F8002800D0012061
:101BE00010BD000070B514460D46064602F02EF8F2
:101BF000002804DA02F06CF86FF47F7070BD96F87C
:101C0000260002F05DFB002813DB012811D02846D6
:101C100002F056FB002810DB01280ED0204602F00F
:101C20004FFB00280EDB01280CD002F051F80020F9
:101C300070BD02F04DF8064870BD02F049F8044846
:101C4000C01F70BD02F044F801480E3870BD00009E
:101C5000FCFBFFFFF0B5FF2501260C46521C04E0FB
:101C600006FA04F7BD43641CE4B29442F8D328405A
:101C70008B400343D8B2F0BD0321B0FBF1F008283C
:101C800002D90838FEF70CBB7047000003498842B0
:101C900002D14FF0FF31C1617047000000000140E8
:101CA0000AB181617047C1617047000010B501221F
:101CB0008A400261C2614262164B98420CD101F027
:101CC00007040123A34000EB8300072905D8D0F8BF
:101CD00000149143C0F8001410BDA1F10803072BB4
:101CE00005D8D0F800189143C0F8001810BDA1F134
:101CF0001003072B05D8D0F8001C9143C0F8001C36
:101D000010BD18390729FBD800F5805001689143B0
:101D1000016010BD0000014010B501228A4002613F
:101D2000C2614262164B98420CD101F007040123B4
:101D3000A34000EB8300072905D8D0F80014114315
:101D4000C0F8001410BDA1F10803072B05D8D0F886
:101D500000181143C0F8001810BDA1F11003072BA3
:101D600005D8D0F8001C1143C0F8001C10BD18396C
:101D70000729FBD800F5805001681143016010BDB0
:101D8000000001402DE9F041054600F1280248F22B
:101D90004E170121384600F09DF8002185F82910E2
:101DA000002802DA1548BDE8F08195F82800010600
:101DB00007D500F00F0085F82900002448F24F16DF
:101DC00012E00E480F38EEE705EBC40206EBC40044
:101DD00080B20721521C00F07DF8002802DA074883
:101DE0001A38E0E7641CA4B295F82900A042EBD8A9
:101DF0000021384600F0E2F80020D4E742FBFFFF64
:101E00001CB51F4C12212046FFF750FF132120461E
:101E1000FFF74CFF0A2000F0E1FF01F077FF1221ED
:101E20002046FFF779FF0A2000F0D8FFE10061614A
:101E300001AA042148F2401000F04CF800281DDBF4
:101E400001A910A0FEF74EFA6A46022148F2461098
:101E500000F040F8002811DBBDF800100DA0FEF7DF
:101E600041FA6A46022148F2481000F033F800288F
:101E700004DBBDF800100FA0FEF734FA1CBD000013
:101E800000000140546F7563682049443A2025736F
:101E90000D0A00007820636F6F7264696E6174656B
:101EA000207265736F6C7574696F6E3A2025640DCE
:101EB0000A0000007920636F6F7264696E61746557
:101EC000207265736F6C7574696F6E3A2025640DAE
:101ED0000A0000002DE9F04115460E46044601F0C7
:101EE00091FE002804DA01F0D5FE3348BDE8F08108
:101EF000BA2002F0A3F9002818DB012816D0200A26
:101F000002F09CF9002816DB012814D0E0B202F0A0
:101F100095F9002814DB012812D001F0BBFE00283F
:101F200013DA01F0B7FE24481C38DFE701F0B2FEF7
:101F30002148C01FDAE701F0ADFE1F480E38D5E793
:101F400001F0A8FE1C481538D0E701F05BFE002820
:101F500004DA01F09FFE18482338C7E7BB2002F0DF
:101F60006DF9002804DB012802D00024771E1DE053
:101F700001F090FE6FF48B60B8E7BC4209D10120FC
:101F800001F074FD00280EDA01F084FE0A483538AD
:101F9000ACE7002001F06AFD002804DA01F07AFEC7
:101FA00005483F38A2E72855641CA4B2B442E4D3E4
:101FB00001F070FE002099E7D1FBFFFF70B50C46E1
:101FC000054601F01FFE002803DA01F063FE1B48FE
:101FD00070BDBA2002F032F900281ADB012818D0AF
:101FE000280A02F02BF9002818DB012816D0E8B2E5
:101FF00002F024F9002816DB012814D0204602F054
:102000001DF9002814DB012812D001F043FE002046
:1020100070BD01F03FFE0948C01F70BD01F03AFEDF
:1020200006480E3870BD01F035FE6FF4836070BD58
:1020300001F030FE01481C3870BD0000FCFBFFFFC2
:1020400070B5002406464FF4163540F2DF1340F217
:102050003F122146204600F09AF92C200107086023
:102060004E60641CAC42FBD370BD00002DE9FE4FF6
:102070000026A2EB000882465F1A701E354689468C
:10208000B8F1000F02DD4FF0010102E003D14FF083
:102090000001019102E0C8F100080190002F02DD6B
:1020A0004FF0010002E003D14FF00000009002E089
:1020B000C7F1000700904046B84501DD044600E046
:1020C0003C46601C4FF0000B029017E00E4A1FFACE
:1020D00089F11FFA8AF0126800F018F846443D446E
:1020E000A64202DD0199361B8A44A54202DD009911
:1020F0002D1B89440BF101001FFA80FB02998B45CF
:10210000E4DDBDE8FE8F00000800002010B5144695
:1021100040F2DF1340F23F1200F039F92C2108079A
:102120000160446010BD00002DE9FE4F814600248F
:10213000154603208846A0EB450654E0A8EB0500B1
:102140002B4F029081B209EB040B1FFA8BF03A6817
:10215000FFF7DCFFA8EB0400019081B209EB050A50
:102160001FFA8AF03A68FFF7D1FF08EB04000090ED
:1021700081B21FFA8AF03A68FFF7C8FF08EB050A38
:102180001FFA8AF11FFA8BF03A68FFF7BFFFA9EB3D
:10219000040B1FFA8AF11FFA8BF03A68FFF7B6FFBB
:1021A0000098A9EB050A81B21FFA8AF03A68FFF796
:1021B000ADFF02983A6881B21FFA8BF0FFF7A6FFD5
:1021C00001983A6881B21FFA8AF0FFF79FFF641CFA
:1021D000002E03DA06EB8406B61D04E0601B06EB56
:1021E00080066D1E0A36AC42A8DDBDE8FE8F0000F9
:1021F000080000202DE9F047DFF8749111214846CE
:10220000FFF754FD0A2000F0E9FD11214846FFF7D1
:1022100083FD0A2000F0E2FD4FF04044012060728F
:102220000225A572E572242121730A2666732072A5
:10223000D320206000F0A6F800F0A4F800F0A2F887
:102240004FF6FF7808EA002700F09CF840EA070103
:1022500048A0FEF747F8F7202060A92060605120D1
:1022600060602C20606082206060C02020601120AF
:10227000606009206060C120206041206060C5204E
:10228000206000206060666080206060B120206077
:10229000B020606011206060B42020606560B620CE
:1022A0002060656022206060B7202060C6206060EA
:1022B000BE2020600020606004206060E920206073
:1022C0000020606036202060082060603A20206096
:1022D00055206060E0202060002060600720606082
:1022E0001020606009206060172060600B20606033
:1022F00041206060892060604B20606066600C2037
:1023000060600E206060182060601B2060600F20FD
:102310006060E120206000206060172060601A206B
:102320006060042060600E206060062060602F20E6
:1023300060604520606043206060656066600920E1
:10234000606032206060362060600F206060112085
:102350002060642000F042FD2920206006214846CC
:10236000FFF7DAFC4046BDE8F047FFF769BE000022
:1023700000000140204C43442049443A25780D0A8E
:10238000000000004FF04040406880B2704730B518
:102390004FF040442A252560050A6560C0B26060A0
:1023A000100A6060D0B260602B202060080A606074
:1023B000C8B26060180A6060D8B2606030BD0000CA
:1023C00030B50F23C27801780125F2B1144A1268A2
:1023D00001F1E02102F4E062C2F5E062120AC2F10A
:1023E0000404D3404278A24084781C401443220164
:1023F00081F80024007800F01F018D404009800022
:1024000000F1E020C0F8005130BD01F01F00854010
:102410004809800000F1E020C0F8805130BD000084
:102420000CED00E0044A0029116801D0814300E06E
:1024300001431160704700000030004070B5144641
:102440000546C06B042202EBC402805C322808D12E
:10245000084600F0BDFCE96B51F83410BDE870404F
:10246000084770BD10B50446084600F0B1FC0528C9
:1024700001D2A4F8500010BD70B514460546142AC8
:1024800004D2084600F0A4FC25F8140070BD10B575
:102490000446A0F85A20084600F09AFC002801DC07
:1024A000012004E04FF4FA41884200DD0846A4F818
:1024B0005C0010BD2DE9F041C46B154604EBC50668
:1024C0008846B088242805D154F83570084600F0B5
:1024D00029FC3860B088022805D154F83570404690
:1024E00000F076FC3880B088122805D154F8357099
:1024F000404600F06DFC3880B088042805D154F8BF
:102500003570404600F064FC3860B088142805D16E
:1025100054F83540404600F05BFC2060BDE8F08197
:1025200070B50446856AB0F9480021290AD034F90B
:10253000462F02EB820205EBC2020244401C60807F
:10254000117070BD0028FCDD0121002008E02A5C2C
:102550002B1893F828309A4200D00021401C00B27A
:10256000B4F948208242F2DC002651B1B4F94800A7
:102570002E54204600F012F8A4F8466085F8286032
:1025800008E0B4F8460010B1A4F8466002E001206B
:10259000A4F84600A4F8486070BD00002DE9F00FD3
:1025A0008146806A0022354904E0521C12B2835CE5
:1025B000002B5FD0835C11F823305B07F5D0835C80
:1025C00011F823309B0755D000248A4601E0641C93
:1025D00024B2A118435C1AF823108907F7D14F1EC3
:1025E000DFF89C800023012500210AE08E18865D1B
:1025F00058F823C01CF801C0664500D00025491CCE
:1026000009B2A142F2DB0DB11F4603E05B1C1BB215
:10261000052BE8DBA11809B2425C53461AF82220C8
:10262000520727D500226FF02F0408E0455C02EB2B
:10263000820204EB42022A44491C12B209B2455CF0
:1026400013F825506D07F1D4435C232B12D1491C9C
:1026500009B2052F0ED2B9F9443093420ADD002A9F
:1026600008DB01440648143050F827304846BDE8DE
:10267000F00F1847BDE8F00F704700000051000050
:10268000B4000020B0F85000022802D04FF480704F
:1026900070470020704700002DE9F0410446B4F96E
:1026A0005860B4F95C70CD21CC235F4D022200202C
:1026B000BE4223DBB4F856604EB9666B3170616B75
:1026C0004B70636B0C219970636B4021D970B4F926
:1026D0005610082935DBA4F85600A4F85800688085
:1026E000A4F85E20A4F86000B4F85010032901D1CA
:1026F000A4F850004FF48070BDE8F081B4F95E603A
:1027000040F2E937BE422EDDB4F85660AEB9B4F8F7
:10271000606056B1666B3170616B4B70636B8C217E
:102720009970636B3F21D97007E0616B0870616B32
:102730004870616B8870616BC870B4F956100829D5
:1027400008DAB4F9560054F8341F0144401C608480
:102750000878D1E7A4F856006880A4F85E2001202C
:10276000A4F860009BE7B4F95610042949DAB4F8DC
:10277000560038BBB4F95A10E06B042202EBC101D9
:10278000B4F95A20415C50F8320002290ED00429D5
:1027900011D0142926D0242929D032290FD0B4F9F8
:1027A000581030F9110002F0C7FA0AE0B4F95810D5
:1027B00030F8110003E0B4F9581050F8210002F08D
:1027C000D3FA206404F1400034F9561F21F00101CE
:1027D00001442088C20700F10100208008880BD046
:1027E000000A89E7B4F9581050F82100DBE7B4F982
:1027F000581050F82100E4E7698801446980C0B2AC
:102800007AE7A4F85600B4F85800401CA4F8580021
:10281000B4F85E00401CA4F85E00616B6888087123
:10282000616B000A48713AE7B0000020B0F866100A
:102830000022042901D1A0F86620B0F86610F9B989
:10284000B0F96410B0F9623099421ADAB0F9641044
:10285000C36A0B44491CA0F864101978836B197083
:10286000B0F96410B0F96230994211DAB0F964102D
:10287000C26A0A44491CA0F864101178826B517036
:1028800008E0A0F86420A0F862204FF48070704740
:10289000816B4A70B0F9661050F8382F0A44491C11
:1028A000C185107870470000F8B5044600200090FC
:1028B000B4F85410444E91B1B4F95410B4F9442012
:1028C0009142B4F952102BDD04291CDAB4F95200FC
:1028D00054F8301F0144401C60840878F8BDB4F9F6
:1028E0005210002906DA34F9520F0DEB0001401C9A
:1028F0002080F2E7A4F85200B4F85410491CA4F860
:10290000541030805BE0A4F85200A4F85400B4F8EE
:102910005010012901D1A4F850004FF48070F8BD87
:10292000294A042915883EDAB4F8520018BBB4F9D4
:102930005410E06B6FF0030202EBC101B4F95420B4
:10294000415C6FF0070303EBC202022980580CD0F0
:1029500004290CD014291ED024291ED0322907D0D6
:10296000B0F9000002F0E8F904E0008800E0006837
:1029700002F0FAF9206404F1400034F9521F21F00A
:10298000010101442088C20700F10100208008886D
:1029900005D0000AF8BD0068E4E70068EAE74119DD
:1029A0003180C0B2F8BDA4F85200B4F85400401C05
:1029B000A4F85400206B0570216B280A487020464B
:1029C000FFF772FFF8BD0000B00000203EB50446DE
:1029D0003D4800210291D0E90020CDE90020B4F863
:1029E0004C00A8B1B4F94C0004EB400030F9020CE3
:1029F000B4F944209042B4F94A0017DD04280FDAF4
:102A000034F94A0F69460144401C208008783EBDD5
:102A1000B4F94A0000284CDA34F94A0F02A9F2E767
:102A200024F84A1F61804FF480703EBD042840DACC
:102A3000B4F84A0038BBB4F94C10E06B04EB410128
:102A400031F9021C042202EBC101B4F94C20415CB3
:102A500004EB420232F9022C022950F832000CD069
:102A600004290CD014291ED024291ED0322907D0C5
:102A7000B0F9000002F060F904E0008800E00068AE
:102A800002F072F9206404F1400034F94A1F21F089
:102A9000010101442088C20700F10100208006D016
:102AA0000888000A3EBD0068E4E70068EAE70878A5
:102AB0003EBDA4F84A10B4F84C00401CA4F84C00E9
:102AC0002046FFF783FF3EBDF850000010B5C02040
:102AD00080F31188BFF34F8FBFF36F8F01F036FE85
:102AE00018B104494FF080500860002080F311882D
:102AF00010BD000004ED00E0024901480860704785
:102B000000E1F5050000002010B54FF040242046FC
:102B100000F01CF801460448FFF702FD2046BDE81E
:102B20001040022100F002B840530020C2680A435E
:102B3000C2607047044B0A681B68B3FBF2F2026183
:102B40000979816070470000000000204168890712
:102B5000FCD50068C0B270474FF040214A68D207E8
:102B6000FCD108607047490050EAC12018BF04201A
:102B70004A0D18BF40F0010040F2FF72B2EB515F06
:102B800008BF40F00200012808BF05207047000080
:102B900070B50C46084D03E0294602F0F9F8641EB2
:102BA000002CF9DC054D002C04DA294602F0F0F87F
:102BB000641CF8E770BD000000002041CDCCCC3D86
:102BC0002DE9F047844609B1C1F800C000259CF802
:102BD00000400CF101004E4E01E010F8014B16F8D8
:102BE00024703F07F9D42B2C01D110F8014B2D2C68
:102BF00003D110F8014B43F001032B2C01D110F845
:102C0000014B002A03DB012A01D0242A05DD09B18A
:102C1000C1F800C00020BDE8F08722B1102A15D00D
:102C2000022A1BD023E0302C01D00A221FE00278B8
:102C3000782A07D0582A05D0622A05D0422A03D024
:102C4000082214E0102203E0022209E0302C0ED109
:102C50000778782F09D0582F07D008E0302C06D1FC
:102C60000778622F01D0422F01D14478801C4FF0A9
:102C7000FF39B9FBF2F7B2465AF824605FEA4678AA
:102C800001D5303C04E0B40714D0C6F30724373C28
:102C900094420FD243F00203BD4202D304D1BC429E
:102CA00002D805FB024502E043F0040311B110F81D
:102CB000014BE1E7401E4FF000449A0703D431B1C5
:102CC000C1F800C003E01A0703D5DA0701D00025D8
:102CD00016E05E076FF0004209D41E0710D4DE072D
:102CE00002D0A54209D80BE0954208D808E01D079C
:102CF00001D54D4604E0DD0701D0254600E015462C
:102D000001B10860D80700D06D42284683E7000073
:102D10000051000030380A2801D2012070470020FD
:102D200070470000F8B500210D460E460124274BE0
:102D3000009109E0D20606D52D2903D02B2902D017
:102D40000020F8BD6442401C017853F82120570749
:102D5000F0D000230A226946FFF732FF07460098A9
:102D600001782E2910D1451C00230A2269462846E5
:102D7000FFF726FF01460098451B084601F0DCFFDF
:102D80006942FFF705FF054600980178652901D0E3
:102D9000452906D100230A226946401CFFF710FF8F
:102DA0000646012C38460AD001F0C6FF014685F0E0
:102DB000004002F0B9F83146FFF7EAFEF8BD01F035
:102DC000BBFF294601F034FFF5E700000051000089
:102DD00000230A221946FFF7F3BE000004494FF40E
:102DE0007A720968B1FBF2F14843FEF745BF000073
:102DF00000000020C0B2FFF7AFBE4FF080400023BC
:102E00000360816841600122C26009210160C168DC
:102E10000029FCD00360C26070470000074800230F
:102E20000360816841600122C26009210160C168BC
:102E30000029FCD00360C260704700000010004011
:102E4000184C03E0184800F0BFFE6070207880073F
:102E5000F8D503E061781448FFF762FB2078C006DC
:102E6000F8D501F06DFC114900F00F02086010491F
:102E70000A70C0F303124A70C0F303228A70C0F3D1
:102E80000332CA70C0F303420A71C0F303524A719D
:102E9000C0F303628A71000FC871012001F0D8F8F5
:102EA000D4E70000000002C0405300208C00002046
:102EB000000001C01CB52548FEF7E8FE00F0FAF856
:102EC00000F0B0FF22A0FDF70DFA00F0C9FF00F0FE
:102ED0004BFEFFF78FF9FEF793FF6421142208469B
:102EE000FFF722F914226421C820FFF71DF91422EC
:102EF000C8216420FFF718F900F056F8009000B1DF
:102F0000FEE7FEF7ABFD18490220CDE900010023E2
:102F1000802216A1194801F0D3FB13490520091D91
:102F2000CDE900010023802215A1194801F0C8FB5A
:102F30000D4901200831CDE900010023802215A1AF
:102F4000184801F0BDFB01F0F7F8FEE70000014072
:102F50005341355A333020434D332B46504741209F
:102F6000544553540D0A000090000020746F75639F
:102F7000685265667265736800000000993D000044
:102F8000424D453238305265667265736800000004
:102F9000C51600006C65645265667265736854619D
:102FA000736B0000412E00002DE9F0474FF02044E4
:102FB000132600254FF480112046FDF73CFBAA2084
:102FC00000214FF0010C4FF40022B71C09E0A0547F
:102FD0005208030602D50CEB400000E04000C0B2EE
:102FE000491CB942F3D30CFA06F1AA200B46002281
:102FF0000EE014F80180804500D06D1C49085FEA9E
:10300000006802D50CEB400000E04000C0B2521C4A
:10301000BA42EED34AF6AA291946484600224FF68C
:10302000FF780AE060524908070403D50CEB400022
:1030300080B201E008EA4000521CB242F2D31946C5
:10304000484600220DE0675A874200D06D1C4908AF
:10305000070403D50CEB400080B201E008EA400011
:10306000521CB242EFD34FF0AA3800221946404614
:10307000761E08E060504908002802DA0CEB400098
:1030800000E04000521CB242F4D300200DE0E158B1
:10309000414500D06D1C5B08B8F1000F02DA0CEB63
:1030A000480801E04FEA4808401CB042EFD32846E8
:1030B000BDE8F08738B50D4908684FF6FF021040AB
:1030C0000B4A1043086000208DF8000002218DF8A3
:1030D00001108DF8020001248DF803406846FFF7C7
:1030E0006FF94FF0E020C0F8804238BD0CED00E0F1
:1030F0000000FA052DE9F047224E0F460446F56818
:10310000D6F83490D6F838803168002081F8510024
:103110003068001D00F0B6FE38B9306890F82C1009
:1031200001208840316981433161601C15D1A7B10C
:10313000154932684868906033688268DA6032689E
:103140008368121D5A603268121D826030684161C6
:103150000868401C0860BDE8F08730682C44AC4229
:103160004460316805D24046BDE8F047091D00F0D3
:10317000B1BE4846091D00F0ADFEB06A8442EAD2F5
:10318000B462E8E738000020185200202DE9F04131
:10319000044600F0B7FE354EB068401CB0603068A1
:1031A000334F10B1706938B32CE03460B068012837
:1031B00028D10025C5EBC50007EB800000F07AFEA2
:1031C0006D1C062DF6D32A48A83000F073FE28485F
:1031D000C43000F06FFE2648E03000F06BFE24485B
:1031E000FC3000F067FE234800F064FE2148703890
:1031F00070631C30B06305E03068E16AC06A8842E1
:1032000000D83460706A0121401C7062E06A326943
:10321000814011433161C0EBC00007EB8000406882
:10322000A0608168E1608268211D51608160E06A70
:10323000C0EBC00007EB8001616157F82010491C0A
:1032400047F8201000F07EFE706900280CD030682E
:10325000E16AC06A884207D207494FF0805008608F
:10326000BFF34F8FBFF36F8FBDE8F08138000020B0
:10327000005100201852002004ED00E010B500F0CD
:1032800041FE0C4C206880B90B4800F013FE0A4840
:103290001C3000F00FFE0848E0601C302061002266
:1032A00010210A2001F0A6F82060BDE8104000F0CF
:1032B00049BE0000780000203452002070B50C4D4B
:1032C0000C4E11E000F01EFEF068C468201D00F0F6
:1032D000D9FDA868401EA8606868401E686000F0BC
:1032E00031FE204600F051F868680028EAD170BD30
:1032F00038000020FC51002030B4026D0B46002A3B
:103300000BD0C1681144C1608468A14201D3016837
:10331000C16030BC1846FDF71FB930BC70472DE9BD
:10332000F041856C174604460026026D82B1C7B194
:10333000E068FDF711F9E168206D091AE160226883
:10334000914202D2A168081AE060022F16D017E05D
:103350002068A8B9A06801F08FFA06460020A06096
:103360000EE06068FDF7F8F8216D60680844606061
:10337000A168884204D32068606001E005B16D1E39
:103380006D1CA5643046BDE8F08110B50446006BA5
:1033900000F0ECFD2046BDE8104000F0E7BD000065
:1033A0000E484FF4A041420706D0C01D0B4920F043
:1033B0000700411AC1F5A041094B00220144C3E9AD
:1033C00000020839143B21F0070119604A600A60C5
:1033D0000A1AC0E900129A605A6070470001002082
:1033E00024000020074E4FF08054074DFFF766FF82
:1033F00030680128FAD92C60BFF34F8FBFF36F8F6D
:10340000F4E700000051002004ED00E02DE9F04752
:103410000D46DDE909841746824691009946089ECB
:10342000A522206BFDF7DDF86FF00301206B01EBA7
:103430008701084420F00707780707D0C02080F3F1
:103440001188BFF34F8FBFF36F8FFEE765B1002088
:103450002218295C82F83410295C11B1401C102814
:10346000F6D3002084F84300062E07D3C02080F353
:103470001188BFF34F8FBFF36F8FFEE7E662201D09
:10348000666400F024FD04F1180000F020FD2461C2
:10349000C6F106006462A0614A465146384600F013
:1034A000D3FA2060B8F1000F01D0C8F80040BDE8A1
:1034B000F087000030B51A4900E011460A688242E0
:1034C000FBD3174B99420DD0164B994202D3164BA2
:1034D000994207D9C02080F31188BFF34F8FBFF303
:1034E0006F8FFEE74B685C18844203D14068184434
:1034F0004860084643681C18944209D1084C143CA3
:103500002468A24209D052681A4442600A681268CC
:103510000260814200D0086030BD0460F9E700001D
:103520002400002000010020FF50002070B500247E
:1035300041600B4D0061914206D8D11A82699142D7
:1035400006D2011D286907E09A4203D2994201D3AD
:10355000012403E0011DE86800F0BCFC204670BDBA
:103560007800002010B5044600F0CCFCA06C20B11F
:10357000002400F0E7FC204610BD0124F9E7F1B576
:1035800000260098846D5CB1A16CE06C81420FD381
:10359000C02080F31188BFF34F8FBFF36F8FFEE71A
:1035A000C02080F31188BFF34F8FBFF36F8FFEE70A
:1035B000A16C814212D294F95550002269462046EE
:1035C000FFF7ADFE0646681C0AD000F06DFC854290
:1035D00004D27F2D0FD06D1C84F855503046F8BDB5
:1035E000E06A0028FAD004F12C0001F0A1F90028CB
:1035F000F4D00126F2E7C02080F31188BFF34F8F8B
:10360000BFF36F8FFEE7000070B506460D480D460C
:10361000C068C068C468201D00F034FC94F8240021
:10362000410705D52A463146204600F0C3F803E09D
:1036300000F0FE0084F824002046216ABDE87040B6
:10364000084700007800002070B586B00020009088
:10365000019002903B4E03906AE00098002806DA41
:10366000DDE90201019A90470098002860DB029C86
:10367000606910B1201D00F005FC04A800F0BCF842
:10368000054600980A2853D2DFE800F052050528C5
:103690002E460505282E94F824002A4640F0010005
:1036A00084F824000198A169034601442046FFF7ED
:1036B0003DFF40B394F82400410707D50198A16964
:1036C0002A460144204600F075F803E000F0FE00B1
:1036D00084F82400216A2046884729E014F8240F42
:1036E00000F0FE00207023E094F8240040F0010078
:1036F00084F824000198A06130B141192B461A4684
:103700002046FFF713FF13E0C02080F31188BFF3BA
:103710004F8FBFF36F8FFEE794F82400810703D427
:10372000204600F023FC03E000F0FE0084F82400B3
:1037300000226946306800F0E1FE00288DD106B015
:1037400070BD000078000020F8B50D46064600F078
:103750003DFD684600F050F80446009810B101F0B5
:1037600057F9F8BD1148ADB101690968D9B1002513
:10377000311B2A46006800F049FC01F049F9002895
:10378000EFD10B494FF080500860BFF34F8FBFF36C
:103790006F8FF8BDA642EBD801F03AF921463046CA
:1037A000FFF732FFF8BD0125E2E7000078000020B6
:1037B00004ED00E070B516460C46054604E0A86925
:1037C000296A044428468847A869234601193246D5
:1037D0002846FFF7ABFE0028F1D170BD0548416BCC
:1037E000096821B1416BC9680968816270474FF06F
:1037F000FF31FAE7380000202DE9F041064600F0DD
:103800009FFF0E4D0446A868844214D24FF0FF3744
:1038100004E0C06839460068FFF7F6FEE868016812
:103820000029F6D12969C5E903100120306020463E
:10383000AC60BDE8F0810020F8E7000078000020CF
:1038400008484068401C4FF0C00080F3118804D045
:10385000BFF34F8FBFF36F8FFEE7BFF34F8FBFF301
:103860006F8FFEE72C000020084CE068016839B13A
:10387000002139B10020FFF767FFFFF7E5FEF4E70D
:103880000121F6E7C0680068F5E700007800002035
:103890002DE9F041044600F035FB94F9555004F150
:1038A0002C060FE0A06D18B12046FFF768FE04E07B
:1038B000E06A48B1304601F03BF808B100F0F6FB91
:1038C0006D1E6DB2002DEDDC4FF0FF3684F85560B3
:1038D00000F038FB00F016FB94F9545004F1100787
:1038E00009E0206948B1384601F022F808B100F03B
:1038F000DDFB6D1E6DB2002DF3DC84F85460BDE875
:10390000F04100F01FBB00002DE9F04104004FF032
:1039100000050FD014F1090F0BD80834600709D047
:1039200004F00700C0F10800C1438C4201D80444F0
:1039300000E0002400F04AFC404E306808B9FFF770
:103940002FFD002C6ADD7768BC4267D83B48DFF862
:10395000F0C0143001460968614502D3394B9942E1
:1039600015D9C02080F31188BFF34F8FBFF36F8F3D
:10397000FEE708461146624501D3994207D9C020A7
:1039800080F31188BFF34F8FBFF36F8FFEE74A6854
:10399000A24202D20A68002AEBD1326891423DD09D
:1039A00005680835654501D39D4207D9C02080F3DD
:1039B0001188BFF34F8FBFF36F8FFEE70A68026075
:1039C0004A68A24207D2C02080F31188BFF34F8F0C
:1039D000BFF36F8FFEE7131B102B10D90A195FEA94
:1039E000427C07D0C02080F31188BFF34F8FBFF314
:1039F0006F8FFEE753604C600368136002604A6893
:103A0000B81A7060B368984200D2B06042F00040CB
:103A1000486000200860F068401CF06000F0F8FF8B
:103A2000680707D0C02080F31188BFF34F8FBFF322
:103A30006F8FFEE72846BDE8F081000010000020EF
:103A400000010020FF50002010B5031F4FF08074CC
:103A50001C601B1F21F001011960191F024B0B6034
:103A6000143940380A6010BD413800002DE9F04794
:103A70001D4E4FF4803881460025C6F81480072477
:103A80004FF6FF7A4FF40047FFF7B7F97761FFF77A
:103A9000B4F900F09FF980B100F0B0F90AEA4501ED
:103AA00040EA01053761FFF7A8F9641EECD5B9F1CA
:103AB000000F404605D0706104E06FF0A100BDE842
:103AC000F0873061FFF799F97761FFF796F900F019
:103AD00095F9484502D06FF0B400F0E73761FFF781
:103AE0008CF928B2EBE70000000001402DE9F04717
:103AF0001C4E4FF4001881460025C6F81480072498
:103B00004FF6FF7A3701FFF789F97761FFF786F9FA
:103B100000F06AF980B100F07BF90AEA450140EA59
:103B200001053761FFF77AF9641EECD5B9F1000F92
:103B3000404605D0706104E06FF09700BDE8F08763
:103B40003061FFF76BF97761FFF768F900F060F912
:103B5000484502D06FF0AA00F0E73761FFF75EF941
:103B600028B2EBE70000014015481449C163002169
:103B700020F8021B42F20F7220F8262B104A783AE6
:103B80000260503242600F4A82600832C260121FE7
:103B900002610A228283C18301848184418481611C
:103BA000C184018581854185C185018641868186E3
:103BB000C186018741878187C18770470055000012
:103BC00040530020F000002070B50446B0F94E00CC
:103BD0000B4D55F8201020468847010A0ED0B4F846
:103BE000620008B1042001E0B4F85000A4F84E00CF
:103BF000B4F94E0055F8201020468847C0B270BD79
:103C0000DC00002070B5104C4FF400452561FFF733
:103C1000F4F86E006661FFF7F0F86561FFF7EDF804
:103C200000F0D8F850B100F0E9F850B12661FFF784
:103C3000E4F82561FFF7E1F8002070BD6FF0630044
:103C400070BD6FF0670070BD0000014070B5104C92
:103C50004FF480152561FFF7E1F866016661FFF713
:103C6000DDF86561FFF7DAF800F0BEF850B100F05A
:103C7000CFF850B12661FFF7D1F82561FFF7CEF8F4
:103C8000002070BD6FF0590070BD6FF05D0070BD19
:103C90000000014070B50D4C4FF480352561FFF7F1
:103CA000ACF868106061FFF7A8F86561FFF7A5F848
:103CB00000F090F820B100F0A1F820B1002070BD14
:103CC0006FF0C50070BD6FF0C90070BD000001400D
:103CD00070B50D4C4FF400152561FFF79FF82001DA
:103CE0006061FFF79BF86561FFF798F800F07CF8DA
:103CF00020B100F08DF820B1002070BD6FF0BB0046
:103D000070BD6FF0BF0070BD000001400D484FF462
:103D10000041416149004161416821F40041416035
:103D2000416821F48031416000218003016006492F
:103D3000064A0968B1FBF2F18160816841600121A6
:103D4000C16070470000014000000020400D0300EA
:103D50000E484FF48011416141014161416821F4F5
:103D600080114160416821F4001141604FEAB04088
:103D7000002101600649074A0968B1FBF2F1816040
:103D8000816841600121C16070470000000001406E
:103D900000000020400D03000D4C4FF478450C4806
:103DA000FDF7F0FF40B994F82900022808D0A18857
:103DB00060882A46FEF7AAF90A2000F049F9EEE7E2
:103DC000A3896289A1886088FEF750F9F4E70000B2
:103DD0006C52002003480068000401D501207047A0
:103DE000002070470000014003480068C00201D570
:103DF0000120704700207047000001400348006820
:103E0000C00301D501207047002070470000014029
:103E100003480068800201D50120704700207047E8
:103E2000000001401CB500210820FEF7FBFA0B4CF6
:103E3000012204212046FDF733FF012208212046FC
:103E4000FDF72EFF4FF4E130009003208DF80400C1
:103E500069464FF04020FEF76DFE1CBD000001409A
:103E600006480021017006494FF461220968B1FB40
:103E7000F2F1491E4180012101707047000002C02B
:103E800000000020D0E9013201699A60D0E90123E5
:103E90005A604A68824201D182684A600022026107
:103EA0000868401E0860704701488068704700003D
:103EB0003800002000F108014FF0FF32C0E9011284
:103EC000C160016100214161816101607047002191
:103ED0000161704730B50C68621C02D000F1080225
:103EE00002E0026904E01A4653681D68A542FAD947
:103EF00053684B6099608A60516008610168491C91
:103F0000016030BDC02080F31188BFF34F8FBFF335
:103F10006F8F0A494868401C486001280CD1084846
:103F2000006810F0FF0F07D0C02080F31188BFF3A6
:103F30004F8FBFF36F8FFEE7704700002C0000200B
:103F400004ED00E00849486828B1401E486001D1EE
:103F500080F311887047C02080F31188BFF34F8F22
:103F6000BFF36F8FFEE700002C00002070B5002823
:103F700038D0A0F108041C48844202D31B48844274
:103F800007D9C02080F31188BFF34F8FBFF36F8F25
:103F9000FEE76068002807DBC02080F31188BFF3CC
:103FA0004F8FBFF36F8FFEE7216839B1C02080F3D8
:103FB0001188BFF34F8FBFF36F8FFEE720F00040F3
:103FC000606000F003F90A4D606869680844686041
:103FD0002046FFF76FFA2869401C2861BDE8704051
:103FE00000F016BD70BD000000010020FF50002051
:103FF000100000204FF0E0200021016181610249A2
:1040000041610721016170479F86010070B5154627
:104010000E460446FFF776FF94F954100020491C21
:1040200001D184F8540094F95510491C01D184F849
:104030005500FFF787FFA06C28B92A46314604F1E6
:104040002C0000F051F82046BDE87040FFF720BC7E
:1040500010B5020015D000F0B9F80E49096B01291E
:1040600007D0C02080F31188BFF34F8FBFF36F8F4D
:10407000FEE700211046FFF73DF800F0C9FC0028DC
:1040800007D105494FF080500860BFF34F8FBFF351
:104090006F8F10BD3800002004ED00E002490A6A6D
:1040A0000260C96841607047380000200149012062
:1040B000086070475400002010B50C4650B1094903
:1040C00009681831FFF706FF2046BDE810400121BE
:1040D000FFF710B8C02080F31188BFF34F8FBFF3F4
:1040E0006F8FFEE738000020F0B40C46D0B1114BC2
:1040F00041681D68E9618D681E6835621D688E68BB
:10410000183575601D6818358D60196888620168FA
:10411000491C01600AB14FF0FF342046F0BC114643
:10412000FEF7E8BFC02080F31188BFF34F8FBFF3C5
:104130006F8FFEE73800002070B586B0002002AA1D
:104140001EA1095C115411B1401C1028F8DB002499
:104150001C4E254606EB8401CDE900511A48002388
:10416000802202A900F0ACFA10B1641C012CF1DB32
:10417000144C3C3C012803D100F0EEFC012802D095
:10418000401C12D00EE0C02080F31188BFF34F8F87
:10419000BFF36F8F4FF0FF30A06201206061E560D8
:1041A00000F0CEF8E06A06B070BDC02080F3118840
:1041B000BFF34F8FBFF36F8FFEE7000049444C45BC
:1041C0000000000074000020E53300000248016B8D
:1041D000491C01637047000038000020154A116B2C
:1041E00002F11C0011B10121016070470021016042
:1041F00010691149B0FA80F0C0F11F00C0EBC00097
:1042000051F8203073B101EB800000F108034168E0
:1042100049684160994201D1C1684160C868106035
:1042200010687047C02080F31188BFF34F8FBFF331
:104230006F8FFEE738000020005100202DE9F04785
:104240001E4E814607244FF0010A4FF480384FF488
:1042500000470AFA04F010EA090F01D0012500E036
:10426000002540460DB1706100E03061FEF7C5FDEC
:104270007761FEF7C2FDFFF7ADFD38B1FFF7BEFD78
:10428000854206D06FF08700BDE8F0876FF08200AE
:10429000FAE73761FEF7B1FD641EDAD5C6F814807F
:1042A000FEF7ABFD7761FEF7A8FDFFF7A7FD04461B
:1042B0003761FEF7A2FD20B2E6E7000000000140F2
:1042C0002DE9F0471D4E072481464FF0010A4FF4B7
:1042D000001837010AFA04F010EA090F01D001258D
:1042E00000E0002540460DB1706100E03061FEF74E
:1042F00095FD7761FEF792FDFFF776FD38B1FFF788
:1043000087FD854206D06FF07D00BDE8F0876FF035
:104310007800FAE73761FEF781FD641EDAD5C6F84A
:104320001480FEF77BFD7761FEF778FDFFF770FDE7
:1043300004463761FEF772FD20B2E6E70000014057
:104340003EB529490025019508788DF80800FF2021
:10435000087008788DF800009DF80000234C10F0DC
:10436000C00020700CD09DF80020C020904316D0D3
:10437000C02080F31188BFF34F8FBFF36F8FFEE72C
:10438000C02080F31188BFF34F8FBFF36F8FFEE71C
:10439000401C01909DF8000040008DF800009DF841
:1043A000000000060198F3D408281AD0C0F10700D5
:1043B000A060207A000200F4E060A0609DF8080090
:1043C00008700B48016841F47F010160016841F009
:1043D0007F410160FFF70EFE6560FBF727FF0020BD
:1043E0003EBDA560E5E7000000E400E02C000020F1
:1043F00020ED00E070B50E4605001FD04FF0FF30F5
:10440000B0FBF5F0B04219D305FB06F010F15D0FDB
:1044100014D85C30FFF778FA04000CD004F15C008B
:1044200056B12060C4E913562046012100F00EF871
:1044300000212046A16570BD2460F3E7C02080F311
:104440001188BFF34F8FBFF36F8FFEE72DE9F04167
:104450000E4604004FF001052CD0E06C90B3AF1E67
:10446000B7FBF0F1206D81423DD3FFF74BFDD4E95E
:104470001320216802FB0011A1600021A1642168C2
:1044800061600A46D4E91301401E00FB0121204669
:10449000E16000F8547F477004F110009EB1FFF70F
:1044A00009FD04F12C00FFF705FDFFF74BFD284641
:1044B000BDE8F081C02080F31188BFF34F8FBFF3B8
:1044C0006F8FFEE70FE021690029EED000F030FA8F
:1044D0000028EAD008494FF080500860BFF34F8FA2
:1044E000BFF36F8FE1E7C02080F31188BFF34F8FD8
:1044F000BFF36F8FFEE7000004ED00E02DE9F74702
:1045000083B08A4604004FF0000603D0BAF1000FD2
:1045100008D011E0C02080F31188BFF34F8FBFF3A4
:104520006F8FFEE7206D38B1C02080F31188BFF394
:104530004F8FBFF36F8FFEE700F0F4F8DFF8F090D5
:1045400000274FF0805848B9059838B1C02080F353
:104550001188BFF34F8FBFF36F8FFEE7FFF7D2FCD9
:10456000A56CC5B151462046FEF7C6FE6D1EA5647A
:10457000206950B104F1100000F0DAF928B1C9F84F
:104580000080BFF34F8FBFF36F8FFFF7DBFC01207D
:1045900006B0BDE8F087059808B11EB106E0FFF748
:1045A000D1FC27E06846FFF779FD0126FFF7CAFC3A
:1045B000FFF70CFEFFF7A6FC94F95400401C01D154
:1045C00084F8547094F95500401C01D184F855705A
:1045D000FFF7B8FC05A9684600F02CF80028204633
:1045E0000AD0FFF755F900F013FA2046FEF7BAFF9C
:1045F0000028B3D00020CBE7FEF7B4FF90B104F160
:104600002C000599FFF758FD2046FFF741F900F00F
:10461000FFF90028A2D1C9F80080BFF34F8FBFF384
:104620006F8F9BE72046FFF733F900F0F1F995E72C
:1046300004ED00E02DE9F0410D4604000FD0B5B1C6
:10464000FFF760FC1D4EF16863683068CA1A0027E6
:1046500090F8510098B1306880F8517028E0C0207F
:1046600080F31188BFF34F8FBFF36F8FFEE7C02039
:1046700080F31188BFF34F8FBFF36F8FFEE7286879
:10468000B0F1FF3F09D0D4F800C0366AB44506D077
:104690008B4204D801242F600BE0002409E09042F3
:1046A00005D9801A28602046FFF7F8FCF5E72F604F
:1046B0000124FFF747FC2046BDE8F08138000020C8
:1046C0002DE9FF5F8346DDE90E8716468A46994647
:1046D0009000FFF719F9050018D05420FFF714F9DE
:1046E00004000FD05421FBF7A6FF25630021CDE97C
:1046F0000241CDE900874B46324651465846FEF707
:1047000085FE04E02846FFF731FC00E0002420008D
:1047100005D0FEF73BFD012004B0BDE8F09F4FF04F
:10472000FF30F9E70548416919B1006B18B1002065
:1047300070470120704702207047000038000020B9
:104740000148C06870470000380000202DE9F041A2
:10475000474E0025306B28B1B069401CB061284637
:10476000BDE8F081F468641CF46013D1706B0068DC
:1047700038B1C02080F31188BFF34F8FBFF36F8F24
:10478000FEE7706BB16B7163B063306A401C3062DE
:10479000FFF724F8B06ADFF8DCE084420BD34FF077
:1047A000000C706B0068B0B1706BC068C16848687D
:1047B000844213D2B0623068C06AC0EBC0005EF8B9
:1047C0002000012800D9012529481C300068002854
:1047D000C5D00125C3E74FF0FF30EBE7D1E9023246
:1047E00048699A60D1E902235A6043680A1D9342DE
:1047F00001D1CB684360C1F814C003685B1E03603D
:10480000886A88B1D1E907379F60D1E907377B60B3
:10481000476801F118039F4201D10B6A4360C1F858
:1048200028C003685B1E0360C86A012337698340A0
:104830003B433361C0EBC0000EEB800040688860F2
:104840008368CB6083685A608260C86AC0EBC0002E
:104850000EEB80024A615EF82020521C4EF82020A8
:10486000C86A3168C96A88429BD9012599E7000066
:10487000380000200051002070B504004FF0000007
:1048800050D0294D29688C4207D0C02080F3118870
:10489000BFF34F8FBFF36F8FFEE7A16C69B1491E65
:1048A000A164636CE26A9A423CD000293AD1201D8F
:1048B000FFF7E8FA012140B10EE0C02080F3118833
:1048C000BFF34F8FBFF36F8FFEE794F82C002A6978
:1048D00001FA00F082432A61606CE062C0F10600D8
:1048E000A061E06A2A698140114329610F4AC0EB47
:1048F000C00002EB80004068A0608168E1608368CE
:10490000211D59608160E06AC0EBC00002EB8000AD
:104910006061E06AC0EBC00052F82010491C42F808
:104920002010012070BD0000380000200051002040
:1049300070B5C068C06860B3D0E90732816A9A6018
:10494000D0E907235A604B6800F11802934201D165
:10495000036A4B60002585620B682B4C5B1E0B6065
:10496000216B0123E9B1294D6968C1618E68066236
:104970008E6872608A6085622968491C2960C06AF5
:104980002168C96A88423CD91F4901201C310B604B
:1049900070BDC02080F31188BFF34F8FBFF36F8FBE
:1049A000FEE7D0E902624169B260D0E90226726096
:1049B0004E68021D964201D1C6684E6045610D6881
:1049C0006D1E0D60C16A266903FA01F53543256144
:1049D0000E4DC1EBC101E03D05EB810149688160ED
:1049E0008E68C6608E6872608A60C16AC1EBC10160
:1049F00005EB8102426155F82120521C45F8212027
:104A0000BDE7002070BD000038000020E05100200C
:104A10002DE9F05F0024A246FFF774FA4B4F002502
:104A2000386B28B1386B401E3863386B40B188E072
:104A3000C02080F31188BFF34F8FBFF36F8FFEE765
:104A4000B868424E42491C364FF000094FF0010849
:104A5000002876D08B46DBF80010E9B3DBF80C00B9
:104A6000C468D4E90721A06A9160D4E907125160B3
:104A7000426804F118018A4201D1216A4160C4F8F8
:104A8000289001684A46491E0160D4E902316069F4
:104A90009960D4E9021359604368211D8B4201D10A
:104AA000E3684360626102684346521E0260E06A46
:104AB000D7F810C008FA00F242EA0C023A61244A20
:104AC000C0EBC000E03A02EB80004068A060D0F884
:104AD00008C0C4F80CC000E017E0D0F808C0CCF85B
:104AE00004108160E06AC0EBC00002EB80016161EC
:104AF00052F82010491C42F82010E06A3968C96A4F
:104B00008842A8D946F82530A5E70CB1FEF766FE25
:104B1000BC6944B1FFF71AFE08B146F82580641E4F
:104B2000F8D1C7F8189056F8250050B138684FF002
:104B3000010A08494FF080500860BFF34F8FBFF360
:104B40006F8FFFF7FFF95046BDE8F09F3800002057
:104B5000E051002004ED00E01CB5FEF78FFB0C488F
:104B6000006860B10A490520091DCDE90001002354
:104B7000802208A10948FFF7A3FD002807D1C02023
:104B800080F31188BFF34F8FBFF36F8FFEE71CBD1B
:104B900078000020546D722053766300693800005D
:104BA00010B500290AD00878002807D005487844B5
:104BB000FCF778F9002801D0002010BD02487844A5
:104BC00010BD0000B20A0000AA0A00000808A0F503
:104BD00000114FEA3101704743004FEAD30C4FEA0E
:104BE0003C0C43401FBF40070CF1605113F0FE4FD7
:104BF00070471CF0006F03D100200CF0004170479B
:104C00000CF0004343EA507010B540EACC0000F0CD
:104C100040F900BF000000924FEA0001FFF7D6BF45
:104C20004FF000414FF00000A1F500217047000057
:104C300090EA010F48BF81F0004100F17C81421AE7
:104C40003CBF801A89184FEAD0524FF07F4C1CEAC3
:104C5000410FA2EBD15318BF9CEA026F00F03B80DA
:104C60004FF0004C4CEA00204CEA012121FA03FCF1
:104C700010EB0C0C1ED202F1FF325FEA1C2040EB5D
:104C8000C25038BF70471CF07F0F4FEA400C18BF6E
:104C9000BCF17F4F38BF7047C3F12003994008BF74
:104CA00020F00100BCF17F4F38BF7047A0F1C04039
:104CB00000F035B94FEA3C00000A40EBC25028BF73
:104CC0001CF0FF0F4FEA400CE6D018BFBCF17F4F3D
:104CD00038BF7047EAE79CEA026F05D010EA5C0F24
:104CE00008BF00F00040704710B500F0D2F800BFD8
:104CF00064FBBE3E014800F08EB900BF0000C07FDB
:104D000041000B0ED3F19E0208D950F400034FEA84
:104D1000032323FA02F048BF4042704710B500F069
:104D2000B8F800BF49922480002070476FF000421D
:104D300082EA20007047000010F0004148BF404266
:104D4000B0FA80F310FA03F2C3F19D030BD051EADD
:104D5000C35101EB1220530638BF704700F1010028
:104D600008BF20F001007047B0FA80F310FA03F298
:104D7000C3F19D030AD0D90501EB1220530638BFB9
:104D8000704700F1010008BF20F0010070470000EB
:104D90004FF47F0C1CEAD0121EBF1CEAD11392EA1A
:104DA0000C0F93EA0C0F00F0478090EA010F48BF08
:104DB00042F480724FF0004C4CEA00204CEA012192
:104DC00002EB0302A0FB0113A2F50002002918BFA9
:104DD00043F001035B0028BF4FEA330342EB22425A
:104DE0005FEA132C4CEBC2502EBFBCEB436FB2F505
:104DF0007C0F70474FEA036CBCF1004F08BF20F0F6
:104E00000100B2F57C0F38BF70470BD582F0FF026E
:104E100012F5803FC8BF704700F1C040D8BF00F016
:104E20000040704700F5000C5FEA4C0C48BF70472B
:104E3000B0F1C04000F073B890EA010F0CEAD11352
:104E400048BF42F48072624538BF634504D280EAAD
:104E5000010000F00040704710B500F01AF800BFE4
:104E60008900013E00F007B800F009B85FEA410C84
:104E70005FEA1C6C08D080EA010000F050B85FEADD
:104E8000400C5FEA1C6CF6D14FF00040A0F58000AA
:104E900070470EF1020E2EF0030E5EF8044B244212
:104EA00004D44FEA4102B2F17F4F11D84FEA4003D8
:104EB000B3F17F4F0CD80ED14FEAD07CB2F17F4FC7
:104EC0000CEB4C0C0CF1020C08BF4CEBD17C04E059
:104ED0004FF0080C01E04FEAD17C0CEB4C0324FAB4
:104EE00003F404F00704B4F1040C06D20EEB840CB6
:104EF000BDE810404CF0010C6047DFE80CF00708FB
:104F000002024FF00040A0F5800010BD08464200AC
:104F100018BFD2F1807288BF00F0004010BDFF21A1
:104F200041EAD050C005704790EA010F48BF81F0B8
:104F300000413FF584AE421A04D882F00042A0EB53
:104F4000020011444FEAD0524FF07F4C1CEA410F4F
:104F5000A2EBD15318BF9CEA026F4AD04FF0004C2D
:104F60004CEA00204CEA012121FA03FCB0EB0C0CC6
:104F70000FD412F0FE0F36D05FEA4C001DD50012A0
:104F800040EBC25038BF70471CF03F0F18BF70474E
:104F90000BE0A2F101025FEA1C2040EBC25038BFD7
:104FA00070471CF07F0F18BF7047C3F12003994072
:104FB00014BF401E20F00100704780084FEA122302
:104FC00008BF7047B0FA80FCA2EB0C02CCF1280CB1
:104FD00060FA0CF093EA122F04BF00EBC250704746
:104FE0004FEAC3707047130A5FEADC1008BF7047CE
:104FF000F6E79CEA026F04D010EA5C0F08BF0020BD
:10500000704710B5FFF745FF40DFF63E81F00040E6
:105010007047FBF76CBC0CF00F03092B08BF08208E
:1050200000F051800A2B0BD0082B18BF704708BF27
:105030001CF0400F0AD04FF000004FF00001704705
:105040001CF0400F18BF4FF0004070471CF0100FCD
:1050500008D020F0704300F07F4242EAD3014FEACB
:105060004370704700F0604021F07F4242EA000246
:1050700001F07F4040EA727070474FF0FF0212EA81
:10508000D0521CBF92F0FF038B42C2BFD14200EB53
:10509000C1507047002A0AD0002B0BD0002900F025
:1050A0000040A4BF40F0FE4040F40000704700F014
:1050B0000040704743024FF00B0C18BF4CF0806C5F
:1050C0007FF418AE70471CF4801F11D01CF4E02F41
:1050D00003D06FEACC31490070474FF04050EFF3F6
:1050E000008222F0704242EA000282F30088704798
:1050F0004FF00000704700000000807F00000000BB
:105100002000000020010100200202002003030013
:1051100020040400200505002006060020070700E3
:105120002008080068090900280A0A00280B0B005B
:10513000280C0C00280D0D00200E0E00200F0F0073
:105140002010100020111100201212002013130053
:105150002014140020151500201616002017170023
:105160002018180020191900201A1A00201B1B00F3
:10517000201C1C00201D1D00201E1E00201F1F00C3
:10518000482020001021210010222200102323009B
:1051900010242400102525001026260010272700A3
:1051A0001028280010292900102A2A00102B2B0073
:1051B000102C2C00102D2D00102E2E00102F2F0043
:1051C0000430300004313100043232000433330043
:1051D0000434340004353500043636000437370013
:1051E0000438380004393900103A3A00103B3B00CB
:1051F000103C3C00103D3D00103E3E00103F3F0083
:10520000104040008141610081426200814363009F
:10521000814464008145650081466600014767005E
:105220000148680001496900014A6A00014B6B00AE
:10523000014C6C00014D6D00014E6E00014F6F007E
:10524000015070000151710001527200015373004E
:10525000015474000155750001567600015777001E
:105260000158780001597900015A7A00105B5B00FF
:10527000105C5C00105D5D00105E5E00105F5F0002
:1052800010606000824161008242620082436300DC
:1052900082446400824565008246660002476700DA
:1052A0000248680002496900024A6A00024B6B002A
:1052B000024C6C00024D6D00024E6E00024F6F00FA
:1052C00002507000025171000252720002537300CA
:1052D000025474000255750002567600025777009A
:1052E0000258780002597900025A7A00107B7B003C
:1052F000107C7C00107D7D00107E7E00207F7F0072
:105300000080800000818100008282000083830091
:105310000084840000858500008686000087870061
:105320000088880000898900008A8A00008B8B0031
:10533000008C8C00008D8D00008E8E00008F8F0001
:1053400000909000009191000092920000939300D1
:1053500000949400009595000096960000979700A1
:105360000098980000999900009A9A00009B9B0071
:10537000009C9C00009D9D00009E9E00009F9F0041
:1053800000A0A00000A1A10000A2A20000A3A30011
:1053900000A4A40000A5A50000A6A60000A7A700E1
:1053A00000A8A80000A9A90000AAAA0000ABAB00B1
:1053B00000ACAC0000ADAD0000AEAE0000AFAF0081
:1053C00000B0B00000B1B10000B2B20000B3B30051
:1053D00000B4B40000B5B50000B6B60000B7B70021
:1053E00000B8B80000B9B90000BABA0000BBBB00F1
:1053F00000BCBC0000BDBD0000BEBE0000BFBF00C1
:1054000000C0C00000C1C10000C2C20000C3C30090
:1054100000C4C40000C5C50000C6C60000C7C70060
:1054200000C8C80000C9C90000CACA0000CBCB0030
:1054300000CCCC0000CDCD0000CECE0000CFCF0000
:1054400000D0D00000D1D10000D2D20000D3D300D0
:1054500000D4D40000D5D50000D6D60000D7D700A0
:1054600000D8D80000D9D90000DADA0000DBDB0070
:1054700000DCDC0000DDDD0000DEDE0000DFDF0040
:1054800000E0E00000E1E10000E2E20000E3E30010
:1054900000E4E40000E5E50000E6E60000E7E700E0
:1054A00000E8E80000E9E90000EAEA0000EBEB00B0
:1054B00000ECEC0000EDED0000EEEE0000EFEF0080
:1054C00000F0F00000F1F10000F2F20000F3F30050
:1054D00000F4F40000F5F50000F6F60000F7F70020
:1054E00000F8F80000F9F90000FAFA0000FBFB00F0
:1054F00000FCFC0000FDFD0000FEFE0000FFFF00C0
:105500008C000020040000009C000020020000002D
:105510009E00002002000000A00000200200000009
:10552000A200002002000000A400002002000000F1
:10553000A600002002000000A800002002000000D9
:10554000AA00002002000000AC00002002000000C1
:1055500030313233343536373839414243444546A9
:1055600040305800303132333435363738396162A3
:1055700063646566403078000400000800000000A5
:1055800000000002000100001000000002400000C6
:10559000000000A00000000005400000000000C85E
:1055A000000000000C4000000000409C00000000D3
:1055B000194000000020BCBE000000003440000084
:1055C000BFC91B8E00000004B5400000504BCFD077
:1055D0006607E2CF010000006C4100003E8251AA44
:1055E000DFEEA73401000000D9420000DCB5A0E2E4
:1055F0003A301F97FFFFFFFFB4450000FD25A0C80C
:10560000E9A3C14FFFFFFFFFFF3F00000000008044
:1056100000000000FF3F00000000008000000000CC
:10562000636F6E66000000006368670063616C6C06
:105630000000000064756D70000000007365740068
:105640007C56000000000020000100007C010000EA
:105650007C57000000010020086300009801000052
:105660001C00000043000000F8FFFFFF0C000000DA
:105670000E0000000F0000002E00000000E1F50504
:1056800000000000000000FFFFFFFFFF000000001F
:10569000000000000000000000000000000000000A
:1056A000000000000000000000000000AAAAAAAA52
:1056B00000000000000000000000000000000000EA
:1056C00000000000000000000000000000000000DA
:1056D00000000000000000000000000000000000CA
:1056E00005000000000000000000000000000000B5
:1056F00000000000000000000000000000000000AA
:105700000000000000000000000000000000000099
:105710000000000000000000040000000000000085
:105720000000000000000000000000000000000079
:105730003C56000020560000285600003456000059
:105740002C560000B52400007924000065240000D8
:105750008F2400003D240000CD290000A92800006E
:1057600085260000992600002D2800000000817F7A
:0C5770000000837F000000000000827F2A
:0400000500000141B5
:00000001FF
