:020000040000FA
:1000000058640020A9020000B1020000B302000001
:10001000B5020000B7020000B902000000000000B5
:1000200000000000000000000000000009020000C5
:10003000BD020000000000004D020000A92A0000DF
:10004000E52A0000C3020000C3020000C302000052
:10005000C3020000C3020000C3020000C30200008C
:10006000C3020000C3020000C3020000C30200007C
:10007000C3020000C3020000C3020000C30200006C
:10008000C3020000C3020000C3020000C30200005C
:10009000C3020000C3020000C3020000C30200004C
:1000A000C3020000C3020000C3020000C30200003C
:1000B000C3020000C3020000C3020000C30200002C
:1000C000C3020000C3020000C3020000C30200001C
:1000D000C3020000C3020000C3020000C30200000C
:1000E000C3020000C3020000C3020000C3020000FC
:1000F000C3020000C3020000C3020000C3020000EC
:10010000C3020000C3020000C3020000C3020000DB
:10011000C3020000C3020000C3020000C3020000CB
:10012000C3020000C3020000C3020000C3020000BB
:10013000C3020000C3020000C3020000C3020000AB
:1001400000F002F800F050F80AA090E8000C824499
:100150008344AAF10107DA4501D100F045F8AFF276
:10016000090EBAE80F0013F0010F18BFFB1A43F095
:10017000010318470865000028650000103A24BFF5
:1001800078C878C1FAD8520724BF30C830C144BFFC
:1001900004680C607047000000230024002500263E
:1001A000103A28BF78C1FBD8520728BF30C148BFDA
:1001B0000B607047662905F05284642900F00281C3
:1001C000782900F03B81732900F0318500207047C9
:1001D0001FB500F075FD04000020002105F024F992
:1001E000E0601FBD10B510BD00F06EFE1146FFF7B8
:1001F000EFFF03F007F800F08CFE03B4FFF7F2FF07
:1002000003BC00F0CFFE0000224B19680868B0E87C
:10021000F00F80F30988BFF36F8F4FF0000080F379
:1002200011884EF00D0E704700000000064800686F
:10023000006880F3088862B661B6BFF34F8FBFF3E2
:100240006F8F00DF00BF00BF08ED00E0EFF3098013
:10025000BFF36F8F0F4B1A6820E9F00F106008B5DD
:100260004FF0800080F31188BFF34F8FBFF36F8F83
:1002700004F01AFA4FF0000080F31188BDE808403E
:1002800019680868B0E8F00F80F30988BFF36F8F32
:10029000704700BF38000020EFF305807047000072
:1002A0000138FDD1704700000948804709480047E0
:1002B000FEE7FEE7FEE7FEE7FEE7FEE7FEE7FEE716
:1002C000FEE7FEE704480549034A054B7047000076
:1002D000D52A000041010000585400205864002035
:1002E000585400200FB4044910B503AA029800F036
:1002F000A3FC10BC5DF814FB040000200FB41CB577
:10030000074B06AA7B4469460090059800F065FCFF
:100310000020694600F074FC1CBC5DF814FB000072
:10032000F908000070B5044685690068C10601D56A
:10033000302600E02026C00707D070BDD4E9012197
:1003400030469047206A401C20626D1EF6D570BD75
:1003500070B5044685690078C00707D170BDD4E93F
:10036000012120209047206A401C20626D1EF6D596
:1003700070BD70B50C460546012A05D02878800668
:1003800000D5EA69002302E0012305E05B1C9342EB
:1003900002D2E05C0028F9D1A869E618C01AA86169
:1003A000286A184428622846FFF7BCFF04E0D5E914
:1003B000012114F8010B9047B442F8D32846FFF707
:1003C000C7FF70BD2DE9F04106460024106875296D
:1003D000314616A510D0AFF30080002802DA404263
:1003E00013A507E031688A0701D512A502E0490785
:1003F00004D511A5012401E0AFF3008000210A22F9
:1004000006F1240709E0B0FBF2FCB0FBF2F302FBBB
:100410001C00303078541846491C0028F3D123467C
:100420002A463046BDE8F04100F069B900000000FE
:100430002D0000002B0000002000000070B50446D5
:100440000D4621461068AFF300802188090502D5CA
:100450000F4A7A4402E00E4A7A440E32002104F137
:10046000240305E000F00F060009965D5E54491C68
:100470000028F7D120780023000704D5702D02D082
:1004800009B1022311322046BDE8704000F037B9AF
:10049000366100002DE9F05F894604464FF0000AFE
:1004A000DFF824B1FB44C0F820A02046E16888476B
:1004B00000287DD0252806D0D4E901219047206A64
:1004C000401C2062F1E700255F462046E16888472E
:1004D0002028064607DB312E05D2B81910F8200C6B
:1004E00008B10543F1E7A80701D525F00405C4F8D4
:1004F0001CA00027C4F818A02A2E09D0304602F00C
:10050000F7FB38B304EB8708303EC8F8186019E0F1
:1005100059F8041B204604EB87029161E168884783
:10052000012F064618D1E069002820DA25F02005C1
:100530001DE0D8F8180000EB800006EB40003038D2
:10054000C8F818002046E1688847064602F0D0FB4C
:100550000028EED1012F0AD02E2E08D12046E168C6
:1005600088477F1C0646022F45F02005C4DBA069A2
:10057000002803DA404245F00105A061E80701D0F8
:1005800025F01005A6B1A6F14100192802D82036A1
:1005900045F400654A463146204625604D46FFF742
:1005A00009FE60B1012807D0ED1D25F0070000E02D
:1005B00007E000F1080978E705F1040975E730461E
:1005C0007AE7206ABDE8F09F0C610000032A40F240
:1005D000308010F0030C00F0158011F8013BBCF1E5
:1005E000020F624498BF11F801CB00F8013B38BFFD
:1005F00011F8013BA2F1040298BF00F801CB38BF0B
:1006000000F8013B11F0030300F02883083AC0F022
:10061000088051F8043B083A51F804CBA0E80810D0
:10062000F5E7121D5CBF51F8043B40F8043BAFF303
:100630000080D20724BF11F8013B11F801CB48BF5D
:1006400011F8012B24BF00F8013B00F801CB48BF93
:1006500000F8012B704702F0FF0343EA032242EA4D
:10066000024200F002B84FF000020429C0F01280EC
:1006700010F0030C00F01B80CCF1040CBCF1020F55
:1006800018BF00F8012BA8BF20F8022BA1EB0C012A
:1006900000F00DB85FEAC17C24BF00F8012B00F820
:1006A000012B48BF00F8012B70474FF0000200B546
:1006B000134694469646203922BFA0E80C50A0E885
:1006C0000C50B1F12001BFF4F7AF090728BFA0E833
:1006D0000C5048BF0CC05DF804EB890028BF40F8FF
:1006E000042B08BF704748BF20F8022B11F0804F41
:1006F00018BF00F8012B70477047704770472DE90D
:10070000F0470D4699469246044600F124080168D8
:10071000880604D5E06921F01001216000E0012085
:10072000A84201DD471B00E00027A1697A1902EB0E
:100730000900081AA0612078C00602D42046FFF7FD
:10074000F1FD002608E0D4E901211AF806009047DF
:10075000206A401C761C20624E45F4DB2078C006DF
:100760000AD52046FFF7DEFD06E0D4E9012130205E
:100770009047206A401C2062381EA7F10107F4DC74
:1007800007E0D4E9012118F805009047206A401CD1
:100790002062281EA5F10105F3DC2046FFF7D8FDF5
:1007A0002078000602D50220BDE8F0870120FBE793
:1007B00070472DE9FF4F0C461E464FF0FF378BB0B8
:1007C000D2E90001DDF860800A908A46C1F30A553B
:1007D00005B93D46002108464FF00000BAF1000F70
:1007E00000F4400005DA00EB80004FF4400101EA1C
:1007F00050004FEA9059B9F1010F00DDB9460A984F
:1008000050EA4A000ED044F61050A5F2FF35454399
:100810002F14B8F1000F1ED07542291E1EDDC9F13C
:1008200000021CE0B8F1010F4FF0000001D03021B0
:1008300003E0F24305E02154401CB042FBDB3046AC
:100840000022002121540B99C1F80880C1E9002041
:100850000FB0BDE8F08FBD1B6D1CDEE74A4600DA25
:10086000694206A800F0B6FA06AB93E8070003ABAE
:1008700083E8070050460A9900F09BFB8DE80700CB
:10088000A0F500501F3800900398002D0ADD42F2B9
:100890001F014A460844002303A90390684600F05C
:1008A00004FE09E0A0F500504A461F38002303A9C2
:1008B0000390684600F00EFE8DE807000004000C6F
:1008C00003D04FF0FF30410800E01046B8F1000FB0
:1008D00003D00022009215461EE0751E05D400F0DC
:1008E000F3F9303262556D1EF9D5B3460122084343
:1008F00002D000227F1C04E02078302801D10022A1
:100900007F1E002A099784D01DE0112D07DA00F020
:10091000DBF9303262556D1C50EA0102F5D1084313
:1009200002D00098C8B10EE00021681E05E0235CEB
:10093000625C63542254401E491C8142F7DBAB4683
:10094000A81B401E0990002004F80B000B98099A80
:10095000C0F80880C0E9002B7AE711264FF00008A4
:1009600057E72DE9F04F88460446D21D22F00701D3
:1009700091B0D1E90001CDE90A0102F0E2F80246A6
:100980000B98C00F01D02D2007E02068810701D50A
:100990002B2002E0202101EAC000032A099001D0A7
:1009A000072A05DB03464146204600F0D3F90BE158
:1009B0002078800601D5E06900E00620B8F1650FD7
:1009C000814606D0B8F1660F18D0B8F1670F70D124
:1009D00031E00020B9F1110F009001DB112301E09B
:1009E00009F101030AAA01A90CA8FFF7E2FEDDE95B
:1009F0000C70002609F10105834647E001204B46B3
:100A000000904FF000470AAA01A90CA8FFF7D1FEF9
:100A1000DDE90DB00C995D46002610B909F1010021
:100A20000D18B9EB050003D4C0F1FF3609F101053B
:100A3000A5EB09002BE0B9F1010F01DA4FF0010934
:100A40000020B9F1110F0090484601DD112300E0AC
:100A500003460AAA01A90CA8FFF7ABFEDDE90C705A
:100A60004D4600268346207800070AD4AB4500DABD
:100A70005D4601A8012D04DD411911F8011C302942
:100A800007D04F4502DA17F1040F04DA012082463D
:100A90000FE06D1EEEE7002F02DCED1B3E4403E08D
:100AA000781CA84200DD7D1CB81B00F1010A4FF044
:100AB00000472078000703D4AA4501DB4FF0FF3A36
:100AC0000021B7F1004F0DF143088DF8431024D0F9
:100AD00002202B23002F01DA7F422D230A21021E40
:100AE000A0F1010000DC5FB197FBF1FC97FBF1F294
:100AF00001FB1C7C17460CF1300C08F801CDEEE729
:100B0000A8F1010003702188090501D5452100E005
:100B10006521A0F1010800F8011C09980FA9A1EBBB
:100B20000807FF1D00B10120411901EBEA70A1691E
:100B30003844081A401EA0612078C00602D420461E
:100B4000FFF7F0FB099828B1D4E901219047206A0A
:100B5000401C20622078C00622D52046FFF7E2FB29
:100B60001EE0002E04DBB34502DD01A8805D00E03D
:100B70003020D4E901219047206A401C2062761C75
:100B8000AAF101005FEA000A0AD100F099F8C068F2
:100B90000168405CD4E901219047206A401C206232
:100BA000281EA5F10105DCDC07E0D4E9012118F8D5
:100BB000010B9047206A401C2062381EA7F10107F4
:100BC000F3DC2046FFF7C4FB032011B041E6000030
:100BD00001694A1C02610878704700B58FB0CDE901
:100BE00001310021059105497944CDE903101146F1
:100BF0006846FFF74FFC0FB000BD0000E5FFFFFFA8
:100C00000A6802F8010B0A60704710B5436913B116
:100C1000AFF3008001E0FFF7ACFB012010BD1278BC
:100C200000F124010A7000224A700122EDE71168E8
:100C30004FF0FF32E9E70000074B70B50D467B44EB
:100C4000FFF7CBFF0446284600F036F910B14FF00D
:100C5000FF3070BD204670BD2B23000010B5203A38
:100C6000C0F00B80B1E81850203AA0E81850B1E865
:100C70001850A0E81850BFF4F5AF5FEA027C24BF1B
:100C8000B1E81850A0E8185044BF18C918C0BDE812
:100C900010405FEA827C24BF51F8043B40F8043BDB
:100CA00008BF7047D20728BF31F8023B48BF11F890
:100CB000012B28BF20F8023B48BF00F8012B7047EA
:100CC000004870471454002030B5B0F10A024FEAD2
:100CD000900E71F100034EEA817EB0EB0E0061EBE5
:100CE00091014FEA101E4EEA017E10EB0E0041EB1F
:100CF00011114FEA102E4EEA016E10EB0E0041EB7F
:100D000011214FEA104E4EEA014E10EB0E0041EB5E
:100D10001141401841F100014FEAD00040EA417012
:100D20004FEAD10110EB80054FEA810444EA907448
:100D300044EB01046D1944EB0404521BA3414FF032
:100D4000000348BF0A3200D530BD401C41F100010C
:100D500030BD00002DE9F0411F460446032601681E
:100D6000072A01F4006004DB08B116A505E016A50A
:100D700003E008B115A500E015A521F010002060E2
:100D8000A069C01EA0610FB1401EA0612046FFF700
:100D9000C9FA4FB1D4E9012138469047206A401C76
:100DA0002062C01C206206E0206AFAE7D4E9012133
:100DB00015F8010B9047761EF8D22046FFF7C8FAC7
:100DC000BDE8F0814E414E006E616E00494E460016
:100DD000696E66002DE9F047814616468AB03548AF
:100DE00078440DC88DE80D0032487844801C03AC6F
:100DF0000DC884E80D0041F69B300844372190FB74
:100E0000F1F290FBF1F5A5F1800501FB12041B3C0A
:100E100002D56442012000E00020DFF898A080465F
:100E20000027FA44AAF1BE0A0EE0E0070AD03246D3
:100E3000684607EB470101230AEB810100F04AFBFA
:100E40008DE8070064107F1C002CEED1194F7F4401
:100E5000AE3F19E0E80715D007EB04100DF1180AB2
:100E600090E80E008AE80E00C068F04201D198199F
:100E700008903246012306A903A800F02BFB03AB20
:100E800083E807006D10641C002DE3D14FF00103CF
:100E900032466946B8F1000F03A802D000F005FB06
:100EA00001E000F017FBC9E90001C9F808200AB009
:100EB000BDE8F08760580000007B00F080007047BC
:100EC00000487047F45300207546FFF7F9FFAE461F
:100ED00005006946534620F00700854618B020B546
:100EE000FFF7F0F9BDE820404FF000064FF0000793
:100EF0004FF000084FF0000B21F00701AC46ACE8C2
:100F0000C009ACE8C009ACE8C009ACE8C0098D462E
:100F1000704710B50446AFF300802046BDE810408E
:100F2000FFF76BB94FF0013C50F8042B51F8043B2C
:100F30009A4221D1A2EB0C03934313EACC1317D1AD
:100F400050F8042B51F8043B9A4215D1A2EB0C0344
:100F5000934313EACC130BD150F8042B51F8043B04
:100F60009A4209D1A2EB0C03934313EACC13DBD0D2
:100F70004FF00000704700BFD01A01BAB1FA81F1FA
:100F800001F0180122FA01F0CB40C1F12001DBB2DF
:100F9000C0B2C01A2CFA01F3D11A914311EAC3115D
:100FA000E6D1704701491820ABBEFEE726000200DB
:100FB00070475FEA400C08BF91F0000F4FEA8C23A6
:100FC0004FEAC12243EA51514FEA1C5018BF00F5C5
:100FD000F0404FEA300018BF41F000415FEA6C5C1E
:100FE00000F02980BCF1FF3F08BF40F0804070470F
:100FF000130C06BF12044FF0100C4FF0000C130E30
:1010000004BF12020CF1080C130F04BF12010CF103
:10101000040C930F04BF92000CF1020CD30F04BF19
:1010200052000CF1010C11464FF00002A0F11F001C
:10103000A0EB0C00704711F0004F08BF704731F073
:1010400000413FF4D5AF0B0C06BF09044FF0100C64
:101050004FF0000C0B0E04BF09020CF1080C0B0F33
:1010600004BF09010CF1040C8B0F04BF89000CF1C3
:10107000020CCB0F04BF49000CF1010CCCF1200392
:10108000A0EB0C0022FA03F302FA0CF241EA03018E
:1010900000F10100704720F07F4C80EA030023F04C
:1010A0007F47ACEB070303F57C5300F0004003F1EE
:1010B000FF032DE980494FEA154B09B44FEA144369
:1010C00025EA0B4E24EA03480FF2042606EB132709
:1010D00049083E785FEA320203FB0667C7F500075E
:1010E00007FB06F64FEA54374FEAD64606F10206EA
:1010F00007FB066CCCF1005C4FEA1C472CEA074C5E
:1011000007FB06F40CFB06F504EB15464FEA9616B2
:1011100034BF00204FF000404FEAD13706FB07FCF8
:101120004FEA1C4C0CFB0BF7D21B03FB0CF761EBDB
:1011300007010CFB0EF7B0EB074072EB17420CFBFC
:1011400008F734BFA2EB0742B2EB074261EB17414D
:101150004FEA0C444FEA910706FB07FC4FEA1C4C90
:101160000CFB0BF7B0EBC74072EB573203FB0CF7ED
:1011700034BFA2EBC742B2EBC74261EB57310CFB65
:101180000EF7B0EBC70072EB57720CFB08F734BFD9
:10119000A2EBC702B2EBC70261EB5771039F4FEAA4
:1011A000816141EA921104EBCC044FEAD1374FEA56
:1011B000826206FB07FC42EA90124FEA80604FEA27
:1011C0001C4C0CFB0BF7D21B03FB0CF761EB07016C
:1011D0000CFB0EF7B0EB074072EB17420CFB08F765
:1011E00034BFA2EB0742B2EB074261EB17414FEA73
:1011F0008C554FEA910704EB9C2406FB07FC4FEA51
:101200001C4C0CFB0BF7B0EBC74072EB573203FBE7
:101210000CF734BFA2EBC742B2EBC74261EB5731C8
:101220000CFB0EF7B0EBC70072EB57720CFB08F724
:1012300034BFA2EBC702B2EBC70261EB577115EBEB
:101240004C254FEA816141EA92114FEA82624FEAEE
:10125000D13742EA901206FB07FC44F100044FEA42
:1012600080604FEA1C4C0CFB0BF7D21B03FB0CF706
:1012700061EB07010CFB0EF7B0EB074072EB174276
:101280000CFB08F734BFA2EB0742B2EB074261EB5D
:10129000174115EB1C154FEA813141EA92414FEAA3
:1012A000823242EA90424FEA80304FEA0C7644F1B3
:1012B000000448EA03434EEA0B484FF0000EB2EB3D
:1012C000080C71EB030724BF624639464EEB0E0E45
:1012D0004FF0000B0018524149414BEB0B0BB2EBA6
:1012E000080C71EB03077BF1000B24BF6246394603
:1012F0004EEB0E0E4FF0000B0018524149414BEBE4
:101300000B0BB2EB080C71EB03077BF1000B24BF56
:10131000624639464EEB0E0E51EA020718BF46F000
:10132000010616EB0E7655F1000254F1000103D5CB
:10133000BDE88901BDE80088BDE88901BDE8004835
:10134000B619524141EB0101A3F1010370478080BE
:101350007F7E7D7C7B7A797877767675747372710F
:1013600071706F6E6E6D6C6C6B6A6A6968686766C7
:1013700066656464636362616160605F5F5E5E5D59
:101380005D5C5C5B5B5A5A595958585757565655CD
:1013900055555454535352525251515050504F4F2F
:1013A0004F4E4E4D4D4D4C4C4C4B4B4B4A4A4A497F
:1013B00049494848484747474746464645454544C2
:1013C0004444444343434342424242414141002B4F
:1013D0009C4630D477002BD01CB54FEA370703B4B6
:1013E0004FF010004FF01001BAF1000F06D0BCF121
:1013F000000FDCBF40F0080040F008014FF0000093
:101400000FBCBDE810400BF1010BBBF1010F08BF91
:101410005FEA170722BF12F1010211F101014FF03B
:10142000004143F1000300F0004043EA0000704730
:10143000F9D35708D0E746EA064613F1400F4FEAC2
:1014400016461FDD13F1200FDFBF16430A460021A9
:1014500020335B42BED0C3F1200746EA064602FABB
:1014600007F74FEA164646EA0706C3F1200722FAB5
:1014700003F201FA07F721FA03F14FF0000342EA01
:101480000702A7E746EA020646EA06464FEA16467C
:1014900046EA0106BCBF46EA0646360C4FF000039A
:1014A0004FF000024FF0000194E72DE9804C9A467E
:1014B000934670B491E8380007C831EA400C48BF41
:1014C00034EA430C03D5FFF7E6FDFFF780FFF0BCDD
:1014D000BDE8008C2DE9804C9A46934670B491E8A3
:1014E000380007C810F0804F08BF13F0804F03D1B9
:1014F00000F005F8FFF76BFFF0BCBDE8008C20F0B2
:101500007F4780EA030023F07F4C07EB0C03A3F531
:101510007C5300F00040A3F1FE0392F0000F00F0B6
:10152000B38095F0000F00F077802DE901494FEA74
:1015300011404FEA144621EA004800FB06FC24EA69
:10154000064708FB06F607FB08F800FB07F718EB51
:1015500006484CEB164C4FEA124B18EB07484FEA83
:1015600015464CEB174022EA0B4E0BFB06FC25EA16
:1015700006470EFB06F607FB0EFE0BFB07F71EEBFE
:10158000064E4CEB164C4FF000061EEB074E4CEB94
:10159000174B18EB0B0840F1000018EB0E0B58EB43
:1015A000000840F100008F1A4FF000013CBFC94312
:1015B000661B14BFB5EB040C00213CBFC943F61BEE
:1015C0004FEA17444EEA8E0E27EA04454FEA1C47BD
:1015D00004FB07622CEA074C05FB07F70CFB05F63A
:1015E00004FB0CFC16EB074642EB174216EB0C46CD
:1015F00042EB1C421BEB060658EB0202414146EA55
:101600009E0601D5BDE80189B619524141EB0101A1
:10161000A3F10103BDE801894FEA14454FEA1147E0
:1016200024EA054621EA074C05FB07F406FB07F709
:101630000CFB06F105FB0CFC11EB074144EB1744D6
:101640004FEA124711EB0C4144EB1C4422EA074CD1
:1016500005FB07F206FB07F70CFB06F605FB0CFC87
:1016600016EB074642EB174216EB0C4642EB1C45C5
:101670006A1854F1000148BF7047B619524141EB56
:101680000101A3F10103704795F0000F37D04FEA35
:1016900011424FEA144721EA024624EA074C02FBB2
:1016A00007F106FB07F70CFB06F402FB0CFC14EB3E
:1016B000074441EB17414FEA154714EB0C4441EB4B
:1016C0001C4125EA074C02FB07F506FB07F70CFB5C
:1016D00006F602FB0CFC16EB074645EB174516EB2E
:1016E0000C4645EB1C42121951F1000148BF7047EE
:1016F000B619524141EB0101A3F1010370474FEAD2
:1017000014454FEA114724EA054621EA074C05FB38
:1017100007F106FB07F70CFB06F24FF0000605FB8E
:101720000CFC12EB074241EB174112EB0C4251EB60
:101730001C4148BF7047921841EB0101A3F101031E
:1017400070472DE9F0410446002094F82830054602
:10175000064607220521273400F05CFAA37804220C
:10176000022100F057FA0746637902220021284639
:1017700000F050FA0546237907220521304600F093
:1017800049FAE3780422022100F044FA14F82739D8
:101790000122002100F03EFA06463A46F521204695
:1017A00000F000FA60B92A46F221204600F0FAF96A
:1017B00030B93246F421204600F0F4F9002800D078
:1017C0000120BDE8F08100002DE9FC47044600201F
:1017D0001F46914688460090019008236A46F721EB
:1017E000204600F067F910B10120BDE8FC879DF8A4
:1017F00000009DF80110000340EA01109DF802105E
:10180000B4F914C040EA11139DF803009DF80410C8
:10181000000340EA01109DF8051040EA1115BDF8DB
:101820000600554946BA206801EB60008110494323
:10183000CA1202FB0CF2B4F912C049130CFB00FCF3
:1018400002EB4C02B4F810C0921002EB0C42B4F957
:101850000EC001FB0CF14FEAE10CB4F90C1041434E
:101860000CEB61008014618900F500404143C9130D
:101870000DD0C3F58010A0EB223040F63542504326
:10188000B0F1004F05D24000B0FBF1F004E00020C1
:10189000ABE7B0FBF1F04000C1104943B4F91A20A6
:1018A00049135143B4F9183082105A430913B4F95B
:1018B000163001EB6231194400EB211003F062FF96
:1018C0003860A088E910A1EB4001B4F90620C0EB14
:1018D000251051434043B4F908200013C912504366
:1018E00001EBA030206000EB80008030001203F09C
:1018F00049FF224903F072FFC8F80000E28BB103F0
:101900002068A1EB0251B4F92020A0F5963002FB2B
:10191000101194F9242094F82330424343434FF4A8
:101920000040921200EBE32042434FF4001000EB22
:10193000A220B4F91C2001F58041504300F500506D
:10194000C91380134143C813404394F82220C011A7
:101950005043B1EB201000D500204FF0C851884211
:1019600000DD0846001303F025FF6FF0090104F0C5
:10197000AAF8C9F800008AE70006FFFF0AD7233C4F
:1019800038B504461823021D882100F093F8C0BB27
:10199000012304F12202A121204600F08BF880BB34
:1019A000022304F11C02E121204600F083F840BB31
:1019B000012304F12302E321204600F07BF800BB61
:1019C0000020009003236A46E421204600F072F8CC
:1019D000B8B99DF800109DF80100012361F31F10B4
:1019E000E0839DF801009DF80210000940EA012003
:1019F000208404F12402E721204600F05BF800284F
:101A000000D0012038BD10B50A460123D02100F0D6
:101A100051F8002800D0012010BD000038B51C4846
:101A2000EC21002400F8261F032141708470C4704B
:101A3000052141718171017102F038FB144800F0F9
:101A4000A7F808B1FA211BE08DF80040694610485C
:101A5000FFF7D9FF10B14FF4817111E09DF800102C
:101A60000CA0FEF73FFC0A48FFF78AFF10B14FF4C5
:101A7000857105E00648FFF764FE28B140F21111B8
:101A800008A0FEF72FFC38BD0A2001F049FA38BD46
:101A9000E4520020424D453238302049443A2578FE
:101AA0000D0A0000696E697420657272406C2564CD
:101AB0000D0A00002DE9F0411E4615460F4604466A
:101AC00002F072FA002805DA02F0B0FA6FF48560CD
:101AD000BDE8F08194F8260002F058FE002810DBE3
:101AE00001280ED0384602F051FE00280EDB0128F6
:101AF0000CD002F09BFA00280DDA02F097FA234886
:101B0000E6E702F093FA21480E30E1E702F08EFAA0
:101B10001E48C01DDCE702F047FA002804DA02F094
:101B200085FA1A48C01FD3E794F8260040F0010058
:101B300002F02CFE002804DB012802D00024771ECE
:101B40001DE002F073FA11480E38C1E7BC4209D11A
:101B5000012002F079F900280EDA02F067FA0B484A
:101B60001938B5E7002002F06FF9002804DA02F016
:101B70005DFA6FF48C60ABE72855641CA4B2B442E4
:101B8000E4D302F053FA0020A2E70000C2FBFFFFFB
:101B900010B5B622E02100F005F8002800D00120A1
:101BA00010BD000070B514460D46064602F0FCF963
:101BB000002804DA02F03AFA6FF47F7070BD96F8EC
:101BC000260002F0E3FD002813DB012811D028468F
:101BD00002F0DCFD002810DB01280ED0204602F0C8
:101BE000D5FD00280EDB01280CD002F01FFA0020E2
:101BF00070BD02F01BFA064870BD02F017FA0448E7
:101C0000C01F70BD02F012FA01480E3870BD00000E
:101C1000FCFBFFFFF0B5FF2501260C46521C04E03B
:101C200006FA04F7BD43641CE4B29442F8D328409A
:101C30008B400343D8B2F0BD0321B0FBF1F008287C
:101C400002D90838FEF72CBB7047000003498842D0
:101C500002D14FF0FF31C161704700000000014028
:101C60000AB181617047C1617047034600200122BB
:101C70008A405A6119680A4200D00120704700006A
:101C800010B501228A400261C2614262164B98423D
:101C90000CD101F007040123A34000EB83000729C6
:101CA00005D8D0F800149143C0F8001410BDA1F17C
:101CB0000803072B05D8D0F800189143C0F8001886
:101CC00010BDA1F11003072B05D8D0F8001C9143DB
:101CD000C0F8001C10BD18390729FBD800F580504A
:101CE00001689143016010BD0000014010B5012260
:101CF0008A400261C2614262164B98420CD101F0E7
:101D000007040123A34000EB8300072905D8D0F87E
:101D100000141143C0F8001410BDA1F10803072BF3
:101D200005D8D0F800181143C0F8001810BDA1F173
:101D30001003072B05D8D0F8001C1143C0F8001C75
:101D400010BD18390729FBD800F5805001681143F0
:101D5000016010BD000001402DE9F041054600F191
:101D6000280248F24E170121384600F09DF8002164
:101D700085F82910002802DA1548BDE8F08195F8A9
:101D80002800010607D500F00F0085F8290000247F
:101D900048F24F1612E00E480F38EEE705EBC4028A
:101DA00006EBC40080B20721521C00F07DF8002829
:101DB00002DA07481A38E0E7641CA4B295F8290053
:101DC000A042EBD80021384600F0E2F80020D4E72A
:101DD00042FBFFFF1CB51F4C12212046FFF750FFAE
:101DE00013212046FFF74CFF0A2001F099F802F07A
:101DF0003BF912212046FFF779FF0A2001F090F805
:101E0000E100616101AA042148F2401000F04CF8A1
:101E100000281DDB01A910A0FEF764FA6A46022122
:101E200048F2461000F040F8002811DBBDF8001021
:101E30000DA0FEF757FA6A46022148F2481000F05A
:101E400033F8002804DBBDF800100FA0FEF74AFAB3
:101E50001CBD000000000140546F756368204944B8
:101E60003A2025730D0A00007820636F6F72646951
:101E70006E617465207265736F6C7574696F6E3A0C
:101E80002025640D0A0000007920636F6F72646979
:101E90006E617465207265736F6C7574696F6E3AEC
:101EA0002025640D0A0000002DE9F04115460E467C
:101EB000044602F055F8002804DA02F099F8334895
:101EC000BDE8F081BA2002F01FFC002818DB0128D1
:101ED00016D0200A02F018FC002816DB012814D0C6
:101EE000E0B202F011FC002814DB012812D002F04D
:101EF0007FF8002813DA02F07BF824481C38DFE76B
:101F000002F076F82148C01FDAE702F071F81F48A6
:101F10000E38D5E702F06CF81C481538D0E702F00F
:101F20001FF8002804DA02F063F818482338C7E7DE
:101F3000BB2002F0E9FB002804DB012802D00024CA
:101F4000771E1DE002F054F86FF48B60B8E7BC42D6
:101F500009D1012001F038FF00280EDA02F048F81C
:101F60000A483538ACE7002001F02EFF002804DADB
:101F700002F03EF805483F38A2E72855641CA4B299
:101F8000B442E4D302F034F8002099E7D1FBFFFF1C
:101F900070B50C46054601F0E3FF002803DA02F0B5
:101FA00027F81B4870BDBA2002F0AEFB00281ADBF0
:101FB000012818D0280A02F0A7FB002818DB012806
:101FC00016D0E8B202F0A0FB002816DB012814D0DE
:101FD000204602F099FB002814DB012812D002F001
:101FE00007F8002070BD02F003F80948C01F70BD5B
:101FF00001F0FEFF06480E3870BD01F0F9FF6FF4E6
:10200000836070BD01F0F4FF01481C3870BD000012
:10201000FCFBFFFF70B5002406464FF4163540F276
:102020003F1340F2DF122146204600F006F92C2033
:10203000010708604E60641CAC42FBD370BD10B554
:10204000144640F23F1340F2DF1200F0F6F82C2164
:1020500008070160446010BD2DE9F047DFF8789172
:1020600011214846FFF70CFE0A2000F059FF11210C
:102070004846FFF73BFE0A2000F052FF4FF0404475
:10208000012060720225A572E572242121730A26BF
:1020900066732072D320206000F0A8F800F0A6F844
:1020A00000F0A4F84FF6FF7808EA002700F09EF849
:1020B00040EA070149A0FEF715F9F7202060A920A2
:1020C0006060512060602C20606082206060C020D1
:1020D00020601120606009206060C12020604120E4
:1020E0006060C520206000206060666080206060C5
:1020F000B1202060B020606011206060B4202060BA
:102100006560B6202060656022206060B720206096
:10211000C6206060BE2020600020606004206060F7
:10212000E920206000206060362020600820606088
:102130003A20206055206060E02020600020606030
:1021400007206060102060600920606017206060D8
:102150000B20606041206060892060604B206060DF
:1021600066600C2060600E206060182060601B209C
:1021700060600F206060E120206000206060172018
:1021800060601A206060042060600E20606006209D
:1021900060602F2060604520606043206060656063
:1021A00066600920606032206060362060600F2029
:1021B000606011202060642000F0B2FE29202060C1
:1021C000062000F018F806214846FFF78FFD40462C
:1021D000BDE8F047FFF71EBF00000140204C43441C
:1021E0002049443A25780D0A000000004FF0404095
:1021F000406880B270470821082812D2DFE800F05A
:10220000110406080A0C0E1088210AE0482108E093
:10221000C82106E0282104E0682102E0A82100E0AE
:10222000E8213620420710605160002140F23F1340
:1022300040F2DF120846AFF3008030B54FF0404463
:102240002A252560050A6560C0B26060100A6060DA
:10225000D0B260602B202060080A6060C8B2606065
:10226000180A6060D8B2606030BD00002DE9FE4FF2
:102270000C460546203A2A49D0B201EB0010CDE9C0
:1022800001404FEA131A98464FF00009AAF1010BDA
:102290000298002610F80970380609D55FEA181070
:1022A00003D02049504609680BE01E4802681AE036
:1022B0005FEAC8701BD05FEA181012D01949504667
:1022C000496804FB00B2009105FB00B193B28AB2E9
:1022D00004FB00F105FB0AF089B280B200F04AF875
:1022E00005E01048426821462846FFF7A8FE780618
:1022F000070E641C0198A4B2201A10280CD0761C7A
:10230000F6B2082EC8D309F1010000F0FF09B9F1B7
:10231000100FBDD3BDE8FE8F6D1CADB2019CF2E77E
:10232000425B0000080000202DE9F04F0446804683
:1023300010190D461FFA80FADDE9096B58191FFACA
:1023400080F910270FE0544502D3E819444685B2BE
:102350004D450DD25B4629462046FFF787FF04EB2B
:10236000570084B2761C3278A2F120005E28EAD9A8
:10237000BDE8F08FF0B5151A5F1A6D1C7F1C0024A4
:102380007D43059EFFF759FF2C210807016001E0FE
:102390004660641CAC42FBD3F0BD000030B50F2397
:1023A000C27801780125F2B1144A126801F1E021E6
:1023B00002F4E062C2F5E062120AC2F10404D34002
:1023C0004278A24084781C401443220181F8002402
:1023D000007800F01F018D404009800000F1E020EE
:1023E000C0F8005130BD01F01F0085404809800051
:1023F00000F1E020C0F8805130BD00000CED00E09D
:10240000044A0029116801D0814300E001431160B2
:10241000704700000030004070B514460546C06BA0
:10242000042202EBC402805C322808D1084600F086
:1024300071FDE96B51F83410BDE87040084770BD7C
:1024400010B50446084600F065FD052801D2A4F841
:10245000500010BD70B514460546142A04D2084633
:1024600000F058FD25F8140070BD10B50446A0F822
:102470005A20084600F04EFD002801DC012004E04F
:102480004FF4FA41884200DD0846A4F85C0010BD14
:102490002DE9F041C46B154604EBC5068846B088AB
:1024A000242805D154F83570084600F029FC38601E
:1024B000B088022805D154F83570404600F02AFD56
:1024C0003880B088122805D154F83570404600F0A5
:1024D00021FD3880B088042805D154F83570404675
:1024E00000F018FD3860B088142805D154F8354044
:1024F000404600F00FFD2060BDE8F08170B5044655
:10250000856AB0F9480021290AD034F9462F02EB38
:10251000820205EBC2020244401C6080117070BD53
:102520000028FCDD0121002008E02A5C2B1893F82C
:1025300028309A4200D00021401C00B2B4F9482053
:102540008242F2DC002651B1B4F948002E542046F4
:1025500000F012F8A4F8466085F8286008E0B4F8A6
:10256000460010B1A4F8466002E00120A4F846003D
:10257000A4F8486070BD00002DE9F00F8146806A24
:102580000022354904E0521C12B2835C002B5FD05C
:10259000835C11F823305B07F5D0835C11F823309E
:1025A0009B0755D000248A4601E0641C24B2A11880
:1025B000435C1AF823108907F7D14F1EDFF89C807F
:1025C0000023012500210AE08E18865D58F823C0FB
:1025D0001CF801C0664500D00025491C09B2A14283
:1025E000F2DB0DB11F4603E05B1C1BB2052BE8DBE1
:1025F000A11809B2425C53461AF82220520727D587
:1026000000226FF02F0408E0455C02EB820204EB2D
:1026100042022A44491C12B209B2455C13F8255003
:102620006D07F1D4435C232B12D1491C09B2052F4D
:102630000ED2B9F9443093420ADD002A08DB014486
:102640000648143050F827304846BDE8F00F1847C8
:10265000BDE8F00F704700003C610000C80000209A
:10266000B0F85000022802D04FF48070704700206C
:10267000704700002DE9F0410446B4F95860B4F900
:102680005C70CD21CC235F4D02220020BE4223DBB3
:10269000B4F856604EB9666B3170616B4B70636B0A
:1026A0000C219970636B4021D970B4F95610082938
:1026B00035DBA4F85600A4F858006880A4F85E2022
:1026C000A4F86000B4F85010032901D1A4F8500018
:1026D0004FF48070BDE8F081B4F95E6040F2E937F4
:1026E000BE422EDDB4F85660AEB9B4F8606056B1A3
:1026F000666B3170616B4B70636B8C219970636B8F
:102700003F21D97007E0616B0870616B4870616BA5
:102710008870616BC870B4F95610082908DAB4F9EA
:10272000560054F8341F0144401C60840878D1E7F7
:10273000A4F856006880A4F85E200120A4F8600088
:102740009BE7B4F95610042949DAB4F8560038BBAF
:10275000B4F95A10E06B042202EBC101B4F95A201B
:10276000415C50F8320002290ED0042911D01429FE
:1027700026D0242929D032290FD0B4F9581030F9A5
:10278000110002F0FFFF0AE0B4F9581030F8110010
:1027900003E0B4F9581050F8210003F00BF820645E
:1027A00004F1400034F9561F21F001010144208852
:1027B000C20700F10100208008880BD0000A89E7D9
:1027C000B4F9581050F82100DBE7B4F9581050F86C
:1027D0002100E4E7698801446980C0B27AE7A4F87F
:1027E0005600B4F85800401CA4F85800B4F85E0035
:1027F000401CA4F85E00616B68880871616B000A78
:1028000048713AE7C4000020B0F86610002204299D
:1028100001D1A0F86620B0F86610F9B9B0F96410DB
:10282000B0F9623099421ADAB0F96410C36A0B4405
:10283000491CA0F864101978836B1970B0F9641002
:10284000B0F96230994211DAB0F96410C26A0A44F0
:10285000491CA0F864101178826B517008E0A0F850
:102860006420A0F862204FF480707047816B4A703A
:10287000B0F9661050F8382F0A44491CC185107809
:1028800070470000F8B5044600200090B4F85410DA
:10289000444E91B1B4F95410B4F944209142B4F9C2
:1028A00052102BDD04291CDAB4F9520054F8301F01
:1028B0000144401C60840878F8BDB4F95210002926
:1028C00006DA34F9520F0DEB0001401C2080F2E7CC
:1028D000A4F85200B4F85410491CA4F854103080E5
:1028E0005BE0A4F85200A4F85400B4F85010012999
:1028F00001D1A4F850004FF48070F8BD294A042992
:1029000015883EDAB4F8520018BBB4F95410E06BE5
:102910006FF0030202EBC101B4F95420415C6FF087
:10292000070303EBC202022980580CD004290CD003
:1029300014291ED024291ED0322907D0B0F9000056
:1029400002F020FF04E0008800E0006802F032FF9F
:10295000206404F1400034F9521F21F001010144C8
:102960002088C20700F101002080088805D0000AF5
:10297000F8BD0068E4E70068EAE741193180C0B2B9
:10298000F8BDA4F85200B4F85400401CA4F8540058
:10299000206B0570216B280A48702046FFF772FFF4
:1029A000F8BD0000C40000203EB504463D480021AB
:1029B0000291D0E90020CDE90020B4F84C00A8B184
:1029C000B4F94C0004EB400030F9020CB4F9442097
:1029D0009042B4F94A0017DD04280FDA34F94A0F9F
:1029E00069460144401C208008783EBDB4F94A0085
:1029F00000284CDA34F94A0F02A9F2E724F84A1FFA
:102A000061804FF480703EBD042840DAB4F84A007B
:102A100038BBB4F94C10E06B04EB410131F9021CF6
:102A2000042202EBC101B4F94C20415C04EB4202E8
:102A300032F9022C022950F832000CD004290CD0B3
:102A400014291ED024291ED0322907D0B0F9000045
:102A500002F098FE04E0008800E0006802F0AAFEA0
:102A6000206404F1400034F94A1F21F001010144BF
:102A70002088C20700F10100208006D00888000AE3
:102A80003EBD0068E4E70068EAE708783EBDA4F8C8
:102A90004A10B4F84C00401CA4F84C002046FFF744
:102AA00083FF3EBD3461000010B5802080F31188A3
:102AB000BFF34F8FBFF36F8F02F030FA18B10449A4
:102AC0004FF080500860002080F3118810BD000096
:102AD00004ED00E0024901480860704700E1F50597
:102AE0000000002010B54FF04024204600F01CF8F4
:102AF00001460448FFF702FD2046BDE810400221D0
:102B000000F002B88C530020C2680A43C2607047CC
:102B1000044B0A681B68B3FBF2F202610979816019
:102B2000704700000000002041688907FCD500685C
:102B3000C0B270474FF040214A68D207FCD108600C
:102B40007047490050EAC12018BF04204A0D18BF41
:102B500040F0010040F2FF72B2EB515F08BF40F05D
:102B60000200012808BF05207047000070B50C4620
:102B7000084D03E0294602F031FE641E002CF9DC0A
:102B8000054D002C04DA294602F028FE641CF8E703
:102B900070BD000000002041CDCCCC3D2DE9F047B8
:102BA000844609B1C1F800C000259CF800400CF132
:102BB00001004E4E01E010F8014B16F824703F075B
:102BC000F9D42B2C01D110F8014B2D2C03D110F886
:102BD000014B43F001032B2C01D110F8014B002ACB
:102BE00003DB012A01D0242A05DD09B1C1F800C0A8
:102BF0000020BDE8F08722B1102A15D0022A1BD090
:102C000023E0302C01D00A221FE00278782A07D076
:102C1000582A05D0622A05D0422A03D0082214E09F
:102C2000102203E0022209E0302C0ED10778782F21
:102C300009D0582F07D008E0302C06D10778622F32
:102C400001D0422F01D14478801C4FF0FF39B9FBED
:102C5000F2F7B2465AF824605FEA467801D5303C74
:102C600004E0B40714D0C6F30724373C94420FD2D3
:102C700043F00203BD4202D304D1BC4202D805FB9B
:102C8000024502E043F0040311B110F8014BE1E703
:102C9000401E4FF000449A0703D431B1C1F800C080
:102CA00003E01A0703D5DA0701D0002516E05E0716
:102CB0006FF0004209D41E0710D4DE0702D0A542EF
:102CC00009D80BE0954208D808E01D0701D54D460C
:102CD00004E0DD0701D0254600E0154601B108609B
:102CE000D80700D06D42284683E700003C61000011
:102CF00030380A2801D201207047002070470000B8
:102D0000F8B500210D460E460124274B009109E03D
:102D1000D20606D52D2903D02B2902D00020F8BDDC
:102D20006442401C017853F821205707F0D000235B
:102D30000A226946FFF732FF0746009801782E29DC
:102D400010D1451C00230A2269462846FFF726FFBA
:102D500001460098451B084602F014FD6942FFF742
:102D600005FF054600980178652901D0452906D15F
:102D700000230A226946401CFFF710FF0646012C7B
:102D800038460AD002F0FEFC014685F0004002F011
:102D9000F1FD3146FFF7EAFEF8BD02F0F3FC2946EB
:102DA00002F08AFBF5E700003C61000086B03C4C75
:102DB0004FF4FA793A4B3B4810331A1F111FFEF7B4
:102DC00003FD08B138A065E04FF0FF31206A01F043
:102DD00065FF00285DD0394D4FF47840384E2860AB
:102DE0004FF400503060A06802F03AFB02460B46F8
:102DF00034A102A8FDF782FA51270DF10808CDE9A8
:102E000000871023302219462020FFF78DFA02A9EF
:102E10002EA0FDF767FA4FF4FC6028604FF4807035
:102E200030604FF07C51206902F046FB02F06EFCEE
:102E3000024629A102A8FDF761FACDE90087102317
:102E4000302220211C20FFF76FFA02A923A0FDF7F2
:102E500049FA1F20286004203060E06802F000FB7F
:102E600002460B4617A102A8FDF748FACDE90087F4
:102E70003022102311462020FFF756FA02A91BA08A
:102E8000FDF730FA00231A461946206A01F0AEFD1C
:102E900002E01AA0FDF726FA484601F0DDFA89E7BC
:102EA0008C000020E4520020626D653238302072C0
:102EB00065616420657272210D0A0000080000201F
:102EC0000C00002025302E326600000054656D7025
:102ED0003D2573432C200000253664005072657335
:102EE000733D257350612C200000000048756D3D36
:102EF0002573252552480D0A000000004D757853B2
:102F0000656D4C63642074616B6520657272210D80
:102F10000A00000000230A221946FFF73FBE000006
:102F200004494FF47A720968B1FBF2F14843FEF7A5
:102F300083BE0000000000200A48002101600A4909
:102F400049F640420968B1FBF2F1491E818081884F
:102F50004908C180C1880181018941810121016045
:102F600070470000000003C000000020C0B2FFF75F
:102F7000E1BD4FF080400023036081684160012281
:102F8000C26009210160C1680029FCD00360C260F1
:102F900070470000074800230360816841600122F8
:102FA000C26009210160C1680029FCD00360C260D1
:102FB00070470000001000407CB54FF47C400021B9
:102FC00000904F23F0220846FFF7D4F94FF4014058
:102FD00040F2DF1500904F232A460021F020FFF732
:102FE000C9F92B494FF6FF709F2308604FF400503A
:102FF00000902A4650210020FFF7BCF9502425A05C
:10300000CDE900041023202219460020FFF78CF997
:1030100021A0CDE900041023202219465020FFF7FB
:1030200083F94FF480700090EF232A46A0210020FE
:10303000FFF7A0F919A0CDE90004202210231146C2
:103040000020FFF771F916A0CDE90004202210231B
:1030500011465020FFF768F90420009040F23F131A
:103060002A46F0210020FFF785F90EA0CDE90004E3
:103070001023202230210020FFF756F90AA0CDE9C5
:1030800000041023202230215020FFF74DF97CBD91
:1030900008000020544D50004300000050524500ED
:1030A00050610000522E48002500000001264FF616
:1030B000FF7A002754463546DFF828B1DFF828911B
:1030C00004E04A4800F02EFF88F80100DFF8208174
:1030D00098F800008007F4D503E041784348FFF7F3
:1030E0000DFA98F800104046C906F6D501F010FF19
:1030F000804604215846FEF7B8FD00B94746052131
:103100005846FEF7B2FD40EA44000404240C61D0A6
:10311000544500D101251EB1A8EB0701C9F80010E4
:10312000D9F800000A22B0FBF2F102FB1103314989
:103130000B70B0FBF2F3B3FBF2FC02FB1C334B70E1
:103140006423B0FBF3F3B3FBF2FC02FB1C338B7084
:103150004FF47A73B0FBF3F3B3FBF2FC02FB1C33C6
:1031600043F01003CB7042F21073B0FBF3F34FF057
:10317000060CB3FBFCF80CFB18330B714EF6602306
:10318000B0FBF3F3B3FBF2F802FB183343F0100388
:103190004B71194BB0FBF3F3B3FBFCF80CFB18338A
:1031A0008B71164BB0FBF3F3B3FBF2FC02FB1C324A
:1031B00042F01002CA71124A91884B00B0FBF3FC36
:1031C00003FB1C00401A00D540421081012001F091
:1031D00043F97BE7012D01D116B1002600259AE7BE
:1031E0000126FBE7000001408C0000208C530020EA
:1031F000000002C0000001C0C027090080EE3600B8
:10320000000003C01CB52348FEF720FD00F0F6F8CF
:1032100001F00CF820A0FDF765F800F069F80090C7
:1032200000B1FEE701F020F8FFF786FE00F04AFE4D
:10323000FEF712FFFFF7C0FEFEF7CCFDFEF7EEFB38
:103240001B490220CDE900010023802219A11D485D
:1032500001F01EFE16490520091DCDE900010023DD
:10326000802219A11C4801F013FE114901200831E8
:10327000CDE900010023802218A11C4801F008FEBE
:10328000012001F01DFB0A491439086201F0BAF966
:10329000FEE70000000001405341355A333020431F
:1032A0004D332B4650474120544553540D0A0000DE
:1032B000A0000020746F756368526566726573685C
:1032C00000000000F5400000424D453238305265A4
:1032D0006672657368000000AD2D00006C65645275
:1032E0006566726573685461736B0000AD300000F1
:1032F0002DE9F0474FF02044132600254FF48011AC
:103300002046FDF7D2F9AA2000214FF0010C4FF41E
:103310000022B71C09E0A0545208030602D50CEBAA
:10332000400000E04000C0B2491CB942F3D30CFA9F
:1033300006F1AA200B4600220EE014F80180804519
:1033400000D06D1C49085FEA006802D50CEB400014
:1033500000E04000C0B2521CBA42EED34AF6AA299D
:103360001946484600224FF6FF780AE060524908A5
:10337000070403D50CEB400080B201E008EA4000EE
:10338000521CB242F2D31946484600220DE0675A59
:10339000874200D06D1C4908070403D50CEB4000A0
:1033A00080B201E008EA4000521CB242EFD34FF075
:1033B000AA38002219464046761E08E060504908A7
:1033C000002802DA0CEB400000E04000521CB24240
:1033D000F4D300200DE0E158414500D06D1C5B089E
:1033E000B8F1000F02DA0CEB480801E04FEA480898
:1033F000401CB042EFD32846BDE8F08738B50D49F0
:1034000008684FF6FF0210400B4A10430860002086
:103410008DF8000001248DF801408DF802008DF830
:1034200003406846FEF7BAFF4FF0E020C0F8804244
:1034300038BD00000CED00E00000FA052DE9F04772
:10344000224E0F460446F568D6F83490D6F83880F8
:103450003168002081F851003068001D00F016FF2F
:1034600038B9306890F82C100120884031698143C8
:103470003161601C15D1A7B1154932684868906068
:1034800033688268DA6032688368121D5A60326875
:10349000121D8260306841610868401C0860BDE808
:1034A000F08730682C44AC424460316805D2404615
:1034B000BDE8F047091D00F011BF4846091D00F0A6
:1034C0000DFFB06A8442EAD2B462E8E73800002017
:1034D000645200202DE9F041044600F017FF354EFC
:1034E000B068401CB0603068334F10B1706938B3B9
:1034F0002CE03460B068012828D10025C5EBC50058
:1035000007EB800000F0DAFE6D1C082DF6D32A4888
:10351000E03000F0D3FE2848FC3000F0CFFE274812
:1035200000F0CCFE25481C3000F0C8FE234838309F
:1035300000F0C4FE2148383870631C30B06305E0E9
:103540003068E16AC06A884200D83460706A01213C
:10355000401C7062E06A3269814011433161C0EB06
:10356000C00007EB80004068A0608168E16082686D
:10357000211D51608160E06AC0EBC00007EB800153
:10358000616157F82010491C47F8201000F0DEFE5A
:10359000706900280CD03068E16AC06A884207D29E
:1035A00007494FF080500860BFF34F8FBFF36F8F14
:1035B000BDE8F08138000020145100202C5200207A
:1035C00004ED00E010B500F0A1FE0C4C206880B9BD
:1035D0000B4800F073FE0A481C3000F06FFE0848EC
:1035E000E0601C302061002210210A2001F07AF9ED
:1035F0002060BDE8104000F0A9BE00007800002067
:103600008052002070B50C4D0C4E11E000F07EFE93
:10361000F068C468201D00F039FEA868401EA8604C
:103620006868401E686000F091FE204600F051F886
:1036300068680028EAD170BD380000204852002098
:1036400030B4026D0B46002A0BD0C1681144C16032
:103650008468A14201D30168C16030BC1846FCF700
:10366000B5BF30BC70472DE9F041856C1746044664
:103670000026026D82B1C7B1E068FCF7A7FFE168E0
:10368000206D091AE1602268914202D2A168081AED
:10369000E060022F16D017E02068A8B9A06801F0FA
:1036A000D3FC06460020A0600EE06068FCF78EFFA9
:1036B000216D606808446060A168884204D3206876
:1036C000606001E005B16D1E6D1CA5643046BDE86B
:1036D000F08110B50446006B00F04CFE2046BDE8BA
:1036E000104000F047BE00000E484FF4A0414207D2
:1036F00006D0C01D0B4920F00700411AC1F5A041BA
:10370000094B00220144C3E900020839143B21F0AF
:10371000070119604A600A600A1AC0E900129A603B
:103720005A6070471401002024000020074E4FF01B
:103730008054074DFFF766FF30680128FAD92C60E6
:10374000BFF34F8FBFF36F8FF4E7000014510020D9
:1037500004ED00E02DE9F0470D46DDE90984174648
:10376000824691009946089EA522206BFCF773FFC4
:103770006FF00301206B01EB8701084420F007077D
:10378000780707D0802080F31188BFF34F8FBFF3F5
:103790006F8FFEE765B100202218295C82F8341093
:1037A000295C11B1401C1028F6D3002084F8430096
:1037B000082E07D3802080F31188BFF34F8FBFF30B
:1037C0006F8FFEE7E662201D666400F084FD04F161
:1037D000180000F080FD2461C6F108006462A06159
:1037E0004A465146384600F0DDFA2060B8F1000F35
:1037F00001D0C8F80040BDE8F087000030B51A4994
:1038000000E011460A688242FBD3174B99420DD063
:10381000164B994202D3164B994207D9802080F368
:103820001188BFF34F8FBFF36F8FFEE74B685C18B3
:10383000844203D1406818444860084643681C1815
:10384000944209D1084C143C2468A24209D0526821
:103850001A4442600A6812680260814200D008601F
:1038600030BD0460F9E700002400002014010020AE
:103870001351002070B5002441600B4D006191424E
:1038800006D8D11A8269914206D2011D286907E043
:103890009A4203D2994201D3012403E0011DE86852
:1038A00000F01CFD204670BD7800002010B50446D5
:1038B00000F02CFDA06C20B1002400F047FD204654
:1038C00010BD0124F9E7F1B500260098846D5CB1C4
:1038D000A16CE06C81420FD3802080F31188BFF38C
:1038E0004F8FBFF36F8FFEE7802080F31188BFF307
:1038F0004F8FBFF36F8FFEE7A16C814212D294F914
:103900005550002269462046FFF7ADFE0646681C6A
:103910000AD000F0CDFC854204D27F2D0FD06D1C63
:1039200084F855503046F8BDE06A0028FAD004F11A
:103930002C0001F03FFC0028F4D00126F2E78020A3
:1039400080F31188BFF34F8FBFF36F8FFEE7000046
:1039500070B506460D480D46C068C068C468201D95
:1039600000F094FC94F82400410705D52A4631461E
:10397000204600F0C3F803E000F0FE0084F82400C5
:103980002046216ABDE8704008470000780000200A
:1039900070B586B000200090019002903B4E0390DD
:1039A0006AE00098002806DADDE90201019A9047F2
:1039B0000098002860DB029C606910B1201D00F0B7
:1039C00065FC04A800F0BCF8054600980A2853D20C
:1039D000DFE800F0520505282E460505282E94F84C
:1039E00024002A4640F0010084F824000198A169CF
:1039F000034601442046FFF73DFF40B394F82400FE
:103A0000410707D50198A1692A460144204600F0E4
:103A100075F803E000F0FE0084F82400216A2046D7
:103A2000884729E014F8240F00F0FE00207023E0FE
:103A300094F8240040F0010084F824000198A0616B
:103A400030B141192B461A462046FFF713FF13E009
:103A5000802080F31188BFF34F8FBFF36F8FFEE795
:103A600094F82400810703D4204600F083FC03E08F
:103A700000F0FE0084F8240000226946306801F05E
:103A800071F800288DD106B070BD000078000020CC
:103A9000F8B50D46064600F0FFFD684600F050F808
:103AA0000446009810B101F0F5FBF8BD1148ADB126
:103AB00001690968D9B10025311B2A46006800F068
:103AC000A9FC01F0E7FB0028EFD10B494FF0805033
:103AD0000860BFF34F8FBFF36F8FF8BDA642EBD8DE
:103AE00001F0D8FB21463046FFF732FFF8BD012533
:103AF000E2E700007800002004ED00E070B5164613
:103B00000C46054604E0A869296A0444284688470B
:103B1000A8692346011932462846FFF7ABFE002864
:103B2000F1D170BD0548416B096821B1416BC9688D
:103B30000968816270474FF0FF31FAE738000020D2
:103B40002DE9F041064601F0E3F90E4D0446A86860
:103B5000844214D24FF0FF3704E0C0683946006851
:103B6000FFF7F6FEE86801680029F6D12969C5E982
:103B70000310012030602046AC60BDE8F0810020D9
:103B8000F8E700007800002008484068401C4FF02B
:103B9000800080F3118804D0BFF34F8FBFF36F8F85
:103BA000FEE7BFF34F8FBFF36F8FFEE72C000020BF
:103BB000084CE068016839B1002139B10020FFF7F5
:103BC00067FFFFF7E5FEF4E70121F6E7C06800684C
:103BD000F5E70000780000202DE9F041044600F0F0
:103BE00095FB94F9555004F12C060FE0A06D18B127
:103BF0002046FFF768FE04E0E06A48B1304601F075
:103C0000D9FA08B100F056FC6D1E6DB2002DEDDC46
:103C10004FF0FF3684F8556000F098FB00F076FB1B
:103C200094F9545004F1100709E0206948B138466E
:103C300001F0C0FA08B100F03DFC6D1E6DB2002D20
:103C4000F3DC84F85460BDE8F04100F07FBB000075
:103C50002DE9F04104004FF000050FD014F1090FD9
:103C60000BD80834600709D004F00700C0F1080041
:103C7000C1438C4201D8044400E0002400F00CFD54
:103C8000404E306808B9FFF72FFD002C6ADD7768D9
:103C9000BC4267D83B48DFF8F0C0143001460968E1
:103CA000614502D3394B994215D9802080F31188A0
:103CB000BFF34F8FBFF36F8FFEE708461146624593
:103CC00001D3994207D9802080F31188BFF34F8F29
:103CD000BFF36F8FFEE74A68A24202D20A68002A49
:103CE000EBD1326891423DD005680835654501D376
:103CF0009D4207D9802080F31188BFF34F8FBFF317
:103D00006F8FFEE70A6802604A68A24207D28020ED
:103D100080F31188BFF34F8FBFF36F8FFEE7131B44
:103D2000102B10D90A195FEA427C07D0802080F35B
:103D30001188BFF34F8FBFF36F8FFEE753604C6066
:103D40000368136002604A68B81A7060B3689842EA
:103D500000D2B06042F00040486000200860F06887
:103D6000401CF06001F096FA680707D0802080F3CD
:103D70001188BFF34F8FBFF36F8FFEE72846BDE872
:103D8000F0810000100000201401002013510020D9
:103D900003480068002802D0816C491C8164704788
:103DA0003800002010B5031F4FF080741C601B1FEB
:103DB00021F001011960191F024B0B6014394038C2
:103DC0000A6010BD893B00002DE9F0471D4E4FF4FD
:103DD000803881460025C6F8148007244FF6FF7A04
:103DE0004FF40047FFF7C5F87761FFF7C2F800F01E
:103DF000F5F980B100F006FA0AEA450140EA01054A
:103E00003761FFF7B6F8641EECD5B9F1000F4046F4
:103E100005D0706104E06FF0A100BDE8F08730616B
:103E2000FFF7A7F87761FFF7A4F800F0EBF9484532
:103E300002D06FF0B400F0E73761FFF79AF828B2CC
:103E4000EBE70000000001402DE9F0471C4E4FF465
:103E5000001881460025C6F8148007244FF6FF7A23
:103E60003701FFF797F87761FFF794F800F0C0F992
:103E700080B100F0D1F90AEA450140EA0105376155
:103E8000FFF788F8641EECD5B9F1000F404605D065
:103E9000706104E06FF09700BDE8F0873061FFF7D4
:103EA00079F87761FFF776F800F0B6F9484502D067
:103EB0006FF0AA00F0E73761FFF76CF828B2EBE784
:103EC0000000014015481449C163002120F8021B7D
:103ED00042F20F7220F8262B104A783A02605032D4
:103EE00042600F4A82600832C260121F02610A22D9
:103EF0008283C1830184818441848161C18401857D
:103F000081854185C185018641868186C18601877B
:103F100041878187C18770473C6500008C53002032
:103F20000401002070B50446B0F94E000B4D55F861
:103F3000201020468847010A0ED0B4F8620008B16C
:103F4000042001E0B4F85000A4F84E00B4F94E008B
:103F500055F8201020468847C0B270BDF000002000
:103F600070B5104C4FF400452561FFF702F86E0064
:103F70006661FEF7FEFF6561FEF7FBFF00F02EF9BC
:103F800050B100F03FF950B12661FEF7F2FF256114
:103F9000FEF7EFFF002070BD6FF0630070BD6FF0A3
:103FA000670070BD0000014070B5104C4FF48015E3
:103FB0002561FEF7EFFF66016661FEF7EBFF6561C5
:103FC000FEF7E8FF00F014F950B100F025F950B108
:103FD0002661FEF7DFFF2561FEF7DCFF002070BDE4
:103FE0006FF0590070BD6FF05D0070BD00000140C2
:103FF00070B50D4C4FF480352561FEF7BAFF68109F
:104000006061FEF7B6FF6561FEF7B3FF00F0E6F80A
:1040100020B100F0F7F820B1002070BD6FF0C500AE
:1040200070BD6FF0C90070BD0000014070B50D4C4F
:104030004FF400152561FEF7ADFF20016061FEF72A
:10404000A9FF6561FEF7A6FF00F0D2F820B100F0ED
:10405000E3F820B1002070BD6FF0BB0070BD6FF0C1
:10406000BF0070BD000001400D484FF400414161A8
:1040700049004161416821F400414160416821F4F7
:10408000803141600021800301600649064A0968C9
:10409000B1FBF2F18160816841600121C16070472C
:1040A0000000014000000020400D03000E484FF4C6
:1040B0008011416141014161416821F480114160F9
:1040C000416821F4001141604FEAB04000210160D5
:1040D0000649074A0968B1FBF2F1816081684160D5
:1040E0000121C16070470000000001400000002075
:1040F000400D030008B52C4E2C4F2D4D2A48FDF7DE
:104100002BFE00284BD196F82900002847D0B08814
:10411000C0F5F074204601F035FB264901F034FA71
:1041200025496860884202DD4FF07E5009E039463B
:10413000884201DA002004E001F01CFC1F4901F074
:104140004DFB68604FF0FF31286A00F0A7FDC8B151
:104150004FF47C4000210090A2B24F230846FEF7A6
:1041600009F94FF401400090A0B24F2340F2DF1252
:104170000021FEF7FFF800231A461946286A00F0CE
:1041800035FC02E00EA0FCF7ADF8134CA08801F05E
:1041900011FB696801F022FB01F0D4FAE0800A20EB
:1041A00000F05AF9AAE70000B8520020CDCCCC3D6F
:1041B0008C0000200000F0436666663F0000A03FD0
:1041C0004D757853656D4C63642074616B65206533
:1041D0007272210D0A000000000003C0034800684D
:1041E000000401D501207047002070470000014005
:1041F00003480068C00201D50120704700207047C5
:104200000000014003480068C00301D50120704749
:10421000002070470000014003480068800201D57B
:104220000120704700207047000001401CB50021AC
:104230000820FEF7E5F80B4C012204212046FDF78B
:104240000FFD012208212046FDF70AFD4FF4E13061
:10425000009003208DF8040069464FF04020FEF7DF
:1042600057FC1CBD000001400648002101700649B2
:104270004FF461220968B1FBF2F1491E418001212E
:1042800001707047000002C000000020D0E9013238
:1042900001699A60D0E901235A604A68824201D1DB
:1042A00082684A60002202610868401E0860704708
:1042B00001488068704700003800002000F10801C4
:1042C0004FF0FF32C0E90112C1600161002141617C
:1042D00081610160704700210161704730B50C6851
:1042E000621C02D000F1080202E0026904E01A46F2
:1042F00053681D68A542FAD953684B6099608A607B
:10430000516008610168491C016030BD802080F364
:104310001188BFF34F8FBFF36F8F0A494868401C65
:10432000486001280CD10848006810F0FF0F07D042
:10433000802080F31188BFF34F8FBFF36F8FFEE7AC
:10434000704700002C00002004ED00E00849486898
:1043500028B1401E486001D180F311887047802049
:1043600080F31188BFF34F8FBFF36F8FFEE700001C
:104370002C00002070B5002838D0A0F108041C489B
:10438000844202D31B48844207D9802080F31188DD
:10439000BFF34F8FBFF36F8FFEE76068002807DB26
:1043A000802080F31188BFF34F8FBFF36F8FFEE73C
:1043B000216839B1802080F31188BFF34F8FBFF39C
:1043C0006F8FFEE720F00040606000F065F90A4D55
:1043D00060686968084468602046FFF70FFA28693A
:1043E000401C2861BDE8704000F054BF70BD000063
:1043F0001401002013510020100000204FF0E02095
:104400000021016181610249416107210161704719
:104410009F86010070B515460E460446FFF776FFED
:1044200094F954100020491C01D184F8540094F9E7
:104430005510491C01D184F85500FFF787FFA06C87
:1044400028B92A46314604F12C0000F051F82046E4
:10445000BDE87040FFF7C0BB10B5020015D000F0FA
:104460001BF90E49096B012907D0802080F31188C0
:10447000BFF34F8FBFF36F8FFEE700211046FEF7AB
:10448000DDFF00F007FF002807D105494FF08050FD
:104490000860BFF34F8FBFF36F8F10BD380000204F
:1044A00004ED00E002490A6A0260C9684160704791
:1044B00038000020014901200860704754000020A6
:1044C00010B50C4650B1094909681831FFF706FFCD
:1044D0002046BDE810400121FEF7B0BF802080F3E8
:1044E0001188BFF34F8FBFF36F8FFEE738000020B6
:1044F000F0B40C46D0B1114B41681D68E9618D687C
:104500001E6835621D688E68183575601D6818351F
:104510008D60196888620168491C01600AB14FF01A
:10452000FF342046F0BC1146FEF788BF802080F3A0
:104530001188BFF34F8FBFF36F8FFEE73800002065
:1045400070B5040058D0A26CA2B1606C884200D350
:104550000146E06A88424FD0012A4DD1274D2A6892
:1045600094420FD1802080F31188BFF34F8FBFF3A7
:104570006F8FFEE7802080F31188BFF34F8FBFF36A
:104580006F8FFEE7E162A269002A02DBC1F1080138
:10459000A1611B4EC0EBC000616906EB8000814247
:1045A0002AD1201DFFF772FE012130B994F82C00AA
:1045B0002A6901FA00F082432A61E06A2A6981408F
:1045C00011432961C0EBC00006EB80004068A06089
:1045D0008168E1608268211D51608160E06AC0EB02
:1045E000C00006EB80006061E06AC0EBC00056F8D6
:1045F0002010491C46F8201070BD00003800002033
:104600001451002070B586B0002002AA1EA1095CDA
:10461000115411B1401C1028F8DB00241C4E254613
:1046200006EB8401CDE900511A480023802202A93B
:1046300000F02EFC10B1641C012CF1DB144C3C3C4E
:10464000012803D100F0CCFE012802D0401C12D07A
:104650000EE0802080F31188BFF34F8FBFF36F8F80
:104660004FF0FF30A06201206061E56000F0CEF8FD
:10467000E06A06B070BD802080F31188BFF34F8FD1
:10468000BFF36F8FFEE7000049444C450000000077
:10469000740000202D3700000248016B491C0163A3
:1046A0007047000038000020154A116B02F11C0011
:1046B00011B10121016070470021016010691149A9
:1046C000B0FA80F0C0F11F00C0EBC00051F82030FC
:1046D00073B101EB800000F1080341684968416053
:1046E000994201D1C1684160C86810601068704784
:1046F000802080F31188BFF34F8FBFF36F8FFEE7E9
:1047000038000020145100202DE9F0471E4E81464C
:1047100007244FF0010A4FF480384FF400470AFA9B
:1047200004F010EA090F01D0012500E00025404601
:104730000DB1706100E03061FEF71BFC7761FEF7A0
:1047400018FCFFF74BFD38B1FFF75CFD854206D042
:104750006FF08700BDE8F0876FF08200FAE73761FD
:10476000FEF707FC641EDAD5C6F81480FEF701FCDC
:104770007761FEF7FEFBFFF745FD04463761FEF764
:10478000F8FB20B2E6E70000000001402DE9F04709
:104790001D4E072481464FF0010A4FF400183701DF
:1047A0000AFA04F010EA090F01D0012500E0002503
:1047B00040460DB1706100E03061FEF7EBFB7761C0
:1047C000FEF7E8FBFFF714FD38B1FFF725FD854242
:1047D00006D06FF07D00BDE8F0876FF07800FAE753
:1047E0003761FEF7D7FB641EDAD5C6F81480FEF7F2
:1047F000D1FB7761FEF7CEFBFFF70EFD0446376174
:10480000FEF7C8FB20B2E6E7000001403EB52949AB
:104810000025019508788DF80800FF2008700878B9
:104820008DF800009DF80000234C10F080002070EF
:104830000CD09DF80000C043000616D5802080F300
:104840001188BFF34F8FBFF36F8FFEE7802080F397
:104850001188BFF34F8FBFF36F8FFEE7401C0190AD
:104860009DF8000040008DF800009DF80000000653
:104870000198F3D408281AD0C0F10700A060207A6C
:10488000000200F4E060A0609DF8080008700B488A
:10489000016841F47F010160016841F07F410160DE
:1048A000FFF7ACFD6560FBF7C1FC00203EBDA560D5
:1048B000E5E7000000E400E02C00002020ED00E02F
:1048C00010B502460021012000F00CF8041E07D0AC
:1048D0000021816001600B460A46C16000F086F845
:1048E000204610BD70B50E4605001FD04FF0FF30BA
:1048F000B0FBF5F0B04219D305FB06F010F15D0FE7
:1049000014D85C30FFF7A4F904000CD004F15C006B
:1049100056B12060C4E913562046012100F00EF87C
:1049200000212046A16570BD2460F3E7802080F35C
:104930001188BFF34F8FBFF36F8FFEE72DE9F04172
:104940000E4604004FF001052CD0E06C90B3AF1E72
:10495000B7FBF0F1206D81423DD3FFF7D7FCD4E9DE
:104960001320216802FB0011A1600021A1642168CD
:1049700061600A46D4E91301401E00FB0121204674
:10498000E16000F8547F477004F110009EB1FFF71A
:1049900095FC04F12C00FFF791FCFFF7D7FC2846AB
:1049A000BDE8F081802080F31188BFF34F8FBFF303
:1049B0006F8FFEE70FE021690029EED000F0FAFBCF
:1049C0000028EAD008494FF080500860BFF34F8FAD
:1049D000BFF36F8FE1E7802080F31188BFF34F8F23
:1049E000BFF36F8FFEE7000004ED00E02DE9FF4FFD
:1049F00083B01F468B4604004FF0000603D0BBF186
:104A0000000F08D011E0802080F31188BFF34F8F92
:104A1000BFF36F8FFEE7206D38B1802080F31188DF
:104A2000BFF34F8FBFF36F8FFEE7022F0AD1E06C09
:104A3000012807D0802080F31188BFF34F8FBFF388
:104A40006F8FFEE700F056FADFF814914FF0000A7E
:104A50004FF0805848B9059838B1802080F311880C
:104A6000BFF34F8FBFF36F8FFEE7FFF74FFCA06CD4
:104A7000E16C884205D3022F03D0059818B32EB3FA
:104A800028E0A56C3A4659462046FEF7ECFDA16D9C
:104A900031B1022F00D185B92046FEF714FF05E0A1
:104AA000E16A19B104F12C0000F084FB28B1C9F8C7
:104AB0000080BFF34F8FBFF36F8FFFF747FC0120DC
:104AC00007B0BDE8F08FFFF741FC21E06846FFF733
:104AD000E9FC0126FFF73AFCFFF7DEFDFFF716FCC5
:104AE00094F95400401C01D184F854A094F9550065
:104AF000401C01D184F855A0FFF728FC05A96846A1
:104B000000F080F930B12046FFF766F800F0C2FBF4
:104B10000020D5E7FFF7FAFBA06CE16C884201D1D9
:104B2000012500E00025FFF711FC95B104F110000C
:104B30000599FFF7C5FC2046FFF74EF800F0AAFBE9
:104B4000002892D1C9F80080BFF34F8FBFF36F8F59
:104B50008BE72046FFF740F800F09CFB85E700005C
:104B600004ED00E02DE9F74783B08A4604004FF0DA
:104B7000000603D0BAF1000F08D011E0802080F3C6
:104B80001188BFF34F8FBFF36F8FFEE7206D38B1F1
:104B9000802080F31188BFF34F8FBFF36F8FFEE744
:104BA00000F0A8F9DFF8F09000274FF0805848B9DE
:104BB000059838B1802080F31188BFF34F8FBFF381
:104BC0006F8FFEE7FFF7A2FBA56CC5B151462046EB
:104BD000FEF736FD6D1EA564206950B104F110008A
:104BE00000F0E8FA28B1C9F80080BFF34F8FBFF397
:104BF0006F8FFFF7ABFB012006B0BDE8F08705988B
:104C000008B11EB106E0FFF7A1FB27E06846FFF7F9
:104C100049FC0126FFF79AFBFFF73EFDFFF776FB05
:104C200094F95400401C01D184F8547094F9550053
:104C3000401C01D184F85570FFF788FB05A9684630
:104C400000F0E0F8002820460AD0FEF7C5FF00F08B
:104C500021FB2046FEF72AFE0028B3D00020CBE738
:104C6000FEF724FE90B104F12C000599FFF728FC13
:104C70002046FEF7B1FF00F00DFB0028A2D1C9F8D5
:104C80000080BFF34F8FBFF36F8F9BE72046FEF787
:104C9000A3FF00F0FFFA95E704ED00E02DE9F343F0
:104CA0004FF0000583B00400A94609D0206D78B10B
:104CB000802080F31188BFF34F8FBFF36F8FFEE723
:104CC000802080F31188BFF34F8FBFF36F8FFEE713
:104CD00000F010F9DFF8288100264FF0805748B91E
:104CE000049838B1802080F31188BFF34F8FBFF351
:104CF0006F8FFEE7FFF70AFBA06CC8B1401EA064EF
:104D0000206810B9FFF744F8A060206950B104F1A1
:104D1000100000F04FFA28B1C8F80070BFF34F8FB1
:104D2000BFF36F8FFFF712FB012005B0BDE8F083E2
:104D3000049808B11DB106E0FFF708FB5EE0684685
:104D4000FFF7B0FB0125FFF701FBFFF7A5FCFFF71D
:104D5000DDFA94F95400401C01D184F8546094F9B0
:104D60005500401C01D184F85560FFF7EFFA04A903
:104D7000684600F047F80028204614D0FEF72CFFC4
:104D800000F088FA2046FEF791FD0028B2D0B9F174
:104D9000000F33D0FFF7BAFAE06A50B3A06B006897
:104DA000C0F1080126E0FEF781FDE0B1206838B9C6
:104DB000FFF7ACFAA06800F0A3F98146FFF7C6FA46
:104DC00004F12C000499FFF77BFB2046FEF704FF5B
:104DD00000F060FA00288DD1C8F80070BFF34F8F43
:104DE000BFF36F8F86E72046FEF7F6FE00F052FA1B
:104DF00080E70021A068FFF7A3FB9DE7002094E770
:104E000004ED00E02DE9F0410D4604000FD0B5B1EE
:104E1000FFF77CFA1D4EF16863683068CA1A0027F4
:104E200090F8510098B1306880F8517028E08020E7
:104E300080F31188BFF34F8FBFF36F8FFEE78020A1
:104E400080F31188BFF34F8FBFF36F8FFEE72868A1
:104E5000B0F1FF3F09D0D4F800C0366AB44506D09F
:104E60008B4204D801242F600BE0002409E090421B
:104E700005D9801A28602046FFF714FBF5E72F605C
:104E80000124FFF763FA2046BDE8F08138000020D6
:104E90002DE9FF5F8346DDE90E8716468A4699466F
:104EA0009000FEF7D5FE050018D05420FEF7D0FE86
:104EB00004000FD05421FBF7F8FB25630021CDE956
:104EC0000241CDE900874B46324651465846FEF72F
:104ED00041FC04E02846FFF74DFA00E000242000E2
:104EE00005D0FEF7F7FA012004B0BDE8F09F4FF0BF
:104EF000FF30F9E70548416919B1006B18B100208E
:104F000070470120704702207047000038000020E1
:104F10000148C06870470000380000202DE9F041CA
:104F2000474E0025306B28B1B069401CB06128465F
:104F3000BDE8F081F468641CF46013D1706B006804
:104F400038B1802080F31188BFF34F8FBFF36F8F8C
:104F5000FEE7706BB16B7163B063306A401C306206
:104F6000FEF7E0FDB06ADFF8DCE084420BD34FF0DF
:104F7000000C706B0068B0B1706BC068C1684868A5
:104F8000844213D2B0623068C06AC0EBC0005EF8E1
:104F90002000012800D9012529481C30006800287C
:104FA000C5D00125C3E74FF0FF30EBE7D1E902326E
:104FB00048699A60D1E902235A6043680A1D934206
:104FC00001D1CB684360C1F814C003685B1E036065
:104FD000886A88B1D1E907379F60D1E907377B60DC
:104FE000476801F118039F4201D10B6A4360C1F881
:104FF00028C003685B1E0360C86A012337698340C9
:105000003B433361C0EBC0000EEB8000406888601A
:105010008368CB6083685A608260C86AC0EBC00056
:105020000EEB80024A615EF82020521C4EF82020D0
:10503000C86A3168C96A88429BD9012599E700008E
:10504000380000201451002070B504004FF000001B
:1050500050D0294D29688C4207D0802080F31188D8
:10506000BFF34F8FBFF36F8FFEE7A16C69B1491E8D
:10507000A164636CE26A9A423CD000293AD1201DB7
:10508000FFF704F9012140B10EE0802080F3118880
:10509000BFF34F8FBFF36F8FFEE794F82C002A69A0
:1050A00001FA00F082432A61606CE062C0F10800FE
:1050B000A061E06A2A698140114329610F4AC0EB6F
:1050C000C00002EB80004068A0608168E1608368F6
:1050D000211D59608160E06AC0EBC00002EB8000D6
:1050E0006061E06AC0EBC00052F82010491C42F831
:1050F0002010012070BD0000380000201451002055
:1051000070B504004FF0000048D0284DE16A2A68CD
:10511000D26A914243D2A069002804DB2868C06AA1
:10512000C0F10800A061E06A214EC0EBC0006169D7
:1051300006EB800081422DD1201DFFF7A7F8012149
:1051400030B994F82C002A6901FA00F082432A61F0
:105150002868C06AE0622A69814011432961C0EB76
:10516000C00006EB80004068A0608168E160826852
:10517000211D51608160E06AC0EBC00006EB800039
:105180006061E06AC0EBC00056F82010491C46F888
:10519000201002E02868C06AE062012070BD616CE6
:1051A0002A68D26A9142F8D370BD0000380000200E
:1051B0001451002070B5C068C06860B3D0E90732F0
:1051C000816A9A60D0E907235A604B6800F118029F
:1051D000934201D1036A4B60002585620B682A4C1B
:1051E0005B1E0B60216B0123E9B1284D6968C16129
:1051F0008E6806628E6872608A6085622968491CC2
:105200002960C06A2168C96A88423BD91E490120C9
:105210001C310B6070BD802080F31188BFF34F8F6D
:10522000BFF36F8FFEE7D0E902624169B260D0E957
:10523000022672604E68021D964201D1C6684E6019
:1052400045610D686D1E0D60C16A266903FA01F59E
:10525000354325610E4DC1EBC10105EB8101496864
:1052600081608E68C6608E6872608A60C16AC1EBB8
:10527000C10105EB8102426155F82120521C45F81D
:105280002120BEE7002070BD380000202C520020F5
:10529000145100202DE9F05F0024A246FFF736F8F4
:1052A0004B4F0025386B28B1386B401E3863386B84
:1052B00040B187E0802080F31188BFF34F8FBFF3A8
:1052C0006F8FFEE7B868424E42491C364FF0000926
:1052D0004FF00108002875D08B46DBF80010E1B3D1
:1052E000DBF80C00C468D4E90721A06A9160D4E916
:1052F00007125160426804F118018A4201D1216A03
:105300004160C4F8289001684A46491E0160D4E90A
:10531000023160699960D4E9021359604368211D24
:105320008B4201D1E3684360626102684346521ECA
:105330000260E06AD7F810C008FA00F242EA0C02F4
:105340003A61254AC0EBC00002EB80004068A060D3
:10535000D0F808C0C4F80CC000E017E0D0F808C0CE
:10536000CCF804108160E06AC0EBC00002EB800161
:10537000616152F82010491C42F82010E06A396837
:10538000C96A8842A9D946F82530A6E70CB1FEF7CC
:10539000C9FBBC6944B1FFF7C1FD08B146F82580DF
:1053A000641EF8D1C7F8189056F8250050B1386837
:1053B0004FF0010A09494FF080500860BFF34F8F4A
:1053C000BFF36F8FFEF7C2FF5046BDE8F09F0000AD
:1053D000380000202C5200201451002004ED00E081
:1053E0001CB5FEF7EFF80C48006860B10A490720C9
:1053F000091DCDE900010023802208A10948FFF71B
:1054000047FD002807D1802080F31188BFF34F8F1C
:10541000BFF36F8FFEE71CBD78000020546D722033
:1054200053766300B13B000010B500290AD008781C
:10543000002807D005487844FBF774FD002801D008
:10544000002010BD0248784410BD00006612000024
:105450005E1200000808A0F500114FEA3101704704
:1054600043004FEAD30C4FEA3C0C43401FBF4007B8
:105470000CF1605113F0FE4F70471CF0006F03D128
:1054800000200CF0004170470CF0004343EA5070DC
:1054900010B540EACC0000F022FA00BF00000092F4
:1054A0004FEA0001FFF7D6BF4FF000414FF0000078
:1054B000A1F500217047000090EA010F48BF81F07C
:1054C000004100F15E82421A3CBF801A89184FEAFF
:1054D000D0524FF07F4C1CEA410FA2EBD15318BFC2
:1054E0009CEA026F00F03B804FF0004C4CEA002039
:1054F0004CEA012121FA03FC10EB0C0C1ED202F144
:10550000FF325FEA1C2040EBC25038BF70471CF0EE
:105510007F0F4FEA400C18BFBCF17F4F38BF704778
:10552000C3F12003994008BF20F00100BCF17F4F78
:1055300038BF7047A0F1C04000F017BA4FEA3C00F6
:10554000000A40EBC25028BF1CF0FF0F4FEA400C8E
:10555000E6D018BFBCF17F4F38BF7047EAE79CEA3E
:10556000026F05D010EA5C0F08BF00F000407047E2
:1055700010B500F0B4F900BF64FBBE3E014800F076
:1055800070BA00BF0000C07F4FF47F0C1CEAD0123D
:105590001EBF1CEAD11392EA0C0F93EA0C0F00F025
:1055A000858090EA010F48BF42F4807240F4000CFD
:1055B00041F400002CF07F4120F07F4000B5814293
:1055C000A2EB03020FF2081CACEB504EC0F100003E
:1055D0009EF800E04FEA4E0E00FB0EFC38BF49007B
:1055E0004FEA2C1C02F5FA020CFB0EF34FEACE1E1A
:1055F0004FEA112C4FEAC1210EEB635E42EB2242CF
:105600000EFB0CFC4FEA1C5300FB03114FEA112C5C
:105610004FEA01310EFB0CFC4FEADC4C00FB0C1195
:10562000C14228BF09184CEB03335DF804EB10EBC3
:10563000410143EBC250B2F57C0F38BF704729D50A
:1056400012F0F00F1CBF00F1C04000F000407047A6
:10565000008182838485868788898B8C8D8E8F914B
:105660009293959697999A9C9D9FA0A2A3A5A7A86F
:10567000AAACAEB0B2B3B5B7B9BCBEC0C2C5C7C99B
:10568000CCCED1D4D7D9DCDFE2E6E9ECF0F3F7FAFF
:10569000FE0000004FEA400C0CF1807CBCF17E4F14
:1056A00028BF7047B0F1C04000F05FB990EA010F29
:1056B0000CEAD11348BF42F48072624538BF63459B
:1056C00007D213F47F0F16D080EA010000F00040EB
:1056D000704710B500F003F9097EFC3E00F005B8F4
:1056E00080EA010000F00040704780EA010000F00D
:1056F000004000F03AB912F47F0F04BF024870472F
:1057000080EA010000F031B90000C07F41000B0EBB
:10571000D3F19E0208D950F400034FEA032323FA81
:1057200002F048BF4042704710B500F0D8F800BF03
:1057300049922480002070476FF0004282EA2000E6
:1057400070470000C10DD1F19E0206DB4FEA002335
:1057500043F0004323FA02F07047004207D54FEAB6
:105760004001B1F1FE4F02D24FF00000704710B57A
:1057700000F0B5F849922480002070476FEA2000BD
:105780007047000010F0004148BF4042B0FA80F37B
:1057900010FA03F2C3F19D030BD051EAC35101EBA0
:1057A0001220530638BF704700F1010008BF20F0F7
:1057B00001007047B0FA80F310FA03F2C3F19D03C1
:1057C0000AD0D90501EB1220530638BF704700F10B
:1057D000010008BF20F00100704700004FF47F0C6B
:1057E0001CEAD0121EBF1CEAD11392EA0C0F93EAF6
:1057F0000C0F00F0478090EA010F48BF42F480721E
:105800004FF0004C4CEA00204CEA012102EB03026D
:10581000A0FB0113A2F50002002918BF43F0010309
:105820005B0028BF4FEA330342EB22425FEA132CAE
:105830004CEBC2502EBFBCEB436FB2F57C0F7047F0
:105840004FEA036CBCF1004F08BF20F00100B2F535
:105850007C0F38BF70470BD582F0FF0212F5803FF6
:10586000C8BF704700F1C040D8BF00F0004070478B
:1058700000F5000C5FEA4C0C48BF7047B0F1C04027
:1058800000F073B890EA010F0CEAD11348BF42F45C
:105890008072624538BF634504D280EA010000F09F
:1058A0000040704710B500F01AF800BF8900013EB3
:1058B00000F007B800F009B85FEA410C5FEA1C6C21
:1058C00008D080EA010000F050B85FEA400C5FEABF
:1058D0001C6CF6D14FF00040A0F5800070470EF12F
:1058E000020E2EF0030E5EF8044B244204D44FEA5D
:1058F0004102B2F17F4F11D84FEA4003B3F17F4F1D
:105900000CD80ED14FEAD07CB2F17F4F0CEB4C0C8F
:105910000CF1020C08BF4CEBD17C04E04FF0080CFA
:1059200001E04FEAD17C0CEB4C0324FA03F404F0C1
:105930000704B4F1040C06D20EEB840CBDE8104051
:105940004CF0010C6047DFE80CF0070802024FF052
:105950000040A0F5800010BD0846420018BFD2F1FB
:10596000807288BF00F0004010BDFF2141EAD05096
:10597000C005704790EA010F48BF81F000413FF534
:10598000A2AD421A04D882F00042A0EB02001144FA
:105990004FEAD0524FF07F4C1CEA410FA2EBD1539B
:1059A00018BF9CEA026F4AD04FF0004C4CEA00202E
:1059B0004CEA012121FA03FCB0EB0C0C0FD412F0DD
:1059C000FE0F36D05FEA4C001DD5001240EBC250EE
:1059D00038BF70471CF03F0F18BF70470BE0A2F1B3
:1059E00001025FEA1C2040EBC25038BF70471CF038
:1059F0007F0F18BF7047C3F12003994014BF401EAA
:105A000020F00100704780084FEA122308BF70475A
:105A1000B0FA80FCA2EB0C02CCF1280C60FA0CF07E
:105A200093EA122F04BF00EBC25070474FEAC370D5
:105A30007047130A5FEADC1008BF7047F6E79CEA7C
:105A4000026F04D010EA5C0F08BF0020704710B549
:105A5000FFF745FF40DFF63E81F000407047FAF760
:105A600080BF0CF00F03092B08BF082000F0518005
:105A70000A2B0BD0082B18BF704708BF1CF0400F33
:105A80000AD04FF000004FF0000170471CF0400FAB
:105A900018BF4FF0004070471CF0100F08D020F0E6
:105AA000704300F07F4242EAD3014FEA43707047EF
:105AB00000F0604021F07F4242EA000201F07F40A6
:105AC00040EA727070474FF0FF0212EAD0521CBFDA
:105AD00092F0FF038B42C2BFD14200EBC15070472E
