:020000040000FA
:10000000A0130020DD010000E5010000E701000071
:10001000E9010000EB010000ED010000000000001C
:10002000000000000000000000000000EF010000E0
:10003000F101000000000000F3010000AD09000024
:10004000CD090000F7010000F7010000F7010000F2
:10005000F7010000F7010000F7010000F7010000C0
:10006000F7010000F7010000F7010000F7010000B0
:10007000F7010000F7010000F7010000F7010000A0
:10008000F7010000F7010000F7010000F701000090
:10009000F7010000F7010000F7010000F701000080
:1000A000F7010000F7010000F7010000F701000070
:1000B000F7010000F7010000F7010000F701000060
:1000C000F7010000F7010000F7010000F701000050
:1000D000F7010000F7010000F7010000F701000040
:1000E000F7010000F7010000F7010000F701000030
:1000F000F7010000F7010000F7010000F701000020
:10010000F7010000F7010000F7010000F70100000F
:10011000F7010000F7010000F7010000F7010000FF
:10012000F7010000F7010000F7010000F7010000EF
:10013000F7010000F7010000F7010000F7010000DF
:1001400000F002F800F03AF80AA090E8000C8244AF
:100150008344AAF10107DA4501D100F02FF8AFF28C
:10016000090EBAE80F0013F0010F18BFFB1A43F095
:10017000010318471C1700003C170000103A24BF69
:1001800078C878C1FAD8520724BF30C830C144BFFC
:1001900004680C607047000000230024002500263E
:1001A000103A28BF78C1FBD8520728BF30C148BFDA
:1001B0000B6070471FB51FBD10B510BD00F031F8C2
:1001C0001146FFF7F7FF00F05DFD00F04FF803B4B4
:1001D000FFF7F2FF03BC00F057F800000948804722
:1001E00009480047FEE7FEE7FEE7FEE7FEE7FEE719
:1001F000FEE7FEE7FEE7FEE704480549054A064B31
:1002000070470000BD09000041010000A00300206C
:10021000A0130020A00F0020A00F002070477047FF
:100220007047754600F02CF8AE4605006946534607
:1002300020F00700854618B020B5FFF7DDFFBDE8C8
:1002400020404FF000064FF000074FF000084FF03D
:10025000000B21F00701AC46ACE8C009ACE8C009CE
:10026000ACE8C009ACE8C0098D46704710B504463B
:10027000AFF300802046BDE81040FFF7A8BF0000A4
:10028000004870474003002001491820ABBEFEE73C
:100290002600020070470AB181617047C161704752
:1002A00030B50F23C27801780125F2B1144A1268E3
:1002B00001F1E02102F4E062C2F5E062120AC2F14B
:1002C0000404D3404278A24084781C4014432201A5
:1002D00081F80024007800F01F018D404009800063
:1002E00000F1E020C0F8005130BD01F01F00854052
:1002F0004809800000F1E020C0F8805130BD0000C6
:100300000CED00E0044A0029116801D0814300E0AF
:1003100001431160704700000030004070B5144682
:100320000546C06B042202EBC402805C322808D16F
:10033000084600F0A1FCE96B51F83410BDE87040AC
:10034000084770BD10B50446084600F095FC052826
:1003500001D2A4F8500010BD70B514460546142A09
:1003600004D2084600F088FC25F8140070BD10B5D2
:100370000446A0F85A20084600F07EFC002801DC64
:10038000012004E04FF4FA41884200DD0846A4F859
:100390005C0010BD2DE9F041C46B154604EBC506A9
:1003A0008846B088242805D154F83570084600F0F6
:1003B0000DFC3860B088022805D154F835704046ED
:1003C00000F05AFC3880B088122805D154F83570F6
:1003D000404600F051FC3880B088042805D154F81C
:1003E0003570404600F048FC3860B088142805D1CC
:1003F00054F83540404600F03FFC2060BDE8F081F5
:1004000070B50446856AB0F9480021290AD034F94C
:10041000462F02EB820205EBC2020244401C6080C0
:10042000117070BD0028FCDD0121002008E02A5C6D
:100430002B1893F828309A4200D00021401C00B2BB
:10044000B4F948208242F2DC002651B1B4F94800E8
:100450002E54204600F012F8A4F8466085F8286073
:1004600008E0B4F8460010B1A4F8466002E00120AC
:10047000A4F84600A4F8486070BD00002DE9F00F14
:100480008146806A0022354904E0521C12B2835C26
:10049000002B5FD0835C11F823305B07F5D0835CC1
:1004A00011F823309B0755D000248A4601E0641CD4
:1004B00024B2A118435C1AF823108907F7D14F1E04
:1004C000DFF89C800023012500210AE08E18865D5C
:1004D00058F823C01CF801C0664500D00025491C0F
:1004E00009B2A142F2DB0DB11F4603E05B1C1BB257
:1004F000052BE8DBA11809B2425C53461AF822200A
:10050000520727D500226FF02F0408E0455C02EB6C
:10051000820204EB42022A44491C12B209B2455C31
:1005200013F825506D07F1D4435C232B12D1491CDD
:1005300009B2052F0ED2B9F9443093420ADD002AE0
:1005400008DB01440648143050F827304846BDE81F
:10055000F00F1847BDE8F00F70470000D0130000FF
:1005600024000020B0F85000022802D04FF4807020
:1005700070470020704700002DE9F0410446B4F9AF
:100580005860B4F95C70CD21CC235F4D022200206D
:10059000BE4223DBB4F856604EB9666B3170616BB6
:1005A0004B70636B0C219970636B4021D970B4F967
:1005B0005610082935DBA4F85600A4F858006880C6
:1005C000A4F85E20A4F86000B4F85010032901D10B
:1005D000A4F850004FF48070BDE8F081B4F95E607B
:1005E00040F2E937BE422EDDB4F85660AEB9B4F839
:1005F000606056B1666B3170616B4B70636B8C21C0
:100600009970636B3F21D97007E0616B0870616B73
:100610004870616B8870616BC870B4F95610082916
:1006200008DAB4F9560054F8341F0144401C6084C1
:100630000878D1E7A4F856006880A4F85E2001206D
:10064000A4F860009BE7B4F95610042949DAB4F81D
:10065000560038BBB4F95A10E06B042202EBC1011A
:10066000B4F95A20415C50F8320002290ED0042916
:1006700011D0142926D0242929D032290FD0B4F939
:10068000581030F9110000F031FD0AE0B4F95810AB
:1006900030F8110003E0B4F9581050F8210000F0D0
:1006A0003DFD206404F1400034F9561F21F00101A2
:1006B00001442088C20700F10100208008880BD087
:1006C000000A89E7B4F9581050F82100DBE7B4F9C3
:1006D000581050F82100E4E7698801446980C0B2ED
:1006E0007AE7A4F85600B4F85800401CA4F8580063
:1006F000B4F85E00401CA4F85E00616B6888087165
:10070000616B000A48713AE720000020B0F86610DB
:100710000022042901D1A0F86620B0F86610F9B9CA
:10072000B0F96410B0F9623099421ADAB0F9641085
:10073000C36A0B44491CA0F864101978836B1970C4
:10074000B0F96410B0F96230994211DAB0F964106E
:10075000C26A0A44491CA0F864101178826B517077
:1007600008E0A0F86420A0F862204FF48070704781
:10077000816B4A70B0F9661050F8382F0A44491C52
:10078000C185107870470000F8B50446002000903D
:10079000B4F85410444E91B1B4F95410B4F9442053
:1007A0009142B4F952102BDD04291CDAB4F952003D
:1007B00054F8301F0144401C60840878F8BDB4F937
:1007C0005210002906DA34F9520F0DEB0001401CDB
:1007D0002080F2E7A4F85200B4F85410491CA4F8A1
:1007E000541030805BE0A4F85200A4F85400B4F830
:1007F0005010012901D1A4F850004FF48070F8BDC9
:10080000294A042915883EDAB4F8520018BBB4F915
:100810005410E06B6FF0030202EBC101B4F95420F5
:10082000415C6FF0070303EBC202022980580CD031
:1008300004290CD014291ED024291ED0322907D017
:10084000B0F9000000F052FC04E0008800E000680D
:1008500000F064FC206404F1400034F9521F21F0E0
:10086000010101442088C20700F1010020800888AE
:1008700005D0000AF8BD0068E4E70068EAE741191E
:100880003180C0B2F8BDA4F85200B4F85400401C46
:10089000A4F85400206B0570216B280A487020468C
:1008A000FFF772FFF8BD0000200000203EB50446AF
:1008B0003D4800210291D0E90020CDE90020B4F8A4
:1008C0004C00A8B1B4F94C0004EB400030F9020C24
:1008D000B4F944209042B4F94A0017DD04280FDA35
:1008E00034F94A0F69460144401C208008783EBD17
:1008F000B4F94A0000284CDA34F94A0F02A9F2E7A9
:1009000024F84A1F61804FF480703EBD042840DA0D
:10091000B4F84A0038BBB4F94C10E06B04EB410169
:1009200031F9021C042202EBC101B4F94C20415CF4
:1009300004EB420232F9022C022950F832000CD0AA
:1009400004290CD014291ED024291ED0322907D006
:10095000B0F9000000F0CAFB04E0008800E0006885
:1009600000F0DCFB206404F1400034F94A1F21F060
:10097000010101442088C20700F10100208006D057
:100980000888000A3EBD0068E4E70068EAE70878E6
:100990003EBDA4F84A10B4F84C00401CA4F84C002A
:1009A0002046FFF783FF3EBDC813000002480168E0
:1009B000491C0160704700001C00002002490148EA
:1009C0000860704700E1F5050000002010B54FF009
:1009D0004024204600F02CF801460448FFF710FDA3
:1009E0002046BDE81040022100F009B8F8010020BF
:1009F0000246002052680A4200D001207047C268B7
:100A00000A43C2607047002A826801D00A4300E0AE
:100A10008A43826070470000044B0A681B68B3FB7E
:100A2000F2F2026109798160704700000000002045
:100A300041688907FCD50068C0B270474268D20798
:100A4000FCD101607047000070B50C46084D03E012
:100A5000294600F077FB641E002CF9DC054D002CC4
:100A600004DA294600F06EFB641CF8E770BD000054
:100A700000002041CDCCCC3D2DE9F047844609B1A2
:100A8000C1F800C000259CF800400CF101004E4E5A
:100A900001E010F8014B16F824703F07F9D42B2C15
:100AA00001D110F8014B2D2C03D110F8014B43F06C
:100AB00001032B2C01D110F8014B002A03DB012A82
:100AC00001D0242A05DD09B1C1F800C00020BDE82D
:100AD000F08722B1102A15D0022A1BD023E0302C37
:100AE00001D00A221FE00278782A07D0582A05D0C0
:100AF000622A05D0422A03D0082214E0102203E023
:100B0000022209E0302C0ED10778782F09D0582F17
:100B100007D008E0302C06D10778622F01D0422F91
:100B200001D14478801C4FF0FF39B9FBF2F7B2468F
:100B30005AF824605FEA467801D5303C04E0B407F7
:100B400014D0C6F30724373C94420FD243F002037B
:100B5000BD4202D304D1BC4202D805FB024502E0EB
:100B600043F0040311B110F8014BE1E7401E4FF0D0
:100B700000449A0703D431B1C1F800C003E01A075A
:100B800003D5DA0701D0002516E05E076FF00042BA
:100B900009D41E0710D4DE0702D0A54209D80BE005
:100BA000954208D808E01D0701D54D4604E0DD0751
:100BB00001D0254600E0154601B10860D80700D0F5
:100BC0006D42284683E70000D0130000F8B50021ED
:100BD0000D460E460124274B009109E0D20606D5AA
:100BE0002D2903D02B2902D00020F8BD6442401CDF
:100BF000017853F821205707F0D000230A226946D4
:100C0000FFF73AFF0746009801782E2910D1451CBE
:100C100000230A2269462846FFF72EFF0146009866
:100C2000451B084600F062FA6942FFF70DFF0546D2
:100C300000980178652901D0452906D100230A22B0
:100C40006946401CFFF718FF0646012C38460AD0BB
:100C500000F04CFA014685F0004000F03FFB3146C1
:100C6000FFF7F2FEF8BD00F041FA294600F0DCF98A
:100C7000F5E70000D013000000230A221946FFF711
:100C8000FBBE000000F0FEF877484FF47A71006870
:100C9000B0FBF1F0411E801EB0F1807F0BD24FF00F
:100CA000E020491E4161714AE02182F8141D0021B3
:100CB00081610721016100F083F900F003F900F080
:100CC00031F900F0A7F96A4EDFF8A8814FF040290A
:100CD0004FF020454FF0404401214F464846FFF772
:100CE00087FE30B9644800F04DF9C1B23846FFF7CD
:100CF000A5FEB8F80400474603283ED0042830D0AB
:100D00003068800709D42878800701D4B8796870E2
:100D10002878C00601D468787870B88888B301282C
:100D200076D0022873D00328B86900F00F01217033
:100D3000C0F303116170C0F30321A170C0F303314C
:100D4000E170C0F30341217173D0C0F303516171AD
:100D5000C0F30361A171000F56E0484800F012F99A
:100D6000687028788007F8D503E069784348FFF772
:100D700047FB2878C006F8D5CFE73068800705D54F
:100D8000CBE710E03878401C38706870287880070E
:100D9000F8D53B492878C006BFD46A78B8780A5499
:100DA000401CB870F6E76078F881B97B4FF6FF70A9
:100DB000227800EA01210A43FA81E1783982397CFC
:100DC000A27800EA01210A433A8261797982B97CEA
:100DD000227900EA01210A437A82E179B982397DD8
:100DE00000EA0120A1790143B982F8882070000A45
:100DF00060703889A070000AE07078892071000A5C
:100E00006071B889A071000AE07165E700E011E047
:100E10002088F88160883882A0887882E088B8824B
:100E2000F8882080388960807889A080B889E0803F
:100E300052E714E02068F8812068000C388260686E
:100E400078826068000CB882F888398940EA0140ED
:100E500020607889B98940EA014060603CE7C0F3CE
:100E60000350607138E70000000000200FE000E050
:100E70000000014004000020F8010020D8020020FA
:100E80008000002038B50D4908684FF6FF02104079
:100E90000B4A1043086000208DF8000002218DF8F5
:100EA00001108DF8020001248DF803406846FFF719
:100EB000F7F94FF0E020C0F8804238BD0CED00E0BB
:100EC0000000FA0515481449C163002120F8021BEF
:100ED00042F20F7220F8262B104A783A0260503204
:100EE00042600F4A82601032C2600C3A02610A22EC
:100EF0008283C1830184818441848161C1840185AD
:100F000081854185C185018641868186C1860187AB
:100F100041878187C1877047D0170000F801002002
:100F20006000002015481449C163002120F8021B0D
:100F300042F20F7220F8262B104A783A02605032A3
:100F400042600F4A82601032C2600C3A02610A228B
:100F50008283C1830184818441848161C18401854C
:100F600081854185C185018641868186C18601874B
:100F700041878187C187704720180000D802002070
:100F80006800002070B50446B0F94E000B4D55F8CE
:100F9000201020468847010A0ED0B4F8620008B13C
:100FA000042001E0B4F85000A4F84E00B4F94E005B
:100FB00055F8201020468847C0B270BD4C00002074
:100FC0001CB500210820FFF79DF9114C01220421D6
:100FD0002046FFF760F9012208212046FFF75BF960
:100FE0004FF4E130009003208DF804004FF04024CE
:100FF00069462046FFF710FD012208212046FFF731
:1010000002FD4FF0E0210120C1F800011CBD0000ED
:10101000000001404FF02040002101706B21418011
:10102000012101707047000090EA010F48BF81F074
:10103000004100F15A81421A3CBF801A89184FEAD8
:10104000D0524FF07F4C1CEA410FA2EBD15318BF96
:101050009CEA026F00F03B804FF0004C4CEA00200D
:101060004CEA012121FA03FC10EB0C0C1ED202F118
:10107000FF325FEA1C2040EBC25038BF70471CF0C3
:101080007F0F4FEA400C18BFBCF17F4F38BF70474D
:10109000C3F12003994008BF20F00100BCF17F4F4D
:1010A00038BF7047A0F1C04000F013B94FEA3C00D0
:1010B000000A40EBC25028BF1CF0FF0F4FEA400C63
:1010C000E6D018BFBCF17F4F38BF7047EAE79CEA13
:1010D000026F05D010EA5C0F08BF00F000407047B7
:1010E00010B500F0B0F800BF64FBBE3E10F0004148
:1010F00048BF4042B0FA80F310FA03F2C3F19D03F7
:101100000BD051EAC35101EB1220530638BF704790
:1011100000F1010008BF20F001007047B0FA80F331
:1011200010FA03F2C3F19D030AD0D90501EB122096
:10113000530638BF704700F1010008BF20F00100DE
:10114000704700004FF47F0C1CEAD0121EBF1CEA4F
:10115000D11392EA0C0F93EA0C0F00F0478090EA4B
:10116000010F48BF42F480724FF0004C4CEA00205F
:101170004CEA012102EB0302A0FB0113A2F50002DD
:10118000002918BF43F001035B0028BF4FEA330377
:1011900042EB22425FEA132C4CEBC2502EBFBCEB59
:1011A000436FB2F57C0F70474FEA036CBCF1004F00
:1011B00008BF20F00100B2F57C0F38BF70470BD597
:1011C00082F0FF0212F5803FC8BF704700F1C040B7
:1011D000D8BF00F00040704700F5000C5FEA4C0CEF
:1011E00048BF7047B0F1C04000F073B890EA010FFB
:1011F0000CEAD11348BF42F48072624538BF6345A0
:1012000004D280EA010000F00040704710B500F001
:101210001AF800BF8900013E00F007B800F009B8D5
:101220005FEA410C5FEA1C6C08D080EA010000F024
:1012300050B85FEA400C5FEA1C6CF6D14FF00040FA
:10124000A0F5800070470EF1020E2EF0030E5EF83E
:10125000044B244204D44FEA4102B2F17F4F11D82B
:101260004FEA4003B3F17F4F0CD80ED14FEAD07C48
:10127000B2F17F4F0CEB4C0C0CF1020C08BF4CEBA5
:10128000D17C04E04FF0080C01E04FEAD17C0CEB7C
:101290004C0324FA03F404F00704B4F1040C06D25E
:1012A0000EEB840CBDE810404CF0010C6047DFE809
:1012B0000CF0070802024FF00040A0F5800010BDBE
:1012C0000846420018BFD2F1807288BF00F000408B
:1012D00010BDFF2141EAD050C005704790EA010FD0
:1012E00048BF81F000413FF5A6AE421A04D882F013
:1012F0000042A0EB020011444FEAD0524FF07F4C65
:101300001CEA410FA2EBD15318BF9CEA026F4AD0EE
:101310004FF0004C4CEA00204CEA012121FA03FC7A
:10132000B0EB0C0C0FD412F0FE0F36D05FEA4C007D
:101330001DD5001240EBC25038BF70471CF03F0F64
:1013400018BF70470BE0A2F101025FEA1C2040EBDE
:10135000C25038BF70471CF07F0F18BF7047C3F1F1
:101360002003994014BF401E20F001007047800800
:101370004FEA122308BF7047B0FA80FCA2EB0C02C0
:10138000CCF1280C60FA0CF093EA122F04BF00EBAA
:10139000C25070474FEAC3707047130A5FEADC100F
:1013A00008BF7047F6E79CEA026F04D010EA5C0FB2
:1013B00008BF0020704710B5FFF745FF40DFF63E3D
:1013C00081F00040704700000000807F00000000B6
:1013D0002000000020010100200202002003030081
:1013E0002004040020050500200606002007070051
:1013F0002008080068090900280A0A00280B0B00C9
:10140000280C0C00280D0D00200E0E00200F0F00E0
:1014100020101000201111002012120020131300C0
:101420002014140020151500201616002017170090
:101430002018180020191900201A1A00201B1B0060
:10144000201C1C00201D1D00201E1E00201F1F0030
:101450004820200010212100102222001023230008
:101460001024240010252500102626001027270010
:101470001028280010292900102A2A00102B2B00E0
:10148000102C2C00102D2D00102E2E00102F2F00B0
:1014900004303000043131000432320004333300B0
:1014A0000434340004353500043636000437370080
:1014B0000438380004393900103A3A00103B3B0038
:1014C000103C3C00103D3D00103E3E00103F3F00F0
:1014D000104040008141610081426200814363000D
:1014E00081446400814565008146660001476700CC
:1014F0000148680001496900014A6A00014B6B001C
:10150000014C6C00014D6D00014E6E00014F6F00EB
:1015100001507000015171000152720001537300BB
:10152000015474000155750001567600015777008B
:101530000158780001597900015A7A00105B5B006C
:10154000105C5C00105D5D00105E5E00105F5F006F
:101550001060600082416100824262008243630049
:101560008244640082456500824666000247670047
:101570000248680002496900024A6A00024B6B0097
:10158000024C6C00024D6D00024E6E00024F6F0067
:101590000250700002517100025272000253730037
:1015A0000254740002557500025676000257770007
:1015B0000258780002597900025A7A00107B7B00A9
:1015C000107C7C00107D7D00107E7E00207F7F00DF
:1015D00000808000008181000082820000838300FF
:1015E00000848400008585000086860000878700CF
:1015F0000088880000898900008A8A00008B8B009F
:10160000008C8C00008D8D00008E8E00008F8F006E
:10161000009090000091910000929200009393003E
:10162000009494000095950000969600009797000E
:101630000098980000999900009A9A00009B9B00DE
:10164000009C9C00009D9D00009E9E00009F9F00AE
:1016500000A0A00000A1A10000A2A20000A3A3007E
:1016600000A4A40000A5A50000A6A60000A7A7004E
:1016700000A8A80000A9A90000AAAA0000ABAB001E
:1016800000ACAC0000ADAD0000AEAE0000AFAF00EE
:1016900000B0B00000B1B10000B2B20000B3B300BE
:1016A00000B4B40000B5B50000B6B60000B7B7008E
:1016B00000B8B80000B9B90000BABA0000BBBB005E
:1016C00000BCBC0000BDBD0000BEBE0000BFBF002E
:1016D00000C0C00000C1C10000C2C20000C3C300FE
:1016E00000C4C40000C5C50000C6C60000C7C700CE
:1016F00000C8C80000C9C90000CACA0000CBCB009E
:1017000000CCCC0000CDCD0000CECE0000CFCF006D
:1017100000D0D00000D1D10000D2D20000D3D3003D
:1017200000D4D40000D5D50000D6D60000D7D7000D
:1017300000D8D80000D9D90000DADA0000DBDB00DD
:1017400000DCDC0000DDDD0000DEDE0000DFDF00AD
:1017500000E0E00000E1E10000E2E20000E3E3007D
:1017600000E4E40000E5E50000E6E60000E7E7004D
:1017700000E8E80000E9E90000EAEA0000EBEB001D
:1017800000ECEC0000EDED0000EEEE0000EFEF00ED
:1017900000F0F00000F1F10000F2F20000F3F300BD
:1017A00000F4F40000F5F50000F6F60000F7F7008D
:1017B00000F8F80000F9F90000FAFA0000FBFB005D
:1017C00000FCFC0000FDFD0000FEFE0000FFFF002D
:1017D0001C0000200400000008000020020000009F
:1017E0000A000020020000000C000020020000009F
:1017F0000E00002002000000100000200200000087
:10180000120000200200000014000020020000006E
:101810001600002002000000180000200200000056
:101820001C0000200400000008000020020000004E
:101830000A000020020000000C000020020000004E
:101840000E00002002000000100000200200000036
:10185000120000200200000014000020020000001E
:101860001600002002000000180000200200000006
:10187000636F6E66000000006368670063616C6CF4
:101880000000000064756D70000000007365740056
:10189000B018000000000020800000007C01000063
:1018A0003019000080000020201300009801000083
:1018B00000E1F50500000000040000000000000049
:1018C0000000000000000000000000000000000018
:1018D000000000008C18000070180000781800004C
:1018E000841800007C1800009503000059030000D4
:1018F000450300006F0300001D030000AD08000059
:101900008907000065050000790500000D0700004B
:101910000000817F0000837F0000817F0000837FC3
:10192000000000000000827F000000000000827FB5
:0400000500000141B5
:00000001FF
