:020000040000FA
:10000000B0110020DD010000E5010000E701000063
:10001000E9010000EB010000ED010000000000001C
:10002000000000000000000000000000EF010000E0
:10003000F101000000000000F3010000F9090000D8
:10004000190A0000F7010000F7010000F7010000A5
:10005000F7010000F7010000F7010000F7010000C0
:10006000F7010000F7010000F7010000F7010000B0
:10007000F7010000F7010000F7010000F7010000A0
:10008000F7010000F7010000F7010000F701000090
:10009000F7010000F7010000F7010000F701000080
:1000A000F7010000F7010000F7010000F701000070
:1000B000F7010000F7010000F7010000F701000060
:1000C000F7010000F7010000F7010000F701000050
:1000D000F7010000F7010000F7010000F701000040
:1000E000F7010000F7010000F7010000F701000030
:1000F000F7010000F7010000F7010000F701000020
:10010000F7010000F7010000F7010000F70100000F
:10011000F7010000F7010000F7010000F7010000FF
:10012000F7010000F7010000F7010000F7010000EF
:10013000F7010000F7010000F7010000F7010000DF
:1001400000F002F800F03AF80AA090E8000C8244AF
:100150008344AAF10107DA4501D100F02FF8AFF28C
:10016000090EBAE80F0013F0010F18BFFB1A43F095
:10017000010318471019000030190000103A24BF7D
:1001800078C878C1FAD8520724BF30C830C144BFFC
:1001900004680C607047000000230024002500263E
:1001A000103A28BF78C1FBD8520728BF30C148BFDA
:1001B0000B6070471FB51FBD10B510BD00F058F89B
:1001C0001146FFF7F7FF00F083FD00F076F803B467
:1001D000FFF7F2FF03BC00F07DF8000009488047FC
:1001E00009480047FEE7FEE7FEE7FEE7FEE7FEE719
:1001F000FEE7FEE7FEE7FEE704480549054A064B31
:1002000070470000090A000041010000B001002011
:10021000B0110020B00D0020B00D00204FF0000202
:1002200000B5134694469646203922BFA0E80C50EC
:10023000A0E80C50B1F12001BFF4F7AF090728BFC7
:10024000A0E80C5048BF0CC05DF804EB890028BF43
:1002500040F8042B08BF704748BF20F8022B11F06C
:10026000804F18BF00F8012B7047704770477047E8
:10027000754600F02BF8AE4605006946534620F05F
:100280000700854618B020B5FFF7B6FFBDE820404F
:100290004FF000064FF000074FF000084FF0000B42
:1002A00021F00701AC46ACE8C009ACE8C009ACE8F5
:1002B000C009ACE8C0098D46704710B50446AFF3DD
:1002C00000802046BDE81040FFF781BF004870471E
:1002D0004C01002001491820ABBEFEE726000200B9
:1002E00070470AB181617047C161704730B50F2313
:1002F000C27801780125F2B1144A126801F1E021B7
:1003000002F4E062C2F5E062120AC2F10404D340D2
:100310004278A24084781C401443220181F80024D2
:10032000007800F01F018D404009800000F1E020BE
:10033000C0F8005130BD01F01F0085404809800021
:1003400000F1E020C0F8805130BD00000CED00E06D
:10035000044A0029116801D0814300E00143116083
:10036000704700000030004070B514460546C06B71
:10037000042202EBC402805C322808D1084600F057
:10038000A1FCE96B51F83410BDE87040084770BD1E
:1003900010B50446084600F095FC052801D2A4F8E3
:1003A000500010BD70B514460546142A04D2084604
:1003B00000F088FC25F8140070BD10B50446A0F8C4
:1003C0005A20084600F07EFC002801DC012004E0F1
:1003D0004FF4FA41884200DD0846A4F85C0010BDE5
:1003E0002DE9F041C46B154604EBC5068846B0887C
:1003F000242805D154F83570084600F00DFC38600B
:10040000B088022805D154F83570404600F05AFCF7
:100410003880B088122805D154F83570404600F075
:1004200051FC3880B088042805D154F83570404616
:1004300000F048FC3860B088142805D154F83540E5
:10044000404600F03FFC2060BDE8F08170B50446F6
:10045000856AB0F9480021290AD034F9462F02EB09
:10046000820205EBC2020244401C6080117070BD24
:100470000028FCDD0121002008E02A5C2B1893F8FD
:1004800028309A4200D00021401C00B2B4F9482024
:100490008242F2DC002651B1B4F948002E542046C5
:1004A00000F012F8A4F8466085F8286008E0B4F877
:1004B000460010B1A4F8466002E00120A4F846000E
:1004C000A4F8486070BD00002DE9F00F8146806AF5
:1004D0000022354904E0521C12B2835C002B5FD02D
:1004E000835C11F823305B07F5D0835C11F823306F
:1004F0009B0755D000248A4601E0641C24B2A11851
:10050000435C1AF823108907F7D14F1EDFF89C804F
:100510000023012500210AE08E18865D58F823C0CB
:100520001CF801C0664500D00025491C09B2A14253
:10053000F2DB0DB11F4603E05B1C1BB2052BE8DBB1
:10054000A11809B2425C53461AF82220520727D557
:1005500000226FF02F0408E0455C02EB820204EBFE
:1005600042022A44491C12B209B2455C13F82550D4
:100570006D07F1D4435C232B12D1491C09B2052F1E
:100580000ED2B9F9443093420ADD002A08DB014457
:100590000648143050F827304846BDE8F00F184799
:1005A000BDE8F00F70470000141600002000002086
:1005B000B0F85000022802D04FF48070704700203D
:1005C000704700002DE9F0410446B4F95860B4F9D1
:1005D0005C70CD21CC235F4D02220020BE4223DB84
:1005E000B4F856604EB9666B3170616B4B70636BDB
:1005F0000C219970636B4021D970B4F95610082909
:1006000035DBA4F85600A4F858006880A4F85E20F2
:10061000A4F86000B4F85010032901D1A4F85000E8
:100620004FF48070BDE8F081B4F95E6040F2E937C4
:10063000BE422EDDB4F85660AEB9B4F8606056B173
:10064000666B3170616B4B70636B8C219970636B5F
:100650003F21D97007E0616B0870616B4870616B76
:100660008870616BC870B4F95610082908DAB4F9BB
:10067000560054F8341F0144401C60840878D1E7C8
:10068000A4F856006880A4F85E200120A4F8600059
:100690009BE7B4F95610042949DAB4F8560038BB80
:1006A000B4F95A10E06B042202EBC101B4F95A20EC
:1006B000415C50F8320002290ED0042911D01429CF
:1006C00026D0242929D032290FD0B4F9581030F976
:1006D000110000F02DFE0AE0B4F9581030F81100B6
:1006E00003E0B4F9581050F8210000F039FE2064FE
:1006F00004F1400034F9561F21F001010144208823
:10070000C20700F10100208008880BD0000A89E7A9
:10071000B4F9581050F82100DBE7B4F9581050F83C
:100720002100E4E7698801446980C0B27AE7A4F84F
:100730005600B4F85800401CA4F85800B4F85E0005
:10074000401CA4F85E00616B68880871616B000A48
:1007500048713AE71C000020B0F866100022042916
:1007600001D1A0F86620B0F86610F9B9B0F96410AC
:10077000B0F9623099421ADAB0F96410C36A0B44D6
:10078000491CA0F864101978836B1970B0F96410D3
:10079000B0F96230994211DAB0F96410C26A0A44C1
:1007A000491CA0F864101178826B517008E0A0F821
:1007B0006420A0F862204FF480707047816B4A700B
:1007C000B0F9661050F8382F0A44491CC1851078DA
:1007D00070470000F8B5044600200090B4F85410AB
:1007E000444E91B1B4F95410B4F944209142B4F993
:1007F00052102BDD04291CDAB4F9520054F8301FD2
:100800000144401C60840878F8BDB4F952100029F6
:1008100006DA34F9520F0DEB0001401C2080F2E79C
:10082000A4F85200B4F85410491CA4F854103080B5
:100830005BE0A4F85200A4F85400B4F85010012969
:1008400001D1A4F850004FF48070F8BD294A042962
:1008500015883EDAB4F8520018BBB4F95410E06BB6
:100860006FF0030202EBC101B4F95420415C6FF058
:10087000070303EBC202022980580CD004290CD0D4
:1008800014291ED024291ED0322907D0B0F9000027
:1008900000F04EFD04E0008800E0006800F060FD1C
:1008A000206404F1400034F9521F21F00101014499
:1008B0002088C20700F101002080088805D0000AC6
:1008C000F8BD0068E4E70068EAE741193180C0B28A
:1008D000F8BDA4F85200B4F85400401CA4F8540029
:1008E000206B0570216B280A48702046FFF772FFC5
:1008F000F8BD00001C0000203EB504463D48002124
:100900000291D0E90020CDE90020B4F84C00A8B154
:10091000B4F94C0004EB400030F9020CB4F9442067
:100920009042B4F94A0017DD04280FDA34F94A0F6F
:1009300069460144401C208008783EBDB4F94A0055
:1009400000284CDA34F94A0F02A9F2E724F84A1FCA
:1009500061804FF480703EBD042840DAB4F84A004C
:1009600038BBB4F94C10E06B04EB410131F9021CC7
:10097000042202EBC101B4F94C20415C04EB4202B9
:1009800032F9022C022950F832000CD004290CD084
:1009900014291ED024291ED0322907D0B0F9000016
:1009A00000F0C6FC04E0008800E0006800F0D8FC1D
:1009B000206404F1400034F94A1F21F00101014490
:1009C0002088C20700F10100208006D00888000AB4
:1009D0003EBD0068E4E70068EAE708783EBDA4F899
:1009E0004A10B4F84C00401CA4F84C002046FFF715
:1009F00083FF3EBD0C16000002480168491C0160DF
:100A00007047000004000020024901480860704758
:100A100000E1F5050000002010B54FF0402420460D
:100A200000F02CF801460448FFF710FD2046BDE811
:100A30001040022100F009B8E40000200246002026
:100A400052680A4200D001207047C2680A43C2605F
:100A50007047002A826801D00A4300E08A4382601E
:100A600070470000044B0A681B68B3FBF2F2026196
:100A70000979816070470000000000204168890703
:100A8000FCD50068C0B270474268D207FCD1016053
:100A90007047000070B50C46084D03E0294600F091
:100AA00073FC641E002CF9DC054D002C04DA294689
:100AB00000F06AFC641CF8E770BD000000002041F3
:100AC000CDCCCC3D2DE9F047844609B1C1F800C03A
:100AD00000259CF800400CF101004E4E01E010F89A
:100AE000014B16F824703F07F9D42B2C01D110F8D4
:100AF000014B2D2C03D110F8014B43F001032B2C9B
:100B000001D110F8014B002A03DB012A01D0242A6D
:100B100005DD09B1C1F800C00020BDE8F08722B1B1
:100B2000102A15D0022A1BD023E0302C01D00A2233
:100B30001FE00278782A07D0582A05D0622A05D00B
:100B4000422A03D0082214E0102203E0022209E026
:100B5000302C0ED10778782F09D0582F07D008E015
:100B6000302C06D10778622F01D0422F01D1447872
:100B7000801C4FF0FF39B9FBF2F7B2465AF82460F7
:100B80005FEA467801D5303C04E0B40714D0C6F3E0
:100B90000724373C94420FD243F00203BD4202D3F4
:100BA00004D1BC4202D805FB024502E043F0040335
:100BB00011B110F8014BE1E7401E4FF000449A07D5
:100BC00003D431B1C1F800C003E01A0703D5DA0736
:100BD00001D0002516E05E076FF0004209D41E0721
:100BE00010D4DE0702D0A54209D80BE0954208D800
:100BF00008E01D0701D54D4604E0DD0701D025467C
:100C000000E0154601B10860D80700D06D422846C3
:100C100083E7000014160000F8B500210D460E46CB
:100C20000124274B009109E0D20606D52D2903D0D7
:100C30002B2902D00020F8BD6442401C017853F8F3
:100C400021205707F0D000230A226946FFF73AFF18
:100C50000746009801782E2910D1451C00230A224E
:100C600069462846FFF72EFF01460098451B0846B7
:100C700000F05EFB6942FFF70DFF05460098017822
:100C8000652901D0452906D100230A226946401C66
:100C9000FFF718FF0646012C38460AD000F048FB43
:100CA000014685F0004000F03BFC3146FFF7F2FEC4
:100CB000F8BD00F03DFB294600F0D8FAF5E700004A
:100CC0001416000000230A221946FFF7FBBE00009D
:100CD00000F020FA9A4800684FF47A72B0FBF2F004
:100CE000411E481EB0F1807F00D31BE0481E4FF02C
:100CF000E022506150170722002807DA53071D0E23
:100D0000904B00F00F04241F1D5503E053071C0EE9
:100D10008D4B1C5400BF00204FF0E0229061072053
:100D2000106100BF00F074FA00F024FA00F024F91A
:100D300008B100BFFEE701E101214FF04020FFF7BD
:100D40007DFE40B9814800F045FAC4B221464FF01B
:100D50004020FFF799FE7E48008820B1012873D01B
:100D6000022870D193E04FF04040407879490880E4
:100D7000084600884FF6FF7101EA00207549088097
:100D80004FF04040007809880843724908804FF0CE
:100D90004040C07870490880084600884FF6FF71CF
:100DA00001EA00206C4908804FF0404080780988B3
:100DB0000843694908804FF04040407967490880FE
:100DC000084600884FF6FF7101EA00206349088059
:100DD0004FF04040007909880843604908804FF08F
:100DE0004040C0795E490880084600884FF6FF7190
:100DF00001EA00205A4908804FF040408079098874
:100E0000084357490880574800784FF04041087020
:100E1000544800880012487053480078887052483F
:100E200000880012C8705148007808714F48008847
:100E3000001248714E48007888714D4800880012B1
:100E4000C8717AE000E04BE04FF040400088414933
:100E500008804FF0404040883F4908804FF04040B4
:100E600080883E4908804FF04040C0883C49088057
:100E70003C4800884FF0404108803B48008848804B
:100E80003A48008888803A480088C88055E04FF08A
:100E9000404000682F4908804FF040400068000C37
:100EA0002D4908804FF0404040682C4908804FF0A1
:100EB00040404068000C2A4908802A4800882A4996
:100EC000098840EA01404FF0404108602748008807
:100ED0002749098840EA01404FF0404148602CE032
:100EE0002448007800F00F004FF04041087021487E
:100EF0000078C0F3031048701E480088C0F3032038
:100F000088701C480088C0F30330C8701948006816
:100F1000C0F30340087117480068C0F303504871DC
:100F200014480068C0F303608871124800680F21FC
:100F300001EA10708907C87100BF00BFFCE600001D
:100F40000000002018ED00E000E400E0E4000020D4
:100F500008000020120000201400002016000020CD
:100F6000180000200A0000200C0000200E000020C5
:100F700010000020040000202DE9F04F87B04FF052
:100F8000204A13244FF0000B61495046FFF746F901
:100F9000012000FA04F64FF0AA09002514E00AEB3C
:100FA00006000590059880F80090760809F080000A
:100FB00028B1012000EB490000F0FF0903E04FEAEF
:100FC00049604FEA10696D1CA01C8542E7D30120DF
:100FD00000FA04F64FF0AA09002519E00AEB060012
:100FE00005900598007806900698484501D00BF1C9
:100FF000010B760809F0800028B1012000EB4900C0
:1010000000F0FF0903E04FEA49604FEA10696D1CE8
:10101000A01C8542E2D3012000FA04F64AF6AA2772
:10102000002512E00AEB060003900398078076087B
:1010300007F4004020B1012000EB470087B203E035
:101040004FF6FF7000EA47076D1CA542EAD3012066
:1010500000FA04F64AF6AA27002518E00AEB060073
:1010600003900398008804900498B84201D00BF1D3
:10107000010B760807F4004020B1012000EB470087
:1010800087B203E04FF6FF7000EA47076D1CA542E8
:10109000E4D3012000FA04F64FF0AA38002510E04E
:1010A0000AEB060001900198C0F80080760808F06D
:1010B000004018B1012000EB480801E04FEA480861
:1010C0006D1C601EA842EBD8012000FA04F64FF018
:1010D000AA38002515E00AEB060001900198006887
:1010E00002900298404501D00BF1010B760808F000
:1010F000004018B1012000EB480801E04FEA480821
:101100006D1C601EA842E6D8584607B0BDE8F08FB7
:1011100040420F0008B54FF4A06101F00702124BE6
:1011200018684FF6FF031840104B034343EA0220B0
:101130000D4B186000BF00208DF8000002208DF8D4
:10114000010000208DF8020001208DF803006846A0
:10115000FFF7CCF8002001218140054A430942F8FD
:10116000231000BF08BD00000CED00E00000FA05F0
:1011700080E200E015481449C163002120F8021BF9
:1011800042F20F7220F8262B104A783A0260503251
:1011900042600F4A82600832C260121F02610A2256
:1011A0008283C1830184818441848161C1840185FA
:1011B00081854185C185018641868186C1860187F9
:1011C00041878187C1877047141A0000E40000201E
:1011D0005C00002070B50446B0F94E000B4D55F888
:1011E000201020468847010A0ED0B4F8620008B1EA
:1011F000042001E0B4F85000A4F84E00B4F94E0009
:1012000055F8201020468847C0B270BD4800002025
:101210001CB500210820FFF79BF801220421124889
:10122000FFF75FF8012208210F48FFF75AF84FF443
:10123000E130009003208DF8040069464FF0402013
:10124000FFF710FC012208214FF04020FFF701FCBE
:101250000020012181404209920002F1E022C2F8FF
:10126000001100BF1CBD00000000014090EA010F0A
:1012700048BF81F0004100F15A81421A3CBF801AF8
:1012800089184FEAD0524FF07F4C1CEA410FA2EB75
:10129000D15318BF9CEA026F00F03B804FF0004C26
:1012A0004CEA00204CEA012121FA03FC10EB0C0C63
:1012B0001ED202F1FF325FEA1C2040EBC25038BF61
:1012C00070471CF07F0F4FEA400C18BFBCF17F4FF6
:1012D00038BF7047C3F12003994008BF20F00100D8
:1012E000BCF17F4F38BF7047A0F1C04000F013B988
:1012F0004FEA3C00000A40EBC25028BF1CF0FF0F31
:101300004FEA400CE6D018BFBCF17F4F38BF7047A2
:10131000EAE79CEA026F05D010EA5C0F08BF00F014
:101320000040704710B500F0B0F800BF64FBBE3E4F
:1013300010F0004148BF4042B0FA80F310FA03F2C7
:10134000C3F19D030BD051EAC35101EB12205306A8
:1013500038BF704700F1010008BF20F0010070475E
:10136000B0FA80F310FA03F2C3F19D030AD0D90555
:1013700001EB1220530638BF704700F1010008BF8F
:1013800020F00100704700004FF47F0C1CEAD012DF
:101390001EBF1CEAD11392EA0C0F93EA0C0F00F067
:1013A000478090EA010F48BF42F480724FF0004C32
:1013B0004CEA00204CEA012102EB0302A0FB0113DE
:1013C000A2F50002002918BF43F001035B0028BF0B
:1013D0004FEA330342EB22425FEA132C4CEBC2503C
:1013E0002EBFBCEB436FB2F57C0F70474FEA036C26
:1013F000BCF1004F08BF20F00100B2F57C0F38BFF0
:1014000070470BD582F0FF0212F5803FC8BF7047CE
:1014100000F1C040D8BF00F00040704700F5000C5C
:101420005FEA4C0C48BF7047B0F1C04000F073B8A1
:1014300090EA010F0CEAD11348BF42F48072624572
:1014400038BF634504D280EA010000F000407047D5
:1014500010B500F01AF800BF8900013E00F007B88F
:1014600000F009B85FEA410C5FEA1C6C08D080EA22
:10147000010000F050B85FEA400C5FEA1C6CF6D146
:101480004FF00040A0F5800070470EF1020E2EF0E4
:10149000030E5EF8044B244204D44FEA4102B2F139
:1014A0007F4F11D84FEA4003B3F17F4F0CD80ED1D4
:1014B0004FEAD07CB2F17F4F0CEB4C0C0CF1020CDC
:1014C00008BF4CEBD17C04E04FF0080C01E04FEA80
:1014D000D17C0CEB4C0324FA03F404F00704B4F1C0
:1014E000040C06D20EEB840CBDE810404CF0010C4D
:1014F0006047DFE80CF0070802024FF00040A0F55B
:10150000800010BD0846420018BFD2F1807288BF2B
:1015100000F0004010BDFF2141EAD050C0057047E7
:1015200090EA010F48BF81F000413FF5A6AE421A94
:1015300004D882F00042A0EB020011444FEAD052DE
:101540004FF07F4C1CEA410FA2EBD15318BF9CEA2D
:10155000026F4AD04FF0004C4CEA00204CEA0121C7
:1015600021FA03FCB0EB0C0C0FD412F0FE0F36D0B6
:101570005FEA4C001DD5001240EBC25038BF7047E7
:101580001CF03F0F18BF70470BE0A2F101025FEAA9
:101590001C2040EBC25038BF70471CF07F0F18BFB3
:1015A0007047C3F12003994014BF401E20F0010092
:1015B000704780084FEA122308BF7047B0FA80FCDA
:1015C000A2EB0C02CCF1280C60FA0CF093EA122F7B
:1015D00004BF00EBC25070474FEAC3707047130A54
:1015E0005FEADC1008BF7047F6E79CEA026F04D0A0
:1015F00010EA5C0F08BF0020704710B5FFF745FFE9
:1016000040DFF63E81F00040704700000000807F20
:101610000000000020000000200101002002020064
:101620002003030020040400200505002006060016
:10163000200707002008080068090900280A0A0096
:10164000280B0B00280C0C00280D0D00200E0E009E
:10165000200F0F0020101000201111002012120086
:101660002013130020141400201515002016160056
:10167000201717002018180020191900201A1A0026
:10168000201B1B00201C1C00201D1D00201E1E00F6
:10169000201F1F00482020001021210010222200BE
:1016A00010232300102424001025250010262600D6
:1016B000102727001028280010292900102A2A00A6
:1016C000102B2B00102C2C00102D2D00102E2E0076
:1016D000102F2F000430300004313100043232006A
:1016E0000433330004343400043535000436360046
:1016F000043737000438380004393900103A3A000A
:10170000103B3B00103C3C00103D3D00103E3E00B5
:10171000103F3F0010404000814161008142620063
:101720008143630081446400814565008146660011
:10173000014767000148680001496900014A6A00E1
:10174000014B6B00014C6C00014D6D00014E6E00B1
:10175000014F6F0001507000015171000152720081
:101760000153730001547400015575000156760051
:10177000015777000158780001597900015A7A0021
:10178000105B5B00105C5C00105D5D00105E5E0035
:10179000105F5F0010606000824161008242620061
:1017A000824363008244640082456500824666008D
:1017B000024767000248680002496900024A6A005D
:1017C000024B6B00024C6C00024D6D00024E6E002D
:1017D000024F6F00025070000251710002527200FD
:1017E00002537300025474000255750002567600CD
:1017F000025777000258780002597900025A7A009D
:10180000107B7B00107C7C00107D7D00107E7E00B4
:10181000207F7F00008080000081810000828200A4
:101820000083830000848400008585000086860094
:10183000008787000088880000898900008A8A0064
:10184000008B8B00008C8C00008D8D00008E8E0034
:10185000008F8F0000909000009191000092920004
:1018600000939300009494000095950000969600D4
:10187000009797000098980000999900009A9A00A4
:10188000009B9B00009C9C00009D9D00009E9E0074
:10189000009F9F0000A0A00000A1A10000A2A20044
:1018A00000A3A30000A4A40000A5A50000A6A60014
:1018B00000A7A70000A8A80000A9A90000AAAA00E4
:1018C00000ABAB0000ACAC0000ADAD0000AEAE00B4
:1018D00000AFAF0000B0B00000B1B10000B2B20084
:1018E00000B3B30000B4B40000B5B50000B6B60054
:1018F00000B7B70000B8B80000B9B90000BABA0024
:1019000000BBBB0000BCBC0000BDBD0000BEBE00F3
:1019100000BFBF0000C0C00000C1C10000C2C200C3
:1019200000C3C30000C4C40000C5C50000C6C60093
:1019300000C7C70000C8C80000C9C90000CACA0063
:1019400000CBCB0000CCCC0000CDCD0000CECE0033
:1019500000CFCF0000D0D00000D1D10000D2D20003
:1019600000D3D30000D4D40000D5D50000D6D600D3
:1019700000D7D70000D8D80000D9D90000DADA00A3
:1019800000DBDB0000DCDC0000DDDD0000DEDE0073
:1019900000DFDF0000E0E00000E1E10000E2E20043
:1019A00000E3E30000E4E40000E5E50000E6E60013
:1019B00000E7E70000E8E80000E9E90000EAEA00E3
:1019C00000EBEB0000ECEC0000EDED0000EEEE00B3
:1019D00000EFEF0000F0F00000F1F10000F2F20083
:1019E00000F3F30000F4F40000F5F50000F6F60053
:1019F00000F7F70000F8F80000F9F90000FAFA0023
:101A000000FBFB0000FCFC0000FDFD0000FEFE00F2
:101A100000FFFF0004000020040000000800002078
:101A2000020000000A000020020000000C0000205C
:101A3000020000000E000020020000001000002044
:101A4000020000001200002002000000140000202C
:101A50000200000016000020020000001800002014
:101A600002000000636F6E6600000000636867009C
:101A700063616C6C0000000064756D700000000014
:101A800073657400A41A0000000000206C000000C0
:101A90007C010000101B00006C00002044110000BD
:101AA0009801000000E1F5050000000003000000BF
:101AB0000000000000000000000000000000000026
:101AC00000000000801A0000641A00006C1A000078
:101AD000781A0000701A0000E1030000A50300005E
:101AE00091030000BB03000069030000F908000037
:101AF000D5070000B1050000C5050000590700002A
:101B00000000817F0000837F000000000000827FD2
:0400000500000141B5
:00000001FF
